:100000000C942E000C946C070C946C070C946C07E9
:100010000C946C070C946C070C946C070C946C0794
:100020000C946C070C946C070C946C070C946C0784
:100030000C946C070C946C070C946C070C946C0774
:100040000C946C070C946C070C946C070C946C0764
:100050000C946C0700600076000EE60011241FBEB1
:10006000CFE5D8E0DEBFCDBFE4E5F0E040E017C06B
:10007000B591A59135912591059107FD0CC09591FC
:100080008591EF01F92FE82F05900D92A217B30784
:10009000D9F7FE0104C01D92A217B307E1F7EB35B3
:1000A000F40731F70E9458000C94F406F894FFCF3F
:1000B000CF93DF93CDB7DEB765970FB6F894DEBF69
:1000C0000FBECDBF60E875E280E00E94A0010E94F3
:1000D00044050E94BA040E9495061A821982FE0104
:1000E000339682E1DF011D928A95E9F7CE010196F0
:1000F0006C01E82EFD2CA12CB12C88248A94912C23
:100100000E945807182F8D8B0E941D05BE016B5E43
:100110007F4F8E2D9F2D0E94A8061E3389F789815F
:10012000882309F4B2C0883281F0FE01329680E063
:1001300090E002C0283229F0019621912111FACFD6
:10014000A4C099230CF4A1C002C08A2D9B2D9C0150
:100150002F5F3F4FD601A20FB31F4C91442309F4E8
:1001600094C0483269F00296F601E80FF91F02C008
:10017000883231F02F5F3F4F81918111F9CF85C0D7
:1001800033230CF482C0A9014F5F5F4FF601E40FE7
:10019000F51F8081882309F48BC080538A3008F4CE
:1001A00076C02E5F3F4FF601E20FF31F4F5F5F4FA8
:1001B0008191882309F47CC080538A30B8F767C0E6
:1001C0009801220F331F000F111F000F111F000F86
:1001D000111F020F131F90E0C097080F191F819184
:1001E00090ED980F9A3060F37C90872D8B7F83354C
:1001F00041F091E4791609F49BC0A4E47A1245C059
:1002000077C08AE50E941D050E31110514F40A2DF0
:100210001B2D0E94950680E690E00E94CC06872D5B
:100220000E941D0561E080E00E9408078EE690E0D4
:100230000E94CC060F3F110519F014F0082D192D5E
:100240001127C8010E94C805B4E47B16C1F0B71598
:1002500020F081E4781679F016C093E5791639F02C
:10026000A7E57A1210C0C8010E94FF050EC0C801A0
:100270000E9415060AC0C8010E94410606C0C801B6
:100280000E942B0602C00E945706198239CFF60140
:10029000E40FF51F8081FA013196EC0DFD1D0A2D4A
:1002A0001B2D8ECF8AE50E941D050A2D1B2DB1CF77
:1002B0007C90872D8B7F8335A9F30A2D1B2D99CF39
:1002C0000E94950680E690E00E94CC06872D0E9451
:1002D0001D0561E080E00E9408078EE690E00E9424
:1002E000CC068A2D9B2D0E94C8050A2D1B2DC7CF39
:1002F0008AE50E941D050E3111050CF08ACFE0CF72
:100300000E94950680E690E00E94CC06872D0E9410
:100310001D0561E080E00E9408078EE690E00E94E3
:10032000CC068A2D9B2D0E94C8050A2D1B2DA3CF1C
:100330008AE50E941D050E3111050CF06ACFE0CF51
:10034000CF93DF93EB01813061F138F0823009F413
:100350004CC0833009F471C07FC0599880B58F7B41
:10036000806880BD8FE19EE40197F1F700C0000036
:10037000072E000C880B990B0E947F049B01AC0197
:1003800060E074E284E799E40E94650720E030E0D1
:1003900040E85FE30E9429070E94300770BD69B9F9
:1003A0005BC0599A80B58F7B806880BD8FE19EE4E9
:1003B0000197F1F700C00000072E000C880B990B85
:1003C0000E947F049B01AC0160E074E284EF99E439
:1003D0000E94650720E030E040E85FE30E942907C3
:1003E0000E94300770BD69B937C0599880B5806CDC
:1003F00080BD41E060E081E00E9435028FE19EE433
:100400000197F1F700C00000BE01DD0F880B990BCA
:100410000E947F049B01AC0160E074E284EF9AE4E7
:100420000E94650720E030E040E85FE30E94290772
:100430000E94300770BD69B90FC0599880B5806CB3
:1004400080BD40E060E081E00E9435028FE19EE4E3
:100450000197F1F700C0000080B5866880BD8AB1C1
:0A04600088618AB9DF91CF910895F9
:10046A00813019F130F08230E1F1833009F455C05E
:10047A000895442319F0413069F008952AB381E0C0
:10048A0090E002C0880F991F6A95E2F7809582234F
:10049A008ABB08952AB381E090E002C0880F991FB1
:1004AA006A95E2F7822B8ABB0895442319F04130FA
:1004BA0069F0089527B381E090E002C0880F991F80
:1004CA006A95E2F78095822387BB089527B381E076
:1004DA0090E002C0880F991F6A95E2F7822B87BBCA
:1004EA000895442319F0413069F0089524B381E056
:1004FA0090E002C0880F991F6A95E2F780958223DF
:10050A0084BB089524B381E090E002C0880F991F4C
:10051A006A95E2F7822B84BB0895442319F041308F
:10052A0069F0089521B381E090E002C0880F991F15
:10053A006A95E2F78095822381BB089521B381E011
:10054A0090E002C0880F991F6A95E2F7822B81BB5F
:02055A00089502
:10055C00813019F130F08230E1F1833009F455C06B
:10056C000895442319F0413069F008952BB381E0CC
:10057C0090E002C0880F991F6A95E2F7809582235C
:10058C008BBB08952BB381E090E002C0880F991FBC
:10059C006A95E2F7822B8BBB0895442319F0413006
:1005AC0069F0089528B381E090E002C0880F991F8C
:1005BC006A95E2F78095822388BB089528B381E081
:1005CC0090E002C0880F991F6A95E2F7822B88BBD6
:1005DC000895442319F0413069F0089525B381E062
:1005EC0090E002C0880F991F6A95E2F780958223EC
:1005FC0085BB089525B381E090E002C0880F991F58
:10060C006A95E2F7822B85BB0895442319F041309B
:10061C0069F0089522B381E090E002C0880F991F21
:10062C006A95E2F78095822382BB089522B381E01C
:10063C0090E002C0880F991F6A95E2F7822B82BB6B
:02064C0008950F
:10064E0010C00E943E0758F00E94370740F029F470
:10065E005F3F29F00C94520751110C9446070C94ED
:10066E0069070E94680568F39923B1F3552391F346
:10067E00951B550BBB27AA2762177307840738F003
:10068E009F5F5F4F220F331F441FAA1FA9F335D060
:10069E000E2E3AF0E0E832D091505040E695001C14
:1006AE00CAF72BD0FE2F29D0660F771F881FBB1FCE
:1006BE00261737074807AB07B0E809F0BB0B802DAC
:1006CE00BF01FF2793585F4F3AF09E3F510578F0D8
:1006DE000C9452070C9446075F3FE4F3983ED4F314
:1006EE00869577956795B795F7959F5FC9F7880FAC
:1006FE00911D9695879597F90895E1E0660F771FFE
:10070E00881FBB1F621773078407BA0720F0621B8E
:0E071E00730B840BBA0BEE1F88F7E09508955D
:10072C0011C00E94370738F00E943E0720F039F4C0
:10073C009F3F19F426F40C9469070EF4E095E7FB3F
:10074C000C945207E92F0E94680558F3BA176207F8
:10075C0073078407950720F079F4A6F50C944507E8
:10076C000EF4E0950B2EBA2FA02D0B01B9019001C0
:10077C000C01CA01A0011124FF27591B99F0593F04
:10078C0050F4503E68F11A16F040A22F232F342F4C
:10079C004427585FF3CF469537952795A795F0409A
:1007AC005395C9F77EF41F16BA0B620B730B840BAF
:1007BC00BAF09150A1F0FF0FBB1F661F771F881F67
:1007CC00C2F70EC0BA0F621F731F841F48F48795BF
:1007DC0077956795B795F7959E3F08F0B0CF9395B1
:0E07EC00880F08F09927EE0F979587950895CE
:1007FA00CF92DF92EF92FF920F931F93CF93DF93E3
:10080A007C018B01992324F4882799278E199F0943
:10081A00F801C0E0D0E00F2EFAE0CF2ED12CF02D57
:10082A0001C0E9019E012F5F3F4FB6010E946D068C
:10083A00805D8193862F972F1816190694F3FF204F
:10084A003CF4F801E20FF31F8DE280832F5F3F4FE4
:10085A00F801E20FF31F1082C8010E94AB05DF9175
:10086A00CF911F910F91FF90EF90DF90CF90089555
:10087A008130A1F028F08230F9F0833059F10895DF
:10088A00442319F0413031F008958AB36095682302
:10089A006ABB08958AB3682B6ABB0895442319F08A
:1008AA00413031F0089587B36095682367BB089596
:1008BA0087B3682B67BB0895442319F0413031F0A0
:1008CA00089584B36095682364BB089584B3682B44
:1008DA0064BB0895442319F0413031F0089581B37F
:1008EA006095682361BB089581B3682B61BB089545
:1008FA00E89409C097FB3EF49095809570956195B0
:10090A007F4F8F4F9F4F9923A9F0F92F96E9BB2765
:10091A009395F695879577956795B795F111F8CFE1
:10092A00FAF4BB0F11F460FF1BC06F5F7F4F8F4F4C
:10093A009F4F16C0882311F096E911C0772321F042
:10094A009EE8872F762F05C0662371F096E8862FDA
:10095A0070E060E02AF09A95660F771F881FDAF731
:0A096A00880F9695879597F9089578
:100974000E944C0764E083E00E94110782E00E9419
:10098400E90680E883BD41E063E082E00E9435022D
:1009940041E064E082E00E94350241E065E082E0EB
:1009A4000E94350241E066E082E00E94350240E0A8
:1009B40063E082E00E94AE0240E064E082E00E94D4
:1009C400AE0240E065E082E00E94AE0240E066E0F4
:0809D40082E00E94AE020895CA
:1009DC000E94700588F09F5798F0B92F9927B7514E
:1009EC00B0F0E1F0660F771F881F991F1AF0BA95C7
:1009FC00C9F714C0B13091F00E944507B1E00895D9
:100A0C000C944507672F782F8827B85F39F0B93FCA
:100A1C00CCF3869577956795B395D9F73EF4909579
:0E0A2C008095709561957F4F8F4F9F4F089575
:100A3A00CF93C82F8FE39CE90197F1F700C000001C
:100A4A00C19A8BB38F709C2F907F892B8BBB0E948E
:100A5A00FF068BB3282F2F7030E1C39FC0011124EA
:100A6A00822B8BBB0E94FF068FEF99EF20E081500B
:0E0A7A0090402040E1F700C00000CF910895A9
:100A880041E060EF80E00E943D0441E06EE081E0DB
:100A98000E943D042FEF89EF90E021508040904064
:100AA800E1F700C0000040E064E081E00E94AE028F
:100AB80082E00E948A0588E20E948A058CE00E94F2
:080AC8008A050E9495060895BD
:100AD00057FD9058440F551F59F05F3F71F04795EF
:100AE000880F97FB991F61F09F3F79F087950895D4
:100AF000121613061406551FF2CF4695F1DF08C0F3
:100B0000161617061806991FF1CF8695710561050F
:040B100008940895A8
:100B1400CF93C82FC1988BB38F709C2F907F892B54
:100B24008BBB0E94FF068BB3282F2F7030E1C39F2D
:100B3400C0011124822B8BBB0E94FF068FEF99EF1B
:100B440020E0815090402040E1F700C00000CF91A8
:020B5400089502
:100B5600FC0101900020E9F73197E81BF90B9F0192
:100B660021503109121613067CF4E80FF91FDC0137
:100B760080E090E04C9152915D9340830196215024
:0A0B8600310982179307B4F30895B4
:100B9000CF93DF93CDB7DEB72B970FB6F894DEBFB8
:100BA0000FBECDBFBE016F5F7F4F0E94FD03CE0120
:100BB00001960E94CC062B960FB6F894DEBF0FBEAE
:080BC000CDBFDF91CF91089534
:100BC800813049F028F0823051F0833081F0089567
:100BD8000E945D07089585B5806485BD089584E603
:100BE80083BD85B5886085BD0E946107089585B578
:060BF800886485BD08952C
:100BFE0083BD41E063E082E00E94AE0240E064E02B
:100C0E0082E00E94AE0241E065E082E00E94AE0208
:0C0C1E0040E066E082E00E94AE02089513
:100C2A0083BD40E063E082E00E94AE0241E064E0FE
:100C3A0082E00E94AE0240E065E082E00E94AE02DD
:0C0C4A0041E066E082E00E94AE020895E6
:100C560083BD41E063E082E00E94AE0240E064E0D2
:100C660082E00E94AE0240E065E082E00E94AE02B1
:0C0C760041E066E082E00E94AE020895BA
:100C820083BD40E063E082E00E94AE0241E064E0A6
:100C920082E00E94AE0241E065E082E00E94AE0284
:0C0CA20040E066E082E00E94AE0208958F
:100CAE0040E063E082E00E94AE0240E064E082E059
:100CBE000E94AE0240E065E082E00E94AE0240E09B
:0C0CCE0066E082E00E94AE0213BC0895B4
:100CDA0097FB072E16F4009407D077FD09D00E94DF
:100CEA00810607FC05D03EF4909581959F4F0895A3
:080CFA00709561957F4F08958C
:100D0200AA1BBB1B51E107C0AA1FBB1FA617B7072F
:100D120010F0A61BB70B881F991F5A95A9F780954B
:080D22009095BC01CD0108957C
:100D2A00C1988BB38F708BBB0E94FF068BB38F70F9
:100D3A0080618BBB0E94FF068FE19EE40197F1F769
:060D4A0000C00000089546
:100D50000F931F93CF93DF93EC018B010E94DB066F
:100D6000B8018C0F9D1F0E941A07CE01DF91CF9111
:060D70001F910F91089590
:100D7600092E0394000C11F4882352F0BB0F40F4A3
:100D8600BF2B11F460FF04C06F5F7F4F8F4F9F4FE3
:020D96000895BE
:100D9800CF93DF93EC018881882331F021960E945C
:0E0DA8001D0589918111FBCFDF91CF91089538
:100DB600FC01AF014F5F5F4F2081222311F0FA0142
:0C0DC600F8CF9F01281B390BC9010895CC
:100DD20095B59F7C95BD25B530E1839FC001112457
:060DE200822B85BD08957F
:100DE800EC010E9471070E947007CE010E947207F1
:060DF800CE010E946E070F
:100DFE00C39A8FE19EE40197F1F700C00000C398FB
:020E0E00089545
:100E100020E4829FC00111246068862B0E948A050D
:020E2000089533
:100E2200CF93C62F0E94E4058C2F0E942207CF91F8
:020E3200089521
:100E3400FC01DB012D91BD0121932111FACF08950D
:0E0E440095B5987F95BD95B5892B85BD089510
:0E0E52005058BB27AA270E9496030C94BB069B
:0E0E60000E94EE046894B1110C9446070895A8
:0E0E6E0000240A9416161706180609060895A1
:0E0E7C0000240A9412161306140605060895A3
:0E0E8A00E894BB2766277727CB0197F90895D8
:0C0E980041E067E083E00E94350208950D
:0C0EA40097F99F6780E870E060E0089517
:0A0EB00057985F9BFECF8CB10895A8
:080EBA0089B7806489BF089527
:080EC20089B7806889BF08951B
:080ECA000E9427030C94BB06F3
:060ED2009FEF80EC089583
:040ED8000C94000076
:040EDC000E9456001A
:020EE000089573
:020EE200089571
:020EE40008956F
:100EE60044617461207061727365643A20005370C6
:060EF6006565643A20006E
:00000001FF
