:100000000C942E000C9443070C9443070C94430764
:100010000C9443070C9443070C9443070C94430738
:100020000C9443070C9443070C9443070C94430728
:100030000C9443070C9443070C9443070C94430718
:100040000C9443070C9443070C9443070C94430708
:100050000C94430700600076000E940011241FBE2C
:10006000CFE5D8E0DEBFCDBFE4E5F0E040E017C06B
:10007000B591A59135912591059107FD0CC09591FC
:100080008591EF01F92FE82F05900D92A217B30784
:10009000D9F7FE0104C01D92A217B307E1F7EB35B3
:1000A000F40731F70E944E020C94CB06F894FFCF70
:1000B000CF93DF93EB01813061F138F0823009F4A6
:1000C0004CC0833009F471C07FC0599880B58F7BD4
:1000D000806880BD8FE19EE40197F1F700C00000C9
:1000E000072E000C880B990B0E9434049B01AC0175
:1000F00060E074E284E799E40E943C0720E030E08D
:1001000040E85FE30E9400070E94070770BD69B9DD
:100110005BC0599A80B58F7B806880BD8FE19EE47B
:100120000197F1F700C00000072E000C880B990B17
:100130000E9434049B01AC0160E074E284EF99E416
:100140000E943C0720E030E040E85FE30E940007A7
:100150000E94070770BD69B937C0599880B5806C97
:1001600080BD41E060E081E00E94ED008FE19EE40F
:100170000197F1F700C00000BE01DD0F880B990B5D
:100180000E9434049B01AC0160E074E284EF9AE4C5
:100190000E943C0720E030E040E85FE30E94000757
:1001A0000E94070770BD69B90FC0599880B5806C6F
:1001B00080BD40E060E081E00E94ED008FE19EE4C0
:1001C0000197F1F700C0000080B5866880BD8AB154
:0A01D00088618AB9DF91CF9108958C
:1001DA00813019F130F08230E1F1833009F455C0F1
:1001EA000895442319F0413069F008952AB381E053
:1001FA0090E002C0880F991F6A95E2F780958223E2
:10020A008ABB08952AB381E090E002C0880F991F43
:10021A006A95E2F7822B8ABB0895442319F041308C
:10022A0069F0089527B381E090E002C0880F991F12
:10023A006A95E2F78095822387BB089527B381E008
:10024A0090E002C0880F991F6A95E2F7822B87BB5C
:10025A000895442319F0413069F0089524B381E0E8
:10026A0090E002C0880F991F6A95E2F78095822371
:10027A0084BB089524B381E090E002C0880F991FDF
:10028A006A95E2F7822B84BB0895442319F0413022
:10029A0069F0089521B381E090E002C0880F991FA8
:1002AA006A95E2F78095822381BB089521B381E0A4
:1002BA0090E002C0880F991F6A95E2F7822B81BBF2
:0202CA00089595
:1002CC00813019F130F08230E1F1833009F455C0FE
:1002DC000895442319F0413069F008952BB381E05F
:1002EC0090E002C0880F991F6A95E2F780958223EF
:1002FC008BBB08952BB381E090E002C0880F991F4F
:10030C006A95E2F7822B8BBB0895442319F0413098
:10031C0069F0089528B381E090E002C0880F991F1E
:10032C006A95E2F78095822388BB089528B381E013
:10033C0090E002C0880F991F6A95E2F7822B88BB68
:10034C000895442319F0413069F0089525B381E0F4
:10035C0090E002C0880F991F6A95E2F7809582237E
:10036C0085BB089525B381E090E002C0880F991FEA
:10037C006A95E2F7822B85BB0895442319F041302E
:10038C0069F0089522B381E090E002C0880F991FB4
:10039C006A95E2F78095822382BB089522B381E0AF
:1003AC0090E002C0880F991F6A95E2F7822B82BBFE
:0203BC000895A2
:1003BE0010C00E94150758F00E940E0740F029F455
:1003CE005F3F29F00C94290751110C941D070C94D2
:1003DE0040070E943F0568F39923B1F3552391F32B
:1003EE00951B550BBB27AA2762177307840738F096
:1003FE009F5F5F4F220F331F441FAA1FA9F335D0F3
:10040E000E2E3AF0E0E832D091505040E695001CA6
:10041E00CAF72BD0FE2F29D0660F771F881FBB1F60
:10042E00261737074807AB07B0E809F0BB0B802D3E
:10043E00BF01FF2793585F4F3AF09E3F510578F06A
:10044E000C9429070C941D075F3FE4F3983ED4F3F8
:10045E00869577956795B795F7959F5FC9F7880F3E
:10046E00911D9695879597F90895E1E0660F771F90
:10047E00881FBB1F621773078407BA0720F0621B21
:0E048E00730B840BBA0BEE1F88F7E0950895F0
:10049C00CF93DF93CDB7DEB767970FB6F894DEBF77
:1004AC000FBECDBF60E875E280E00E9458000E944C
:1004BC00F9040E946F040E946C061C821B82FE01D0
:1004CC00359682E1DF011D928A95E9F70E942F078C
:1004DC00182F8F8BBE01695E7F4FCE0103960E9451
:1004EC007F061E3399F7BE016F5F7F4FCE010396D7
:1004FC000E9421038823B1F10E946C0680E690E0F3
:10050C000E94A30689810E94D20461E080E00E94CF
:10051C00DF068EE690E00E94A3068A8190E00E949E
:10052C009F0589818434B9F018F4813479F018C0AE
:10053C00833539F08735A1F48A8190E00E94D60585
:10054C0011C08A8190E00E94EC050CC08A8190E079
:10055C000E94180607C08A8190E00E94020602C021
:08056C000E942E061B82B2CF93
:1005740011C00E940E0738F00E94150720F039F4CC
:100584009F3F19F426F40C9440070EF4E095E7FB22
:100594000C942907E92F0E943F0558F3BA17620704
:1005A40073078407950720F079F4A6F50C941C07CB
:1005B4000EF4E0950B2EBA2FA02D0B01B90190017A
:1005C4000C01CA01A0011124FF27591B99F0593FBE
:1005D40050F4503E68F11A16F040A22F232F342F06
:1005E4004427585FF3CF469537952795A795F04054
:1005F4005395C9F77EF41F16BA0B620B730B840B69
:10060400BAF09150A1F0FF0FBB1F661F771F881F20
:10061400C2F70EC0BA0F621F731F841F48F4879578
:1006240077956795B795F7959E3F08F0B0CF93956A
:0E063400880F08F09927EE0F97958795089587
:10064200EF92FF920F931F93CF93DF930097D9F10D
:1006520061157105D1F18B01EC0140E050E068E2D7
:100662000E941D0599239CF1AC014F5F5F4F7E01F3
:10067200E40EF51E68E2CE010E941D0599234CF19D
:10068200F701F080BC016F5F7F4FCE010E94F4033F
:100692002F2D2B7F233531F0F1E4FF1619F024E4DE
:1006A200F21219C08E31910514F480E090E0F80145
:1006B200F0828F3F910519F014F08FEF90E0F8016E
:1006C200818381E009C080E007C080E005C080E04E
:1006D20003C080E001C080E0DF91CF911F910F91B4
:0606E200FF90EF90089567
:1006E800CF92DF92EF92FF920F931F93CF93DF93F6
:1006F8007C018B01992324F4882799278E199F0957
:10070800F801C0E0D0E00F2EFAE0CF2ED12CF02D6A
:1007180001C0E9019E012F5F3F4FB6010E944406C8
:10072800805D8193862F972F1816190694F3FF2062
:100738003CF4F801E20FF31F8DE280832F5F3F4FF7
:10074800F801E20FF31F1082C8010E948205DF91B1
:10075800CF911F910F91FF90EF90DF90CF90089568
:100768008130A1F028F08230F9F0833059F10895F2
:10077800442319F0413031F008958AB36095682315
:100788006ABB08958AB3682B6ABB0895442319F09D
:10079800413031F0089587B36095682367BB0895A9
:1007A80087B3682B67BB0895442319F0413031F0B3
:1007B800089584B36095682364BB089584B3682B57
:1007C80064BB0895442319F0413031F0089581B392
:1007D8006095682361BB089581B3682B61BB089558
:1007E800FC01DC01A60FB71F9C91992331F19053AE
:1007F8009A3048F1DB011196AE0FBF1F6F5F7F4F34
:100808009D919923E9F090539A30C0F71CC09C0140
:10081800220F331F880F991F880F991F880F991F60
:10082800280F391F842F90E0C097820F931F4191A2
:1008380020ED240F2A3058F3089580E090E00895C1
:1008480080E090E00895DF01A60FB71F4C916F5F1D
:0C0858007F4FE60FF71F80E090E0D9CF43
:10086400E89409C097FB3EF4909580957095619546
:100874007F4F8F4F9F4F9923A9F0F92F96E9BB27FC
:100884009395F695879577956795B795F111F8CF78
:10089400FAF4BB0F11F460FF1BC06F5F7F4F8F4FE3
:1008A4009F4F16C0882311F096E911C0772321F0D9
:1008B4009EE8872F762F05C0662371F096E8862F71
:1008C40070E060E02AF09A95660F771F881FDAF7C8
:0A08D400880F9695879597F908950F
:1008DE000E94230764E083E00E94E80682E00E9403
:1008EE00C00680E883BD41E063E082E00E94ED0037
:1008FE0041E064E082E00E94ED0041E065E082E0CC
:10090E000E94ED0041E066E082E00E94ED0040E0D2
:10091E0063E082E00E94660140E064E082E00E94B3
:10092E00660140E065E082E00E94660140E066E01C
:08093E0082E00E9466010895A9
:100946000E94470588F09F5798F0B92F9927B7510D
:10095600B0F0E1F0660F771F881F991F1AF0BA955D
:10096600C9F714C0B13091F00E941C07B1E0089598
:100976000C941C07672F782F8827B85F39F0B93F8A
:10098600CCF3869577956795B395D9F73EF4909510
:0E0996008095709561957F4F8F4F9F4F08950C
:1009A400CF93C82F8FE39CE90197F1F700C00000B3
:1009B400C19A8BB38F709C2F907F892B8BBB0E9425
:1009C400D6068BB3282F2F7030E1C39FC0011124AA
:1009D400822B8BBB0E94D6068FEF99EF20E08150CB
:0E09E40090402040E1F700C00000CF91089540
:1009F20041E060EF80E00E94B40341E06EE081E0FC
:100A02000E94B4032FEF89EF90E021508040904084
:100A1200E1F700C0000040E064E081E00E9466016E
:100A220082E00E94610588E20E9461058CE00E94DA
:080A320061050E946C060895A5
:100A3A00FC01DC01A40FB51F9C91992391F0691761
:100A4A0099F09A012F5F3F4FE20FF31F02C09617EA
:100A5A0071F04F5F5F4F91919111F9CF8FEF9FEF37
:100A6A0008958FEF9FEF0895842F952F0895842F6F
:040A7A00952F089517
:100A7E0057FD9058440F551F59F05F3F71F0479541
:100A8E00880F97FB991F61F09F3F79F08795089526
:100A9E00121613061406551FF2CF4695F1DF08C045
:100AAE00161617061806991FF1CF86957105610562
:040ABE0008940895FB
:100AC200CF93C82FC1988BB38F709C2F907F892BA7
:100AD2008BBB0E94D6068BB3282F2F7030E1C39FA9
:100AE200C0011124822B8BBB0E94D6068FEF99EF97
:100AF20020E0815090402040E1F700C00000CF91FB
:020B0200089554
:100B0400FC0101900020E9F73197E81BF90B9F01E4
:100B140021503109121613067CF4E80FF91FDC0189
:100B240080E090E04C9152915D9340830196215076
:0A0B3400310982179307B4F3089506
:100B3E00CF93DF93CDB7DEB72B970FB6F894DEBF0A
:100B4E000FBECDBFBE016F5F7F4F0E947403CE01FB
:100B5E0001960E94A3062B960FB6F894DEBF0FBE29
:080B6E00CDBFDF91CF91089586
:100B7600813049F028F0823051F0833081F00895B9
:100B86000E943407089585B5806485BD089584E67E
:100B960083BD85B5886085BD0E943807089585B5F3
:060BA600886485BD08957E
:100BAC0083BD41E063E082E00E94660140E064E0C6
:100BBC0082E00E94660141E065E082E00E946601ED
:0C0BCC0040E066E082E00E9466010895AF
:100BD80083BD40E063E082E00E94660141E064E09A
:100BE80082E00E94660140E065E082E00E946601C2
:0C0BF80041E066E082E00E946601089582
:100C040083BD41E063E082E00E94660140E064E06D
:100C140082E00E94660140E065E082E00E94660195
:0C0C240041E066E082E00E946601089555
:100C300083BD40E063E082E00E94660141E064E041
:100C400082E00E94660141E065E082E00E94660168
:0C0C500040E066E082E00E94660108952A
:100C5C0040E063E082E00E94660140E064E082E0F4
:100C6C000E94660140E065E082E00E94660140E07F
:0C0C7C0066E082E00E94660113BC08954F
:100C880097FB072E16F4009407D077FD09D00E9431
:100C9800580607FC05D03EF4909581959F4F08951E
:080CA800709561957F4F0895DE
:100CB000AA1BBB1B51E107C0AA1FBB1FA617B70782
:100CC00010F0A61BB70B881F991F5A95A9F780959E
:080CD0009095BC01CD010895CF
:100CD800C1988BB38F708BBB0E94D6068BB38F7075
:100CE80080618BBB0E94D6068FE19EE40197F1F7E5
:060CF80000C00000089599
:100CFE000F931F93CF93DF93EC018B010E94B206EB
:100D0E00B8018C0F9D1F0E94F106CE01DF91CF918D
:060D1E001F910F910895E2
:100D2400092E0394000C11F4882352F0BB0F40F4F5
:100D3400BF2B11F460FF04C06F5F7F4F8F4F9F4F35
:020D4400089510
:100D4600CF93DF93EC018881882331F021960E94AE
:0E0D5600D20489918111FBCFDF91CF910895D6
:100D6400FC01AF014F5F5F4F2081222311F0FA0194
:0C0D7400F8CF9F01281B390BC90108951E
:100D800095B59F7C95BD25B530E1839FC0011124A9
:060D9000822B85BD0895D1
:100D9600EC010E9448070E944707CE010E944907BE
:060DA600CE010E9445078A
:100DAC00C39A8FE19EE40197F1F700C00000C3984D
:020DBC00089598
:100DBE0020E4829FC00111246068862B0E94610589
:020DCE00089586
:100DD000CF93C62F0E94BB058C2F0E94F906CF919E
:020DE000089574
:100DE200FC01DB012D91BD0121932111FACF089560
:0E0DF20095B5987F95BD95B5892B85BD089563
:0E0E00005058BB27AA270E94BA020C949206F3
:0E0E0E000E94A3046894B1110C941D0708956E
:0E0E1C0000240A9416161706180609060895F3
:0E0E2A0000240A9412161306140605060895F5
:0E0E3800E894BB2766277727CB0197F908952A
:0C0E460041E067E083E00E94ED000895A9
:0C0E520097F99F6780E870E060E0089569
:0A0E5E0057985F9BFECF8CB10895FA
:080E680089B7806489BF089579
:080E700089B7806889BF08956D
:080E78000E94DF010C949206B8
:060E80009FEF80EC0895D5
:040E86000C940000C8
:040E8A000E9456006C
:020E8E000895C5
:020E90000895C3
:020E92000895C1
:100E940044617461207061727365643A2000537018
:060EA4006565643A2000C0
:00000001FF
