:100000000C9430000C9483070C9483070C948307A2
:100010000C9483070C9483070C9483070C947D073E
:100020000C9483070C9483070C9483070C94830728
:100030000C9483070C9483070C9483070C94830718
:100040000C9483070C9483070C9483070C94830708
:100050000C9483070060008A000F14008A00BE80A1
:1000600011241FBECFE5D8E0DEBFCDBFE4E5F0E050
:1000700040E017C0B591A59135912591059107FDF7
:100080000CC095918591EF01F92FE82F05900D9205
:10009000A217B307D9F7FE0104C01D92A217B30738
:1000A000E1F7E036F40731F70E9479010C94360746
:0400B000F894FFCFF2
:1000B400EF92FF920F931F93CF93DF938091BA0037
:1000C400811104C1C091B200D091B3007E018FEFC1
:1000D400E81AF80AF092B300E092B200E114F104D5
:1000E400B9F48091B6009091B7002091B40030919A
:1000F400B5003093B7002093B6009093B500809379
:10010400B4008091BB008F5F8093BB000E948E0679
:100114008091AE009091AF00E816F90610F480E0EB
:10012400B9C080E061E0E091B600F091B700908141
:10013400911107C02FEF3FEF3093AF002093AE0033
:10014400A9C0E091B600F091B7000580F681E02DDA
:100154000680F781E02D22813381E216F30628F42C
:100164003093AF002093AE0095C0A285B38524815F
:10017400358146815781E9015D834C83268137812E
:1001840044815581E9015B834A83AF014E5F5F4F30
:1001940011962D913C9112972417350731F426813D
:1001A400378112963C932E931197138612869C9155
:1001B40091509C93A489B589109719F126853785A8
:1001C40000891189E9011D830C8320893189068501
:1001D4001785E9011B830A8311960D911C911297CF
:1001E4009F01245F3F4F0217130731F4208931899F
:1001F40012963C932E931197158A148A9C919150D0
:100204009C9326899091BD00921710F42093BD0011
:1002140030E0D901AA0FBB1FAA0FBB1FAA0FBB1F37
:100224002A0F3B1FD901A657BF4F11960D90BC91C1
:10023400A02DB583A48314962D913C9115973783F3
:10024400268314962D913C911597E9015B834A838B
:1002540015965C934E931497A689B0E09D01220FE6
:10026400331F220F331F220F331FA20FB31FA657B2
:10027400BF4FB387A2879C919F5F9C93A091B800C6
:10028400B091B900268956969C91921708F04BCFED
:10029400862F49CFE091B800F091B900268930E06B
:1002A400F901EE0FFF1FEE0FFF1FEE0FFF1F2E0FC2
:1002B4003F1FF901E657FF4F9081923008F081E02B
:1002C4009091BC00992361F081E00AC08091B00054
:1002D4009091B10001969093B1008093B00080E0BA
:0E02E400DF91CF911F910F91FF90EF90089541
:1002F200CF93DF93CDB7DEB7E3970FB6F894DEBFA7
:100302000FBECDBF42E050E062E070E080E895E2CF
:100312000E945F020E94B90580E690E00E941907E0
:10032200CE0101967C01C82EDF2CA12CB12C882491
:100332008A94912C19820E9474078BAB8D32D9F763
:10034200F70101900020E9F73197EE19FF09F197C3
:1003520038F4BE016D5C7F4F8C2D9D2D0E94E50609
:100362000E9474078BAB8D3259F78981882309F477
:100372008BC0883281F0FE01329680E090E002C0AC
:10038200283229F0019621912111FACF7DC09923BB
:100392000CF47AC002C08A2D9B2D9C012F5F3F4F27
:1003A200D701A20FB31F4C91442309F46DC0483208
:1003B20069F00296F701E80FF91F02C0883231F0A6
:1003C2002F5F3F4F81918111F9CF5EC033230CF42F
:1003D2005BC0C9010196F701E80FF91F4081442370
:1003E20009F464C040534A3008F455C02E5F3F4FB1
:1003F200F701E20FF31F01962191222309F456C05F
:1004020020532A30C0F747C0A801440F551F000FE0
:10041200111F000F111F000F111FCA01800F911F22
:10042200022F10E09801205331098901080F191F8A
:10043200219180ED820F8A3038F37C90872D8B7F5B
:10044200833731F091E6791619F084E678121CC0F0
:100452000E3111052CF40A2D1B2D02C00A2D1B2D65
:100462008DE690E00E941907872D0E946D06C80153
:100472000F3F110519F014F0882D992D99270E942C
:100482000E030E94D20656CF0E94D2068BE790E05E
:100492000E9419074FCFF701E80FF91F2081FC01D5
:1004A2003196EE0DFF1D0A2D1B2DAECF7C90872DB0
:0C04B2008B7F833799F20A2D1B2DC4CFDD
:1004BE000F931F93CF93DF938B014130510509F4B6
:1004CE006AC024F4452B09F444C087C0423051055C
:1004DE0021F043305105F9F080C0BC01990F880B13
:1004EE00990B0E941F059B01AC0160E074E284E74A
:1004FE0099E40E94790720E030E040E85FE30E9433
:10050E0052070E948A05C62FD72F80B58F7B806831
:10051E0080BD599864C0BC01990F880B990B0E943D
:10052E001F059B01AC0160E074E284EF99E40E9428
:10053E00790720E030E040E85FE30E9452070E9416
:10054E008A05C62FD72F80B58F7B806880BD599ABC
:10055E0046C0BC01990F880B990B0E941F059B0189
:10056E00AC0160E074E284EF9AE40E94790720E027
:10057E0030E040E85FE30E9452070E948A05C62FD2
:10058E00D72F80B5806C80BD61E070E080E090E098
:10059E000E94E60524C0BC01990F880B990B0E949E
:1005AE001F059B01AC0160E074E284EF9AE40E94A7
:1005BE00790720E030E040E85FE30E9452070E9496
:1005CE008A05C62FD72F80B5806C80BD60E070E0A5
:1005DE0080E090E00E94E60502C0C0E0D0E0D0BD11
:1005EE00C9B98EE880BD0130110539F00230110510
:1005FE0031F0012B39F4549A05C0539A03C08AB1D5
:0E060E0088618AB9DF91CF911F910F910895F5
:10061C00AF92BF92CF92DF92EF92FF920F931F9304
:10062C00CF93DF93CDB7DEB72B970FB6F894DEBF21
:10063C000FBECDBF6C01992324F4882799278C1900
:10064C009D09FE0131968F01E12CF12C0F2EFAE061
:10065C00AF2EB12CF02D01C0790197012F5F3F4FC8
:10066C00B5010E94BE06805DD8018D938D01862F49
:10067C00972F1816190684F3DD2044F4DE01A20F1F
:10068C00B31F8DE211968C932F5F3F4FCE010196D5
:10069C00DC01A20FB31F1C92DC010D900020E9F7C6
:1006AC001197A81BB90BCD0101971816190694F4D4
:1006BC0021E030E02C0F3D1FA20FB31F20E030E0F3
:1006CC0040815E9151934C932F5F3F4F01972817B8
:1006DC003907B4F3CE0101960E9419072B960FB679
:1006EC00F894DEBF0FBECDBFDF91CF911F910F915C
:0E06FC00FF90EF90DF90CF90BF90AF900895E9
:10070A0010C00E94600758F00E94590740F029F46F
:10071A005F3F29F00C946E0751110C9468070C94F2
:10072A0080070E942A0668F39923B1F3552391F3AF
:10073A00951B550BBB27AA2762177307840738F046
:10074A009F5F5F4F220F331F441FAA1FA9F335D0A3
:10075A000E2E3AF0E0E832D091505040E695001C57
:10076A00CAF72BD0FE2F29D0660F771F881FBB1F11
:10077A00261737074807AB07B0E809F0BB0B802DEF
:10078A00BF01FF2793585F4F3AF09E3F510578F01B
:10079A000C946E070C9468075F3FE4F3983ED4F319
:1007AA00869577956795B795F7959F5FC9F7880FEF
:1007BA00911D9695879597F90895E1E0660F771F41
:1007CA00881FBB1F621773078407BA0720F0621BD2
:0E07DA00730B840BBA0BEE1F88F7E0950895A1
:1007E80011C00E94590738F00E94600720F039F4C0
:1007F8009F3F19F426F40C9480070EF4E095E7FB6C
:100808000C946E07E92F0E942A0658F3BA1762075C
:1008180073078407950720F079F4A6F50C94670709
:100828000EF4E0950B2EBA2FA02D0B01B901900103
:100838000C01CA01A0011124FF27591B99F0593F47
:1008480050F4503E68F11A16F040A22F232F342F8F
:100858004427585FF3CF469537952795A795F040DD
:100868005395C9F77EF41F16BA0B620B730B840BF2
:10087800BAF09150A1F0FF0FBB1F661F771F881FAA
:10088800C2F70EC0BA0F621F731F841F48F4879502
:1008980077956795B795F7959E3F08F0B0CF9395F4
:0E08A800880F08F09927EE0F97958795089511
:1008B6008091BA00882321F081E08093BC000895DE
:1008C6001092BC002091BD00822F90E0FC01EE0F3B
:1008D600FF1FEE0FFF1FEE0FFF1FE80FF91FE65772
:1008E600FF4F3081311111C02150822F90E0FC0161
:1008F600EE0FFF1FEE0FFF1FEE0FFF1FE80FF91F92
:10090600E657FF4F3081332379F3AC01440F551F6F
:10091600440F551F440F551F480F591FDA01A6579C
:10092600BF4F1196ED91FC9112970280F381E02D55
:100936001296FC93EE93119743575F4FE417F50712
:1009460029F442815381FD0152834183FC01EE0F5C
:10095600FF1FEE0FFF1FEE0FFF1F8E0F9F1FFC01E5
:10096600E657FF4F0180F281E02D868197819093B3
:0C097600B9008093B8002093BD000895E4
:100982000F920FB6F8940F921F9211242F923F925A
:100992004F925F926F927F928F929F92AF92BF928D
:1009A200CF92DF92EF92FF920F931F932F933F9379
:1009B2004F935F936F937F938F939F93AF93BF9365
:1009C200CF93DF93EF93FF93A091B800B091B9005A
:1009D2000DB60D920EB60D920E945A0081110E9420
:1009E2005B04A091B800B091B900CD91CDBFDD916B
:1009F200DEBFFF91EF91DF91CF91BF91AF919F91B8
:100A02008F917F916F915F914F913F912F911F91A4
:100A12000F91FF90EF90DF90CF90BF90AF909F909B
:100A22008F907F906F905F904F903F902F901F908C
:080A32000F900FBE0F90089514
:100A3A00E89409C097FB3EF490958095709561956E
:100A4A007F4F8F4F9F4F9923A9F0F92F96E9BB2724
:100A5A009395F695879577956795B795F111F8CFA0
:100A6A00FAF4BB0F11F460FF1BC06F5F7F4F8F4F0B
:100A7A009F4F16C0882311F096E911C0772321F001
:100A8A009EE8872F762F05C0662371F096E8862F99
:100A9A0070E060E02AF09A95660F771F881FDAF7F0
:0A0AAA00880F9695879597F9089537
:100AB4006130710599F062307105E9F0672B39F501
:100AC40042B321E030E0B90102C0660F771F8A9576
:100AD400E2F7CB018095842382BB089542B321E0E1
:100AE40030E0B90102C0660F771F8A95E2F7CB01A7
:100AF400842B82BB089542B321E030E0B90102C0E7
:100B0400660F771F8A95E2F7CB01842782BB08958D
:100B14000E94320688F09F5798F0B92F9927B75151
:100B2400B0F0E1F0660F771F881F991F1AF0BA958D
:100B3400C9F714C0B13091F00E946707B1E008957D
:100B44000C946707672F782F8827B85F39F0B93F6F
:100B5400CCF3869577956795B395D9F73EF4909540
:0E0B64008095709561957F4F8F4F9F4F08953C
:100B720061E070E080EF90E00E94090761E070E0C0
:100B820080E090E00E94080661E070E081E090E081
:100B92000E94080661E070E082E090E00E94080690
:100BA20060E070E081E090E00E945A0582E00E94DD
:100BB2004C0688E20E944C068CE00E944C060E9481
:0A0BC200D20686E00E944C0608955A
:100BCC006115710521F06130710579F0089547B315
:100BDC0021E030E0B90102C0660F771F8A95E2F779
:100BEC00CB018095842387BB089547B321E030E087
:100BFC00B90102C0660F771F8A95E2F7CB01842BEF
:040C0C0087BB089505
:100C10006115710521F06130710579F0089541B3D6
:100C200021E030E0B90102C0660F771F8A95E2F734
:100C3000CB018095842381BB089541B321E030E04E
:100C4000B90102C0660F771F8A95E2F7CB01842BAA
:040C500081BB0895C7
:100C540057FD9058440F551F59F05F3F71F0479569
:100C6400880F97FB991F61F09F3F79F0879508954E
:100C7400121613061406551FF2CF4695F1DF08C06D
:100C8400161617061806991FF1CF8695710561058A
:040C94000894089523
:100C9800CF93C82F909885B38F709C2F907F892B06
:100CA80085BB0E94410785B3282F2F7030E1C39F71
:100CB800C0011124822B85BB0E9441078FEF99EF59
:100CC80020E0815090402040E1F700C00000CF9123
:020CD80008957D
:100CDA00CF93C82F909A85B38F709C2F907F892BC2
:100CEA0085BB0E94410785B3282F2F7030E1C39F2F
:100CFA00C0011124822B85BB0E9441078FEF99EF17
:100D0A0020E0815090402040E1F700C00000CF91E0
:020D1A0008953A
:100D1C00E091B600F091B7008081811107C08FEF90
:100D2C009FEF9093AF008093AE000895E091B600D2
:100D3C00F091B7000580F681E02D80819181909330
:080D4C00AF008093AE00089592
:100D5400AA1BBB1B51E107C0AA1FBB1FA617B707DD
:100D640010F0A61BB70B881F991F5A95A9F78095F9
:080D74009095BC01CD0108952A
:100D7C0097FB072E16F4009407D077FD09D00E943C
:100D8C00AA0607FC05D03EF4909581959F4F0895D7
:080D9C00709561957F4F0895E9
:100DA400909885B38F7085BB0E94410785B38F707F
:100DB400806185BB0E9441078FE19EE40197F1F7B2
:060DC40000C000000895CC
:100DCA000F931F93CF93DF93EC018B010E942807A7
:100DDA00B8018C0F9D1F0E944A07CE01DF91CF9167
:060DEA001F910F91089516
:100DF000092E0394000C11F4882352F0BB0F40F429
:100E0000BF2B11F460FF04C06F5F7F4F8F4F9F4F68
:020E1000089543
:100E12006115710521F06130710531F0089594B3C7
:100E22008095892384BB089594B3892B84BB08954C
:100E3200CF93DF93EC018881882331F021960E94C1
:0E0E42006D0689918111FBCFDF91CF9108954C
:100E5000FC01AF014F5F5F4F2081222311F0FA01A7
:0C0E6000F8CF9F01281B390BC901089531
:100E6C00EC010E9488070E948707CE010E94890727
:060E7C00CE010E94850773
:100E8200929A8FE19EE40197F1F700C000009298D8
:020E92000895C1
:100E9400FC01DB012D91BD0121932111FACF0895AD
:0E0EA4005058BB27AA270E94F4030C94F806AE
:0E0EB20000240A94161617061806090608955D
:0E0EC00000240A94121613061406050608955F
:0E0ECE00E894BB2766277727CB0197F9089594
:0C0EDC0097F99F6780E870E060E00895DF
:0A0EE80057985F9BFECF8CB1089570
:080EF2000E9485030C94F80630
:060EFA000E94C1041895DE
:060F00009FEF80EC089554
:040F06000C94000047
:040F0A000E945800E9
:020F0E00089544
:020F1000089542
:020F1200089540
:100F1400414C4920776173206865726500446174AF
:100F240061207061727365643A2000506172736568
:0A0F3400206661696C65640D0A0017
:00000001FF
