:100000000C943F000C94F9130C94F9130C94F9130D
:100010000C94F9130C94F9130C94F9130C94F31336
:100020000C94F9130C94F9130C94F9130C94F91320
:100030000C94F9130C94F9130C94F9130C94F91310
:100040000C94F9130C94F9130C94F9130C94F91300
:100050000C94F9130060046080046004C30028005D
:1000600004C3051480051405190028630519053813
:1000700080053805390028680539054080001124BD
:100080001FBECFE5D8E0DEBFCDBFE4E5F0E040E045
:1000900017C0B591A59135912591059107FD0CC02B
:1000A00095918591EF01F92FE82F05900D92A217F8
:1000B000B307D9F7FE0104C01D92A217B307E1F7F9
:1000C000ED37F40731F70E94ED0D0C944813F894C6
:0200D000FFCF60
:1000D2004F925F926F927F928F929F92AF92BF9256
:1000E200CF92DF92EF92FF920F93CF93DF934C0167
:1000F2006B015A012901CA010E945F053C01892B4B
:1001020009F40FC18AE290E00E945F05EC01892B9D
:10011200C1F08AE2DE011D928A95E9F7788E6F8A34
:10012200A50165EA70E0C3010E947913B1E0AB1A40
:10013200B1088F89988DA80EB91EC114D10429F473
:100142001EC0C3010E940D0FECC0F6018081898F91
:100152008081882399F0AE01465E5F4F319688E038
:10016200C80ED11CCF012191DA012D93AD01DC0122
:100172008C91882319F0EC15FD05A1F718A2043023
:1001820008F003E00E8B0BA36E01B2E0CB0ED11C84
:10019200C6010E94D313CE010C960E94D313D987B5
:1001A200C88784E090E0801B91099D878C87DB8B58
:1001B200CA8BA201B401C5010E9462099983888396
:1001C200E114F10419F0F701D183C0830FB6F8945A
:1001D2000F9280913E058F5F80933E058091350599
:1001E20090913605892BD1F5D0933605C09335050C
:1001F20080913E05813009F041C083EC94E00E9479
:1002020000138CEC94E00E94001385ED94E00E94B0
:1002120000138EED94E00E9400138BE095E00E94A3
:10022200001382E095E00E94001389EF94E00E949F
:10023200001380EF94E00E94001387EE94E00E9486
:1002420000138BE095E0909334058093330582E0B0
:1002520095E0909332058093310510C080913C0562
:1002620081110CC0E0913505F091360596898E8991
:10027200891720F0D0933605C09335058091390552
:100282008F5F8093390589A38E8990913D059817D8
:1002920010F480933D0590E0FC01EE0FFF1FEE0F7E
:1002A200FF1FEE0FFF1F8E0F9F1FFC01ED53FB4F31
:1002B2000180F281E02DFD83EC83848195819F830F
:1002C2008E83A481B5811396DC92CE921297D58249
:1002D200C482EE89F0E0CF01880F991F880F991F21
:1002E200880F991FE80FF91FED53FB4FFB87EA8731
:1002F20080818F5F80830F900FBE80913C058823A1
:1003020061F0E0913505F091360596898E8998174E
:1003120030F40E941C0C81E005C081E003C081E042
:1003220001C08FEFDF91CF910F91FF90EF90DF909F
:10033200CF90BF90AF909F908F907F906F905F9083
:040342004F9008953B
:10034600EF92FF920F931F93CF93DF938091370520
:10035600811104C1C0912F05D09130057E018FEF28
:10036600E81AF80AF0923005E0922F05E114F1043C
:10037600B9F480913305909134052091310530917F
:1003860032053093340520933305909332058093DC
:10039600310580913A058F5F80933A050E94C0111E
:1003A60080912B0590912C05E816F90610F480E053
:1003B600B9C080E061E0E0913305F09134059081A9
:1003C600911107C02FEF3FEF30932C0520932B059B
:1003D600A9C0E0913305F09134050580F681E02D42
:1003E6000680F781E02D22813381E216F30628F498
:1003F60030932C0520932B0595C0A285B3852481C7
:10040600358146815781E9015D834C832681378199
:1004160044815581E9015B834A83AF014E5F5F4F9B
:1004260011962D913C9112972417350731F42681A8
:10043600378112963C932E931197138612869C91C0
:1004460091509C93A489B589109719F12685378513
:1004560000891189E9011D830C832089318906856C
:100466001785E9011B830A8311960D911C9112973A
:100476009F01245F3F4F0217130731F4208931890A
:1004860012963C932E931197158A148A9C9191503B
:100496009C93268990913D05921710F420933D0573
:1004A60030E0D901AA0FBB1FAA0FBB1FAA0FBB1FA3
:1004B6002A0F3B1FD901AD53BB4F11960D90BC912E
:1004C600A02DB583A48314962D913C91159737835F
:1004D600268314962D913C911597E9015B834A83F7
:1004E60015965C934E931497A689B0E09D01220F52
:1004F600331F220F331F220F331FA20FB31FAD531B
:10050600BB4FB387A2879C919F5F9C93A0913505B3
:10051600B0913605268956969C91921708F04BCFD6
:10052600862F49CFE0913505F0913605268930E0D2
:10053600F901EE0FFF1FEE0FFF1FEE0FFF1F2E0F2D
:100546003F1FF901ED53FB4F9081923008F081E097
:1005560090913B05992361F081E00AC080912D05B9
:1005660090912E05019690932E0580932D0580E09F
:0E057600DF91CF911F910F91FF90EF900895AC
:10058400CF93DF93CDB7DEB7E5970FB6F894DEBF10
:100594000FBECDBF82E290E00E945C1280E694E040
:1005A4000E9447128E010D5F1F4FE02EF12EC12CC9
:1005B400D12CAA24AA94B12C1B820E94CE138DABF9
:1005C4008D32D9F70E94CE138DAB8D32A9F0F8018C
:1005D40001900020E9F73197E01BF10BF19738F413
:1005E400BE016B5C7F4F8E2D9F2D0E94AB120E942B
:1005F400CE138DAB8D3259F78B81882309F4A2C0B9
:10060400883281F0FE01349680E090E002C0283206
:1006140029F0019621912111FACF94C099230CF469
:1006240091C002C08C2D9D2D9C012F5F3F4FD8019E
:10063400A20FB31F4C91442309F484C0483269F0DB
:100644000296F801E80FF91F02C0883231F02F5FDB
:100654003F4F81918111F9CF75C033230CF472C0DF
:10066400C9010196F801E80FF91F4081442309F4F8
:100674007FC040534A3008F470C02E5F3F4FF801EA
:10068400E20FF31F01962191222309F471C0205334
:100694002A30C0F762C0AC01440F551F880F991F60
:1006A400880F991F880F991F840F951F232F30E0FF
:1006B40020533109820F931F319120ED230F2A30EB
:1006C40050F32C91322F3B7F333721F0213611F038
:1006D4002436C1F58E3191052CF48C2D9D2D02C04C
:1006E4008C2D9D2D29838F3F910511F00CF08A2DBF
:1006F4008A8383E794E00E94F11289810E94271182
:100704008A8190E00E947C080E94981220E042E2D4
:1007140050E0BE016F5F7F4F80911D0590911E05D3
:100724000E94C106813039F40E94981281E894E055
:100734000E94F1120DC00E94981286E994E00E9472
:10074400F11206C00E9498128AEA94E00E94F11203
:1007540084E190E00E945C122FCFF801E80FF91FAA
:100764003081FC013196E00FF11F8C2D9D2D93CF2C
:100774002C91822F8B7F833709F4B2CF8C2D9D2D42
:02078400A5CFFF
:100786001F93CF93DF930FB6F8940F92809137059E
:10079600815080933705809137058111C6C08091BD
:1007A6003E0581119BC0C4C0DB011596ED91FC91FD
:1007B60016970680F781E02DA489B58986859785E9
:1007C60020893189EC013D832C8380899189268596
:1007D6003785EC013B832A83CF010C9611962D9128
:1007E6003C9112972817390731F48089918912961E
:1007F6009C938E931197158A148A8C9181508C93B1
:10080600A285B3858481958126813781EC013D835C
:100816002C838681978124813581EC013B832A8351
:100826009F012E5F3F4F11968D919C9112978217D3
:10083600930731F48681978112969C938E93119734
:10084600138612868C9181508C93868990913D05F2
:10085600981710F480933D0590E0DC01AA0FBB1FAA
:10086600AA0FBB1FAA0FBB1F8A0F9B1FDC01AD532C
:10087600BB4F11960D90BC91A02DB583A483149601
:100886008D919C9115979783868314968D919C9153
:100896001597EC013B832A8315963C932E93149768
:1008A600A689B0E0CD01880F991F880F991F880F80
:1008B600991FA80FB91FAD53BB4FB387A2878C9161
:1008C6008F5F8C93A0913505B09136059689569623
:1008D6008C91981740F040933B0505C0E0E0F0E0AE
:1008E60069EF74E041E0DB018C9181115DCFEF2B64
:1008F60011F00E94C011C0912D05D0912E052097B0
:1009060061F011E00E94A301811110933B0521972C
:10091600C9F710922E0510922D0580913B0588236C
:1009260031F00E941C0C81E003C080E001C080E031
:0C0936000F900FBEDF91CF911F9108952C
:10094200CF93DF93DC011596ED91FC91169706800B
:10095200F781E02DA489B589C685D78580899189DB
:100962009D838C83C089D189868597859B838A8361
:100972009F01245F3F4F11968D919C911297821790
:10098200930731F48089918912969C938E931197E3
:10099200158A148A8C9181508C938091370581112C
:1009A20060C0A285B385C481D581868197819D83EC
:1009B2008C83C681D781848195819B838A839F01A1
:1009C2002E5F3F4F11968D919C911297821793073C
:1009D20031F48681978112969C938E931197138698
:1009E20012868C9181508C93868990913D0598173F
:1009F20010F480933D0590E0DC01AA0FBB1FAA0F03
:100A0200BB1FAA0FBB1F8A0F9B1FDC01AD53BB4F3D
:100A120011960D90BC91A02DB583A48314968D914F
:100A22009C911597978386831496CD91DC911597A7
:100A32003B832A8315963C932E931497A689B0E0A4
:100A4200CD01880F991F880F991F880F991FA80F32
:100A5200B91FAD53BB4FB387A2878C918F5F8C9325
:100A62001CC049EF54E0DA011196CD91DC91129746
:100A7200D787C6878C819D81918B808B8C819D814C
:100A8200DC0113963C932E9312973D832C83558B56
:100A9200448BDA018C918F5F8C93A0913505B091D4
:100AA2003605968956968C91891720F481E08093B9
:0C0AB2003B0501C080E0DF91CF9108956A
:100ABE00EF92FF920F931F93CF93DF93EC010E945F
:100ACE00C2138091270590912805892B11F5E9E134
:100ADE00F5E0A0E6B0E0B183A08313821282ECE5CC
:100AEE00F4E0F0932805E093270513821282118219
:100AFE0010828CEF93E013969C938E931297ED9346
:100B0E00FC93909324058093230590932605809360
:100B1E002505CE0101978A3F9F4F08F067C09E01C1
:100B2E002B5F3F4FCB5FDF47C130D04808F461C029
:100B3E0000912505109126050217130708F45CC0D5
:100B4E00C0911905D0911A05E9E1F5E002C0FE0148
:100B5E00EC018A819B818217930720F48881998109
:100B6E000097A9F78091270590912805C817D907F6
:100B7E0009F445C0E080F18084E0E80EF11C888124
:100B8E009981918380834A815B81421B530B49304B
:100B9E00510550F0CE01820F931FFC015383428307
:100BAE003B832A830E94C80C8A819B81081B190BE8
:100BBE0010932605009325052091230530912405D9
:100BCE000217130720F41093240500932305906851
:100BDE009B838A8319821882809121059091220528
:100BEE00019690932205809321050BC0E12CF12CE8
:100BFE0008C0E12CF12C05C0E12CF12C02C0E12C37
:100C0E00F12C0E94C303C701DF91CF911F910F9169
:060C1E00FF90EF90089525
:100C24000F931F93CF93DF938B014130510509F448
:100C34006AC024F4452B09F444C087C042305105EE
:100C440021F043305105F9F080C0BC01990F880BA5
:100C5400990B0E942C0E9B01AC0160E074E284E7C6
:100C640099E40E94EF1320E030E040E85FE30E9443
:100C7400A6130E94CF0FC62FD72F80B58F7B806815
:100C840080BD599864C0BC01990F880B990B0E94D0
:100C94002C0E9B01AC0160E074E284EF99E40E94A5
:100CA400EF1320E030E040E85FE30E94A6130E94C7
:100CB400CF0FC62FD72F80B58F7B806880BD599A00
:100CC40046C0BC01990F880B990B0E942C0E9B0106
:100CD400AC0160E074E284EF9AE40E94EF1320E038
:100CE40030E040E85FE30E94A6130E94CF0FC62FB6
:100CF400D72F80B5806C80BD61E070E080E090E02B
:100D04000E947E1024C0BC01990F880B990B0E948D
:100D14002C0E9B01AC0160E074E284EF9AE40E9423
:100D2400EF1320E030E040E85FE30E94A6130E9446
:100D3400CF0FC62FD72F80B5806C80BD60E070E0E8
:100D440080E090E00E947E1002C0C0E0D0E0D0BD00
:100D5400C9B98EE880BD0130110539F002301105A2
:100D640031F0012B39F4549A05C0539A03C08AB167
:0E0D740088618AB9DF91CF911F910F91089588
:100D82009F92AF92BF92CF92DF92EF92FF920F9318
:100D92001F93CF93DF9300D000D00F92CDB7DEB771
:100DA2008C016B015D834C83A22EB12C9924939408
:100DB2007C0188E0E80EF11C0FB6F8940F92F8015E
:100DC200928D838D981718F0F2E0AF1219C04A2D58
:100DD200B601C8010E94610BF8019189992349F07B
:100DE200C80141960E94A104882331F00E941C0C84
:100DF20003C081110E941C0C0F900FBE81E050C0F5
:100E02008C819D81892B21F40F900FBE80E048C018
:100E1200B11005C0CE0101960E942713B92C0F9084
:100E22000FBE0E94C2130FB6F8940F92F801858D7F
:100E32008F3F09F4158EF801868D8F3F09F4168EC7
:100E42000F900FBEBE016C5F7F4FCE0101960E94D4
:100E5200670E81111FC00FB6F8940F92F801928DA0
:100E62000F900FBE838D98130FC06C817D81C701D7
:100E72000E94BE12C8010E94150D0E94C303811177
:100E82009BCF0E941C0C98CFC8010E94150D0E9496
:100E9200C30392CFC8010E94150D0E94C30380E0D4
:100EA2000F900F900F900F900F90DF91CF911F91A5
:100EB2000F91FF90EF90DF90CF90BF90AF909F90F7
:020EC200089591
:100EC4009F92AF92BF92CF92DF92EF92FF920F93D5
:100ED4001F93CF93DF9300D000D00F92CDB7DEB72E
:100EE4008C015B015D834C83E12C992493946C0108
:100EF40081E1C80ED11C0FB6F8940F92F801F28C60
:100F0400FF20A9F0B501C8010E942D12FA94F8013E
:100F1400F28E8085882339F0C80108960E94A104C6
:100F240081110E941C0C0F900FBE81E051C08C8176
:100F34009D81892B21F40F900FBE80E049C0E11000
:100F440005C0CE0101960E942713E92C0F900FBE15
:100F54000E94C2130FB6F8940F92F801858D8F3F4B
:100F640009F4158EF801868D8F3F09F4168E0F90C3
:100F74000FBEBE016C5F7F4FCE0101960E94670ECB
:100F840081111AC0C8010E941C13882379F06C8156
:100F94007D81C6010E94BE12C8010E94150D0E94E7
:100FA400C3038111A8CF0E941C0CA5CFC8010E94C5
:100FB400150D0E94C3039FCFC8010E94150D0E9406
:100FC400C303C8010E941C13882309F494CF80E052
:100FD4000F900F900F900F900F90DF91CF911F9172
:100FE4000F91FF90EF90DF90CF90BF90AF909F90C4
:020FF40008955E
:100FF600FF920F931F93CF93DF93EC01F62E009190
:101006002F05109130058091350590913605029691
:101016000E945710CF3F8FEFD807B1F5FF20A1F1FF
:10102600E7EEF4E0A181B281C0913505D091360595
:10103600BD83AC83C0913505D091360514968D914C
:101046009C9115979F838E831496CD91DC9115976D
:10105600809135059091360502969B838A8380910F
:10106600350590913605029615969C938E931497A6
:10107600A0913505B09136051B96FC93EE931A9711
:1010860080818F5F80832FC0C00FD11FE09135050F
:10109600F0913605D383C283C017D10768F46091F7
:1010A60035057091360580913105909132056E5F58
:1010B6007F4F0E943E0F17C060913505709136052F
:1010C60080913305909134056E5F7F4F0E943E0FED
:1010D60080912B0590912C05C817D90720F4D09341
:1010E6002C05C0932B05DF91CF911F910F91FF9097
:0210F60008955B
:1010F800AF92BF92CF92DF92EF92FF920F931F931E
:10110800CF93DF93CDB7DEB72B970FB6F894DEBF3A
:101118000FBECDBF6C01992324F4882799278C1919
:101128009D09FE0131968F01E12CF12C0F2EFAE07A
:10113800AF2EB12CF02D01C0790197012F5F3F4FE1
:10114800B5010E948412805DD8018D938D01862F90
:10115800972F1816190684F3DD2044F4DE01A20F38
:10116800B31F8DE211968C932F5F3F4FCE010196EE
:10117800DC01A20FB31F1C92DC010D900020E9F7DF
:101188001197A81BB90BCD0101971816190694F4ED
:1011980021E030E02C0F3D1FA20FB31F20E030E00C
:1011A80040815E9151934C932F5F3F4F01972817D1
:1011B8003907B4F3CE0101960E94F1122B960FB6AF
:1011C800F894DEBF0FBECDBFDF91CF911F910F9175
:0E11D800FF90EF90DF90CF90BF90AF90089502
:1011E60010C00E94B41358F00E94AD1340F029F4C9
:1011F6005F3F29F00C94C81351110C94BC130C9446
:10120600F6130E94E41068F39923B1F3552391F382
:10121600951B550BBB27AA2762177307840738F05F
:101226009F5F5F4F220F331F441FAA1FA9F335D0BC
:101236000E2E3AF0E0E832D091505040E695001C70
:10124600CAF72BD0FE2F29D0660F771F881FBB1F2A
:10125600261737074807AB07B0E809F0BB0B802D08
:10126600BF01FF2793585F4F3AF09E3F510578F034
:101276000C94C8130C94BC135F3FE4F3983ED4F36C
:10128600869577956795B795F7959F5FC9F7880F08
:10129600911D9695879597F90895E1E0660F771F5A
:1012A600881FBB1F621773078407BA0720F0621BEB
:0E12B600730B840BBA0BEE1F88F7E0950895BA
:1012C40031E1FC013083319722E220833197A3E39B
:1012D400A08331976083319770833197108231975F
:1012E40060E8608331971082319762E060833197C0
:1012F40063E06083319764E06083319765E06083E5
:10130400319766E06083319767E06083319768E0E6
:101314006083319769E06083319760E1608331973E
:101324003083319732E13083319733E13083319721
:1013340034E13083319735E13083319736E13083BE
:10134400319737E13083319738E13083319739E190
:101354003083319730E23083319731E230833197F3
:101364002083319723E22083319740833197508340
:10137400319726E22083319727E22083319728E2B0
:101384002083319729E22083319720E3208331970A
:0813940021E3208386970895F0
:10139C0011C00E94AD1338F00E94B41320F039F440
:1013AC009F3F19F426F40C94F6130EF4E095E7FB2A
:1013BC000C94C813E92F0E94E41058F3BA17620773
:1013CC0073078407950720F079F4A6F50C94BB13EA
:1013DC000EF4E0950B2EBA2FA02D0B01B901900144
:1013EC000C01CA01A0011124FF27591B99F0593F88
:1013FC0050F4503E68F11A16F040A22F232F342FD0
:10140C004427585FF3CF469537952795A795F0401D
:10141C005395C9F77EF41F16BA0B620B730B840B32
:10142C00BAF09150A1F0FF0FBB1F661F771F881FEA
:10143C00C2F70EC0BA0F621F731F841F48F4879542
:10144C0077956795B795F7959E3F08F0B0CF939534
:0E145C00880F08F09927EE0F97958795089551
:10146A0080913705882321F081E080933B05089518
:10147A0010923B0520913D05822F90E0FC01EE0F72
:10148A00FF1FEE0FFF1FEE0FFF1FE80FF91FED53AF
:10149A00FB4F3081311111C02150822F90E0FC01A5
:1014AA00EE0FFF1FEE0FFF1FEE0FFF1FE80FF91FD2
:1014BA00ED53FB4F3081332379F3AC01440F551FB1
:1014CA00440F551F440F551F480F591FDA01AD53DA
:1014DA00BB4F1196ED91FC9112970280F381E02D9A
:1014EA001296FC93EE9311974A535B4FE417F50754
:1014FA0029F442815381FD0152834183FC01EE0F9D
:10150A00FF1FEE0FFF1FEE0FFF1F8E0F9F1FFC0125
:10151A00ED53FB4F0180F281E02D868197819093F4
:0C152A0036058093350520933D0508959B
:10153600EF92FF920F931F93CF93DF93FC01362F09
:10154600892B09F44CC0238D222309F44AC0022FAB
:1015560010E0448DE42EF12C8FEF9FEFB8010E942E
:1015660070126E157F0508F43EC0EF010FB6F894B1
:101576000F9260817181CB01249F800D911D1124F2
:1015860095838483128E73836283015011090E9DA5
:10159600C0010F9D900D1E9D900D1124860F971F63
:1015A600978386838FEF858F868F31110CC0808558
:1015B600882389F0CF0108960E94A104882359F058
:1015C6000E941C0C08C0CF0108960E940013CE0191
:1015D60041960E9400130F900FBE81E005C080E087
:1015E60003C080E001C080E0DF91CF911F910F9191
:0615F600FF90EF90089544
:1015FC000F931F93CF93DF93FC01892B09F451C0F8
:10160C0084A1815084A3268993A1291709F44BC086
:10161C0081114BC0EF018F010E5F1F4FC8010E945B
:10162C0057108BA18E8B24E030E0281B31093D87AD
:10163C002C8790913D05981710F480933D0590E010
:10164C00FC01EE0FFF1FEE0FFF1FEE0FFF1F8E0FA3
:10165C009F1FFC01ED53FB4F0180F281E02DFD83B8
:10166C00EC83848195819F838E83A481B5811396AD
:10167C001C930E93129715830483EE89F0E0CF012F
:10168C00880F991F880F991F880F991FE80FF91F52
:10169C00ED53FB4FFB87EA8780818F5F808381E06E
:1016AC0005C080E003C080E001C080E0DF91CF91F5
:0616BC001F910F9108953B
:1016C2000F931F93CF93DF93EC01042F1A8D4C8D50
:1016D20041110CC088819981892B09F042C08C810B
:1016E2009D810E94FE0A1D821C8242C0011117C008
:1016F20050E08A819B810E9453132C8D8A819B81A9
:10170200820F911D9B838A832C813D8182179307CF
:1017120050F1888199819B838A8380E029C050E0BF
:101722008E819F810E9453138C8D90E091958195BB
:1017320091092E813F81280F391F3F832E834881D3
:1017420059812417350730F42C813D81820F931F74
:101752009F838E83023049F4112349F0115080E0B7
:1017620007C080E005C080E003C080E001C080E0E7
:0E1772001F5F1A8FDF91CF911F910F91089585
:101780000F920FB6F8940F921F9211242F923F924E
:101790004F925F926F927F928F929F92AF92BF9281
:1017A000CF92DF92EF92FF920F931F932F933F936D
:1017B0004F935F936F937F938F939F93AF93BF9359
:1017C000CF93DF93EF93FF93A0913505B09136054A
:1017D0000DB60D920EB60D920E94A30181110E94CA
:1017E000350AA0913505B0913605CD91CDBFDD917B
:1017F000DEBFFF91EF91DF91CF91BF91AF919F91AC
:101800008F917F916F915F914F913F912F911F9198
:101810000F91FF90EF90DF90CF90BF90AF909F908F
:101820008F907F906F905F904F903F902F901F9080
:081830000F900FBE0F90089508
:101838000F920FB6F8940F921F9211242F923F9295
:101848004F925F926F927F928F929F92AF92BF92C8
:10185800CF92DF92EF92FF920F931F932F933F93B4
:101868004F935F936F937F938F939F93AF93BF93A0
:10187800CF93DF93EF93FF93A0913505B091360591
:101888000DB60D920EB60D920E94350AA09135053F
:10189800B0913605CD91CDBFDD91DEBFFF91EF91BF
:1018A800DF91CF91BF91AF919F918F917F916F9170
:1018B8005F914F913F912F911F910F91FF90EF9062
:1018C800DF90CF90BF90AF909F908F907F906F9058
:1018D8005F904F903F902F901F900F900FBE0F90EA
:0218E800089561
:1018EA00CF93DF9300D00F92CDB7DEB782E290E0BC
:1018FA000E945C12FF24FA9404E610E042E250E0EF
:10190A00BE016F5F7F4F80911D0590911E050E9459
:10191A006207813099F50E949812898190E00E94AD
:10192A007C088A8190E00E947C088A81F89EC00126
:10193A001124B8010E9484126B8389818436B9F01C
:10194A0018F4813679F018C0833739F08737A1F453
:10195A00CE0103960E94481111C0CE0103960E943F
:10196A0066110CC0CE0103960E94A21107C0CE01D7
:10197A0003960E94841102C00E94DC1184E190E067
:06198A000E945C12BBCFBD
:10199000CF93DF93DC01E9E1F5E001C0F90120819B
:1019A00031812A173B07D0F382819381AF01480F21
:1019B000591FA417B50749F412964D915C911397DE
:1019C000840F951F93838283DF0112968D919C91E2
:1019D0001397ED01C80FD91F2C173D07D9F420919B
:1019E000270530912805C217D30781F02A813B8152
:1019F000820F931F13969C938E931297C081D1816F
:101A00008881998111969C938E9307C01196DC93DF
:101A1000CE9303C011963C932E93AE17BF0711F0DF
:0A1A2000B183A083DF91CF910895F8
:101A2A00EF92FF920F931F93CF938C010FB6F89406
:101A3A000F92FC01C68D1C16ACF48189811106C077
:101A4A0011C0F8018189811105C00CC07801F1E14A
:101A5A00EF0EF11CC7010E94A10481110E94D71345
:101A6A00C15079F78FEFF801868F0F900FBE0FB62E
:101A7A00F8940F92C58D1C16ACF48085811106C0AE
:101A8A0011C0F8018085811105C00CC07801F8E009
:101A9A00EF0EF11CC7010E94A10481110E94D71305
:101AAA00C15079F78FEFF801858F0F900FBECF9154
:0A1ABA001F910F91FF90EF90089527
:101AC400CF930E94911363E083E00E945E1382E04F
:101AD4000E943213C0E8CCBF0E949F1364E083E0ED
:101AE4000E94671382E00E943D13C3BD61E070E071
:101AF40083E090E00E94A01061E070E084E090E058
:101B04000E94A01061E070E085E090E00E94A010C7
:101B140061E070E086E090E00E94A01060E070E078
:101B240083E090E00E946F0F60E070E084E090E05A
:101B34000E946F0F60E070E085E090E00E946F0FFC
:101B440060E070E086E090E00E946F0FCF9108950E
:101B5400FF920F931F93CF93DF93282F362F882361
:101B640059F1682F70E08FEF9FEF0E947012832F5E
:101B740090E06817790718F1239FC00111248F3D65
:101B84005FEF9507F8F4F42E032F122F81960E942D
:101B94005F05EC010097C1F0011103C099838883AC
:101BA40003C08196998388831B8F0C8F61E0CE01DB
:101BB4000E949B0AF8A208C0C0E0D0E005C0C0E0C3
:101BC400D0E002C0C0E0D0E0CE01DF91CF911F9100
:061BD4000F91FF9008953F
:101BDA0042E050E061E070E080E895E20E9412067F
:101BEA000E94620D0E94FE0F0E94981240E062E07D
:101BFA0083E00E94AA0D90931E0580931D05892BF0
:101C0A0009F4FFCFE12CF12C02E020E030E040E8BB
:101C1A0050E069EB74E082EC92E00E946900813046
:101C2A0009F0FFCFE12CF12C01E020E030E040E8A0
:101C3A0050E06DEB74E085E79CE00E94690081301A
:0A1C4A0009F0FFCF0E942B10FFCF1E
:101C5400E89409C097FB3EF4909580957095619542
:101C64007F4F8F4F9F4F9923A9F0F92F96E9BB27F8
:101C74009395F695879577956795B795F111F8CF74
:101C8400FAF4BB0F11F460FF1BC06F5F7F4F8F4FDF
:101C94009F4F16C0882311F096E911C0772321F0D5
:101CA4009EE8872F762F05C0662371F096E8862F6D
:101CB40070E060E02AF09A95660F771F881FDAF7C4
:0A1CC400880F9695879597F908950B
:101CCE00CF93DF930FB6F8940F9220912F0530919A
:101CDE003005DB014D915C914F3FBFEF5B0719F172
:101CEE00EC01E981FA81A0913A05B881BA1741F069
:101CFE002E173F0728F0FB011182108281E014C0DD
:101D0E002E1B3F0B2417350748F4FB01421B530BC8
:101D1E00518340830E94271380E006C0DB011D9291
:101D2E001C9281E001C080E00F900FBEDF91CF9139
:021D3E00089506
:101D400000EF14E00F2EF3ECEF2EF4E0FF2EF02D59
:101D500080913F05882329F10FB6F8940F92D8019E
:101D60001596ED91FC911697C681D781CE0102960A
:101D70000E94571080913E05815080933E058091CE
:101D80003F05815080933F050F900FBE8F89988D3E
:101D90000E940D0FCE010E940D0F80913F05811111
:101DA000DBCFF7018081823098F20E941C0CD0CFEB
:101DB0001BBC89EF8ABD8BE08EBD89B7806189BF6E
:101DC000A0913505B0913605CD91CDBFDD91DEBF37
:101DD000FF91EF91DF91CF91BF91AF919F918F9143
:101DE0007F916F915F914F913F912F911F910F9133
:101DF000FF90EF90DF90CF90BF90AF909F908F902B
:101E00007F906F905F904F903F902F901F900F901A
:0A1E10000FBE0F90089581E00895C1
:101E1A00CF93DF93009751F1FC01349722813381EC
:101E2A00332324F540815181452B01F5EF013F779A
:101E3A00338322830E94C2132091250530912605FF
:101E4A008A819B81820F931F909326058093250593
:101E5A00CE010E94C80C80911F0590912005019621
:101E6A009093200580931F050E94C303DF91CF91B1
:021E7A000895C9
:101E7C00CF93DF93EB01488159814F3F2FEF5207EE
:101E8C0021F4FC01A781B0850DC0DC01139601C0C3
:101E9C00DF011296ED91FC9113972081318142174D
:101EAC005307B0F71296ED91FC911397FB83EA83DD
:101EBC00D583C483BD83AC831396DC93CE931297E6
:101ECC0099878887FC0120812F5F2083DF91CF9138
:021EDC00089567
:101EDE006130710599F062307105E9F0672B39F5C3
:101EEE0045B321E030E0B90102C0660F771F8A9535
:101EFE00E2F7CB018095842385BB089545B321E09D
:101F0E0030E0B90102C0660F771F8A95E2F7CB0168
:101F1E00842B85BB089545B321E030E0B90102C0A2
:101F2E00660F771F8A95E2F7CB01842785BB08954C
:101F3E006130710599F062307105E9F0672B39F562
:101F4E0042B321E030E0B90102C0660F771F8A95D7
:101F5E00E2F7CB018095842382BB089542B321E042
:101F6E0030E0B90102C0660F771F8A95E2F7CB0108
:101F7E00842B82BB089542B321E030E0B90102C048
:101F8E00660F771F8A95E2F7CB01842782BB0895EF
:101F9E000E94EC1088F09F5798F0B92F9927B751EF
:101FAE00B0F0E1F0660F771F881F991F1AF0BA95EF
:101FBE00C9F714C0B13091F00E94BB13B1E008957F
:101FCE000C94BB13672F782F8827B85F39F0B93F71
:101FDE00CCF3869577956795B395D9F73EF49095A2
:0E1FEE008095709561957F4F8F4F9F4F08959E
:101FFC0061E070E080EF90E00E94E11261E070E03F
:10200C0080E090E00E94C21061E070E081E090E01E
:10201C000E94C21061E070E082E090E00E94C21069
:10202C0060E070E081E090E00E949F0F82E00E94EF
:10203C00061188E20E9406118CE00E9406110E9493
:0A204C00981286E00E940611089524
:10205600EF92FF920F930F2EF9E2EF2EF5E0FF2E8F
:10206600F02D00E020E030E045E550E064E175E069
:1020760080EA9EE00E946900813081F4F8948FEF37
:102086009FEF90932C0580932B0581E080933C0570
:102096001092300510922F050E94D80E80913805B7
:0820A6000F91FF90EF900895E7
:1020AE00CF93DF93FC01A085B185C281D38184815A
:1020BE0095819D838C83C481D581828193819B83FD
:1020CE008A8311968D919C911297E817F90731F436
:1020DE008481958112969C938E931197118610860A
:0E20EE008C9181508C938C91DF91CF9108954D
:1020FC006115710521F06130710579F0089547B3D0
:10210C0021E030E0B90102C0660F771F8A95E2F733
:10211C00CB018095842387BB089547B321E030E041
:10212C00B90102C0660F771F8A95E2F7CB01842BA9
:04213C0087BB0895C0
:102140006115710521F06130710579F0089544B38E
:1021500021E030E0B90102C0660F771F8A95E2F7EF
:10216000CB018095842384BB089544B321E030E003
:10217000B90102C0660F771F8A95E2F7CB01842B65
:0421800084BB08957F
:102184006115710521F06130710579F0089541B34D
:1021940021E030E0B90102C0660F771F8A95E2F7AB
:1021A400CB018095842381BB089541B321E030E0C5
:1021B400B90102C0660F771F8A95E2F7CB01842B21
:0421C40081BB08953E
:1021C80057FD9058440F551F59F05F3F71F04795E0
:1021D800880F97FB991F61F09F3F79F087950895C5
:1021E800121613061406551FF2CF4695F1DF08C0E4
:1021F800161617061806991FF1CF86957105610501
:042208000894089599
:10220C00CF93C82F909885B38F709C2F907F892B7C
:10221C0085BB0E94701385B3282F2F7030E1C39FAC
:10222C00C0011124822B85BB0E9470138FEF99EF94
:10223C0020E0815090402040E1F700C00000CF9199
:02224C000895F3
:10224E00CF93C82F909A85B38F709C2F907F892B38
:10225E0085BB0E94701385B3282F2F7030E1C39F6A
:10226E00C0011124822B85BB0E9470138FEF99EF52
:10227E0020E0815090402040E1F700C00000CF9157
:02228E000895B1
:10229000FC01208123BD80818CBF61E070E083E080
:1022A00090E00E946F0F60E070E084E090E00E9498
:1022B0006F0F61E070E085E090E00E946F0F60E0DA
:0C22C00070E086E090E00E946F0F08952F
:1022CC00FC01208123BD80818CBF60E070E083E045
:1022DC0090E00E946F0F61E070E084E090E00E945B
:1022EC006F0F60E070E085E090E00E946F0F61E09E
:0C22FC0070E086E090E00E946F0F0895F3
:10230800FC01208123BD80818CBF61E070E083E007
:1023180090E00E946F0F60E070E084E090E00E941F
:102328006F0F60E070E085E090E00E946F0F61E061
:0C23380070E086E090E00E946F0F0895B6
:10234400FC01208123BD80818CBF60E070E083E0CC
:1023540090E00E946F0F61E070E084E090E00E94E2
:102364006F0F61E070E085E090E00E946F0F60E025
:0C23740070E086E090E00E946F0F08957A
:10238000E0913305F09134058081811107C08FEF12
:102390009FEF90932C0580932B050895E0913305D2
:1023A000F09134050580F681E02D80819181909334
:0823B0002C0580932B05089514
:1023B80060E070E083E090E00E946F0F60E070E002
:1023C80084E090E00E946F0F60E070E085E090E0AC
:1023D8000E946F0F60E070E086E090E00E946F0F4F
:0623E80013BC1CBE0895A9
:1023EE00813049F028F0823051F0833081F0089529
:1023FE000E94DF13089583B7806483BF089584E637
:10240E008CBF83B7886083BF0E94E313089583B7A0
:06241E00886483BF0895ED
:10242400813049F028F0823051F0833081F00895F2
:102434000E94E713089585B5806485BD089584E6F8
:1024440083BD85B5886085BD0E94EB13089585B56D
:06245400886485BD0895B7
:10245A00FC01448D4423A9F050E026813781240FE2
:10246A00351F37832683848195812817390720F001
:10247A008081918197838683CB01668177810E94CF
:04248A00531308954B
:10248E00CF93DF93EC018881882361F021960E941F
:10249E00DB138FE39CE90197F1F700C000008991EF
:0A24AE008111F5CFDF91CF91089561
:1024B800CF93DF93EC01892B51F00E94C21360E0A7
:1024C800CE010E94FB070E94C303811102C00E9433
:0824D8001C0CDF91CF91089567
:1024E000AA1BBB1B51E107C0AA1FBB1FA617B7073A
:1024F00010F0A61BB70B881F991F5A95A9F7809556
:082500009095BC01CD01089586
:1025080097FB072E16F4009407D077FD09D00E9498
:10251800701207FC05D03EF4909581959F4F089561
:08252800709561957F4F089545
:10253000909885B38F7085BB0E94701385B38F70A0
:10254000806185BB0E9470138FE19EE40197F1F7D3
:0625500000C00000089528
:102556000F931F93CF93DF93EC018B010E940E1311
:10256600B8018C0F9D1F0E948213CE01DF91CF917F
:062576001F910F91089572
:10257C00CF93DF93EB016091350570913605645F65
:10258C007F4F0E943E0F61E0CE010E94FB07DF915E
:04259C00CF9108953E
:1025A000092E0394000C11F4882352F0BB0F40F461
:1025B000BF2B11F460FF04C06F5F7F4F8F4F9F4FA1
:0225C00008957C
:1025C2006115710521F06130710531F0089594B300
:1025D2008095892384BB089594B3892B84BB089585
:1025E200CF93DF93EC018881882331F021960E94FA
:0E25F200271189918111FBCFDF91CF910895C0
:10260000FC010396928381832FEF3FEF3483238372
:0C2610009683858390878783108208954D
:10261C00FC01AF014F5F5F4F2081222311F0FA01C3
:0C262C00F8CF9F01281B390BC90108954D
:102638000FB6F8940F92FC01928D0F900FBE81E0B7
:06264800911180E00895ED
:10264E0020913A05FC01208320912F053091300511
:06265E0032832183089580
:1026640093B79F7C93BF23B730E1839FC0011124AC
:06267400822B83BF0895D4
:10267A0095B59F7C95BD25B530E1839FC001112496
:06268A00822B85BD0895BE
:10269000EC010E94FE130E94FD13CE010E94FF1365
:0626A000CE010E94FB13B5
:1026A600FB01DC01480F591FA417B50719F021914A
:0626B6002D93FACF0895F8
:1026BC00CF93C62F0E94F7118C2F0E948A13CF91B3
:0226CC0008956F
:1026CE00CF93C62F0E9412128C2F0E949813CF9177
:0226DE0008955D
:1026E000929A8FE19EE40197F1F700C00000929862
:0226F00008954B
:1026F200FC01480F591FE417F50711F06193FBCF56
:02270200089538
:10270400FC01DB012D91BD0121932111FACF089524
:0E27140093B7987F93BF93B7892B83BF089527
:0E27220061E070E083E090E00E947E10089578
:0E27300095B5987F95BD95B5892B85BD08950B
:0E273E0061E070E087E090E00E94C210089514
:0E274C005058BB27AA270E94CE090C94D01229
:0E275A0000240A94161617061806090608959C
:0E27680000240A94121613061406050608959E
:0E277600E894BB2766277727CB0197F90895D3
:0C278400809137058F5F80933705089522
:0C27900097F99F6780E870E060E0089512
:0A279C0057985F9BFECF8CB10895A3
:0827A600FC0111861086089564
:0827AE0081E080933B050895D2
:0827B6005D9BFECF8CB9089574
:0827BE0089B7816089BF08950D
:0827C60089B7826089BF089504
:0827CE0089B7806489BF0895FA
:0827D60089B7806889BF0895EE
:0827DE000E94F3080C94D012D4
:0627E6000E94C00B1895D3
:0627EC009FEF80EC089550
:0427F2000C94000043
:0427F6000E946700D6
:0227FA00089540
:0227FC0008953E
:0227FE0008953C
:102800004D5055205461736B20737461727465640C
:102810000D0A0044617461207061727365643A202E
:1028200000446174612073656E7420746F2071754B
:102830006575650D0A0051756575652073656E6473
:10284000206661696C65640D0A00506172736520D1
:102850006661696C65640D0A004D5055004D6F74DA
:032860006F720094
:0528630049444C450052
:01286800036C
:00000001FF
