:100000000C9439000C947C160C947C160C947C1681
:100010000C947C160C947C160C947C160C94701624
:100020000C947C160C947C160C947C160C947C1608
:100030000C947C160C947C160C947C160C947C16F8
:100040000C947C160C947C160C947C160C947C16E8
:100050000C947C160060006280006200FC002D0E93
:1000600000FC0120800120014C002DA8014C0178EA
:10007000800011241FBECFE5D8E0DEBFCDBFE4E590
:10008000F0E040E017C0B591A5913591259105911B
:1000900007FD0CC095918591EF01F92FE82F059090
:1000A0000D92A217B307D9F7FE0104C01D92A21743
:1000B000B307E1F7E137F40731F70E94510C0C94D4
:0600C000C315F894FFCF08
:1000C600A6E2B0E0E9E6F0E00C94761498A38F8FF0
:1000D6007F8B6E8B288FFB010190F081E02DFA87D4
:1000E600E987FB0102811381248135813B8B2A8BB1
:1000F600808591859AA389A326803780FA0180801E
:100106009180A280B38020E030E0A901C501B4014E
:100116000E94571687FF06C0B7FAB094B7F8B09496
:100126008DE204C0598552FF47C38BE2F1018083FB
:100136002A893B89215031093C832B8341E050E0D9
:10014600598B488B06C08A899B899C838B83198A25
:10015600188AD501C401BF770097E0E8AE07EFE73C
:10016600BE0799F4F88D2F2FFF0F330B2154310959
:1001760088899989820D931D2A31310518F466E321
:1001860071E019C06AE371E016C00197A048BF4745
:10019600A8F0488D242F440F330B21543109888948
:1001A6009989820D931D2A31310518F46EE371E0A9
:1001B60002C062E471E00E94F915EDC220E030E071
:1001C600A901C501B4010E945716C12CD12C20E803
:1001D600E22E2FE3F22E1A821982882309F48CC0AC
:1001E6008D829E82AF82B88620E030E040E251E404
:1001F600C701B6010E946C162B013C01D501C40152
:1002060084199509A609B709B7FF07C0B095A09547
:10021600909581959F4FAF4FBF4F0297A105B105AE
:1002260044F489819A8101969A83898373016201D4
:10023600DBCFA5019401C301B2010E94571687FDC9
:10024600F0CF8D819E81AF81B8858C199D09AE094D
:10025600BF090196A11DB11D0397A105B10508F4BB
:1002660049C01E821D82A5019401C701B6010E94E4
:10027600521618160CF040C0E981FA81E43DFE4F93
:10028600E4F44D815E81452BC1F420E030E040E886
:100296005AE5C501B4010E946C164B015C0120E0D1
:1002A60030E040E85AE5C701B6010E946C166B01C2
:1002B6007C0181E090E09E838D8320E030E040E287
:1002C60051E4C701B6010E9468166B017C01E98101
:1002D600FA813197FA83E983D501C4018C199D0906
:1002E600AE09BF090196A11DB11D0397A105B10570
:1002F60008F0B9CF46015701288D022E000C330BAA
:10030600398F288FC9010E9401168A8F17FD03C0F5
:100316001E830D8304C046E050E05E834D835A8DF4
:10032600573641F4012B09F04CC281E090E09E83E0
:100336008D8347C24A8D4F8706C029813A8137FF90
:1003460052C256E65F878D819E8101969E838D837C
:100356009F859636B9F4E981FA81F7FF08C0C12C6A
:10036600D12C90E8E92E9FE3F92E1A821982FA8D94
:10037600F73641F02D813E8149815A81240F351F80
:100386003E832D831C2DDDA2EBA20F2D8B869C8632
:10039600AD86BE861D8A1C8A8C899D89ED81FE816B
:1003A6008E179F07DCF5212F3DA14BA1502F6B85A2
:1003B6007C858D859E850E9468160E94620E2B01A3
:1003C6003C010E941E166B8FA3019201612F7DA135
:1003D6008BA1902F0E946C162B853C854D855E85E2
:1003E6000E9417169B01AC0150582B873C874D87FE
:1003F6005E8720E030E040E251E4612F7DA18BA1D1
:10040600902F0E946816162F7DA38BA3092F4C8967
:100416005D894F5F5F4F5D8B4C8BBECF20E030E038
:1004260040EA50E4612F7DA18BA1902F0E946C16AB
:100436002B013C019B01AC016B857C858D859E85DE
:100446000E94571687FD0DC0A30192016B857C851E
:100456008D859E850E945716811106C0FB8DF0FD85
:1004660003C0412C512C3201A5019401C301B201F4
:100476000E9418164B015C0120E030E040E251E496
:10048600C701B6010E946C166B877C8B182F092F4B
:100496009B01482F592FC501B4010E94521687FDB2
:1004A60014C029813A812F5F3F4F3A8329833F85C4
:1004B600363679F44D815E814F5F5F4F5E834D83A3
:1004C6005B855DA38C898EA30BC0CB86DC8A1E2D33
:1004D6000F2D9F85953639F0EB85EDA3FC89FEA39C
:1004E600E980FA8006C02B852DA33C893EA3E12C2A
:1004F600F12C48885988C12CD12C1D8A1C8A1C864F
:100506001B8649855A85407155275CA34BA32B85CD
:100516003C854D815E812417350734F08C899D8991
:10052600892B09F494C09FC03201EE89FF8980852A
:10053600918505974816590688F72DA13EA1412FAA
:10054600502FC501B4010E9468160E94620E6B8F7F
:100556007C8F8D8F9E8F0E941E166A30710514F057
:1005660069E070E08BA19CA1892B69F46115710586
:1005760051F49A8D973639F4F7FE05C03601EFEF40
:100586006E1A7E0A38C02C893D89232B99F4F7FE12
:1005960011C03FEF431A530AF101E60DF71D4EE273
:1005A60040838B819C8101979C838B83E1E0F0E003
:1005B600FD8BEC8BF101E40DF51D36016114710420
:1005C60031F020E3219331E0631A7108F7CFC601B9
:1005D600840D951D2B813C812C193D092C014FEF73
:1005E600441A540AF101E80FF91F605D6083C901DE
:1005F60001979C838B832B8D3C8D4D8D5E8D6DA1DC
:100606007EA1812F902F0E946C16A50194010E9455
:1006160017164B015C01B7FAB094B7F8B09420E016
:1006260030E040E251E46DA17EA1812F902F0E941F
:1006360068166DA37EA3182F092F91E0E91AF10819
:10064600EB85FC853196FC87EB87630160CFF985E6
:10065600F4FF09C0F101E40DF51D8EE280839201DD
:100666002F5F3F4F2901A101440D551D5E834D8328
:10067600FA011082FF85F53609F061C0E9A1FAA1F9
:10068600E20DF31D3197108229813A8137FF08C0A8
:100696003195219531093A83298301E010E002C0A2
:1006A60000E010E0E9A1FAA13197E20DF31D22E086
:1006B60030E08AE0E82EF12CCF01821993094981B6
:1006C6005A81452B91F089819A81B7010E940615BE
:1006D600805D829369837A83215031094B815C81E5
:1006E600415051095C834B83E7CF121613065CF326
:1006F600FC013197E20DF31D012B11F42BE201C031
:100706002DE220830297B101680F791F288D398D5C
:10071600215431092A31310510F025E601C025E4BE
:10072600FB0120832B813C81225031093C832B83A2
:100736004816590624F48D819E810E94F915398543
:1007460031FF29C030FD27C04B815C811416150688
:1007560014F5C1010E94AA15820D931D9C01221950
:10076600330948895989241735074CF0FC01208143
:10077600EB81FC81E80FF91F20830197EFCF4B81B6
:100786005C8160E370E088899989820D931D0E94DF
:10079600D8151B8A1A8AC1010E94AA1509851A85CD
:1007A6002A893B89AC01B1018F8D98A10E9446121E
:1007B600A696E2E10C949214598553FFC4CC80E2CC
:1007C600B5CC89819A818C3F9F4F54F0E981FA819B
:1007D6002D813E81E217F3070CF4AFCD35E604C058
:0C07E600F5E6FF87CFCD36E63F87CCCD8F
:1007F2004F925F926F927F928F929F92AF92BF922F
:10080200CF92DF92EF92FF920F931F93CF93DF93DA
:10081200CDB7DEB760970FB6F894DEBF0FBECDBF7F
:100822008C017A8369837A01FB014084518462845A
:100832007384FA012085318542855385C301B20153
:100842000E94171669877A878B879C87F701208118
:10085200318142815381E981FA8160817181828192
:1008620093810E94171620E03CED4FE757E40E9467
:100872006816209158013091590140915A015091C6
:100882005B010E9418164B015C0123EC3BEF4EE822
:1008920054E3C301B2010E946C160E94AA0B2B0101
:1008A2003C01F7012481358146815781E981FA8132
:1008B20064817581868197810E94171620E03CED44
:1008C2004FE757E40E946816209154013091550178
:1008D20040915601509157010E9418166B017C01FC
:1008E200A3019201C501B4010E946C169B01AC01E7
:1008F200C701B6010E9418169B01AC016093540116
:10090200709355018093560190935701C301B20130
:100912000E946C169B01AC01C501B4010E9417161E
:10092200609358017093590180935A0190935B012F
:10093200F80180809180A280B380448055806680D7
:100942007780C084D184E284F384A5019401C50137
:10095200B4010E946C1669837A838B839C83A30102
:100962009201C301B2010E946C166D837E838F8354
:1009720098879B01AC0169817A818B819C810E945D
:1009820018166D877E878F87988B2D813E814F81C8
:10099200588569817A818B819C810E9418166983AE
:1009A2007A838B839C83A7019601C701B6010E94BB
:1009B2006C169B01AC0169817A818B819C810E94BA
:1009C20018160E94280A6B017C01A50194015F7729
:1009D2000E9452161816B4F4A7019601C301B2017F
:1009E2000E9468160E94190923EA3CE445E652E493
:1009F2000E946C16609350017093510180935201D2
:100A020090935301F80184819581A681B7819C015D
:100A1200AD015F77C701B6010E9452161816CCF4D9
:100A2200A7019601F80160817181828193810E9400
:100A320068160E94190923EA3CE445E652E40E9442
:100A42006C1660934C0170934D0180934E0190930C
:100A52004F012FE832EC45E75FE360915801709156
:100A6200590180915A0190915B010E946C166B01B1
:100A72007C012AE037ED43E25DE360915001709121
:100A8200510180915201909153010E946C169B0179
:100A9200AC01C701B6010E9418164B015C016093BC
:100AA20058017093590180935A0190935B012FE88A
:100AB20032EC45E75FE360915401709155018091FA
:100AC2005601909157010E946C166B017C012AE03D
:100AD20037ED43E25DE360914C0170914D018091ED
:100AE2004E0190914F010E946C169B01AC01C7010F
:100AF200B6010E9418166B017C0160935401709339
:100B02005501809356019093570123E333E343E366
:100B12005FE360916401709165018091660190913B
:100B220067010E946C162B013C012AE939E949E967
:100B32005EE3C501B4010E946C169B01AC01C301C6
:100B4200B2010E941816609364017093650180934C
:100B520066019093670123E333E343E35FE360912C
:100B620060017091610180916201909163010E9424
:100B72006C164B015C012AE939E949E95EE3C701D8
:100B8200B6010E946C169B01AC01C501B4010E9422
:100B920018166093600170936101809362019093D3
:100BA200630169857A858B859C85905820E03CEDB0
:100BB2004FE757E40E94681660935C0170935D01F1
:100BC20080935E0190935F0160960FB6F894DEBF4A
:100BD2000FBECDBFDF91CF911F910F91FF90EF908C
:100BE200DF90CF90BF90AF909F908F907F906F904B
:060BF2005F904F90089592
:100BF800AEE0B0E0E2E0F6E00C9479144C016B0151
:100C08001A8219828FEF9FEF9C838B831E821D822D
:100C180058874F833A872987A12CB12CD6016D902C
:100C28007C90F301EA0DFB1D808181110FC0D60174
:100C3800ED93FC938081853209F0D3C13F01BFEF6A
:100C48006B1A7B0AF6017182608219C0853279F3CA
:100C5800B401082E000C990B0E9447114FEFA41AFB
:100C6800B40ADCCF8C32ACF08D32F9F489819A81E8
:100C780081609A8389833196D601ED93FC93D601DE
:100C8800ED91FC9180818B3269F789819A8184602A
:100C9800F0CF803221F489819A818860EACF83324B
:100CA80051F489819A818061E4CF803321F489816C
:100CB8009A818260DECFB701C6010E94E4129E834A
:100CC8008D8397FF0BC029813A81B1E02B273A83A6
:100CD80029839195819591099E838D8389819A8134
:100CE80080FF03C08D7F9A838983D601ED91FC91A3
:100CF800119780818E3249F43196ED93FC93B701B8
:100D0800C6010E94E4129C838B83C6010E94A31330
:100D1800582ED601ED91FC918081082E000C990B7C
:100D28000E940116893609F443C084F4833609F415
:100D380002C134F4853209F427C18136E1F030C1AB
:100D48008436B1F188360CF4D9C02AC1803709F449
:100D58009AC03CF48E3609F4BCC08F3609F461C0E1
:100D68001FC1853709F440C0883709F476C0833736
:100D780009F016C1F3C0652D70E0A701CE010B96EE
:100D88000E94C313892B09F426C1D601ED91FC9169
:100D98001197CF0101968D939C932081AE01455FF9
:100DA8005F4FBE016F5F7F4FC4010E94000010C1FA
:100DB800652D70E0970141E050E0CE010B960E944E
:100DC8000000892B09F407C1F60180819181019601
:100DD80091838083AE01455F5F4FBE016F5F7F4F98
:100DE800C4010E940000F4C0652D70E0970140E046
:100DF80050E0CE010B960E940000892B09F4EBC04D
:100E0800D6018D919C91119701968D939C93AE017B
:100E1800455F5F4FBE016F5F7F4FC4010E940000B6
:100E2800D7C0652D70E0970140E050E0CE010B96E9
:100E38000E940000892B09F4CEC0F60180819181BF
:100E4800019691838083AE01455F5F4FBE016F5F5E
:100E58007F4FC4010E940000BBC0652D70E0970160
:100E680040E050E0CE010B960E940000892B09F467
:100E7800B2C0D601ED91FC911197CF0101968D93E7
:100E88009C9320811CC0970140E050E060EF70E027
:100E9800CE010B960E940000892B09F49CC0F60134
:100EA800808191810196918380838B859C85892B94
:100EB80029F420E030E046E451E084C028E7AE01A0
:100EC800455F5F4FBE016F5F7F4FC4010E94000006
:100ED8007FC0A501400F511F652D70E09701CE011D
:100EE8000B960E940000892B09F475C0D6018D91DC
:100EF8009C91119701968D939C9373C0652D70E01A
:100F0800A701CE010B960E94C313892B09F463C075
:100F1800D601ED91FC911197CF0101968D939C9389
:100F28002081AE01455F5F4FBE016F5F7F4FC401F7
:100F38000E9463004DC0B0E85B124DC0F60180818D
:100F48009181019691838083D701ED91FC9111974E
:100F5800CF0102968D939C93808120C0B0E85B12EC
:100F68003AC0F60180819181019691838083D701EF
:100F7800ED91FC911197CF0102968D939C9340813E
:100F8800518120E030E01EC0B0E85B1224C0F601B9
:100F9800208131812F5F3F4F318320838B870DC0A4
:100FA80085E28B87D6016D927C921A8219821E8205
:100FB8001D828FEF9FEF9C838B8321E030E0AE0191
:100FC800455F5F4FBE016F5F7F4FC4010E94000005
:100FD8008A0D9B1D07C0F60180819181019691833E
:0C0FE8008083C5012E96EFE00C94951458
:100FF400EF92FF920F931F93CF93DF93809174012D
:10100400811104C1C0916C01D0916D017E018FEFFB
:10101400E81AF80AF0926D01E0926C01E114F1040F
:10102400B9F4809170019091710120916E01309119
:101034006F01309371012093700190936F0180933D
:101044006E01809175018F5F809375010E945A141F
:101054008091680190916901E816F90610F480E026
:10106400B9C080E061E0E0917001F091710190817C
:10107400911107C02FEF3FEF30936901209368016E
:10108400A9C0E0917001F09171010580F681E02D15
:101094000680F781E02D22813381E216F30628F4DD
:1010A400309369012093680195C0A285B38524819A
:1010B400358146815781E9015D834C8326813781DF
:1010C40044815581E9015B834A83AF014E5F5F4FE1
:1010D40011962D913C9112972417350731F42681EE
:1010E400378112963C932E931197138612869C9106
:1010F40091509C93A489B589109719F12685378559
:1011040000891189E9011D830C83208931890685B1
:101114001785E9011B830A8311960D911C9112977F
:101124009F01245F3F4F0217130731F4208931894F
:1011340012963C932E931197158A148A9C91915080
:101144009C93268990917701921710F4209377014C
:1011540030E0D901AA0FBB1FAA0FBB1FAA0FBB1FE8
:101164002A0F3B1FD901A450BF4F11960D90BC917B
:10117400A02DB583A48314962D913C9115973783A4
:10118400268314962D913C911597E9015B834A833C
:1011940015965C934E931497A689B0E09D01220F97
:1011A400331F220F331F220F331FA20FB31FA4506C
:1011B400BF4FB387A2879C919F5F9C93A0917201BC
:1011C400B0917301268956969C91921708F04BCFE3
:1011D400862F49CFE0917201F0917301268930E0A6
:1011E400F901EE0FFF1FEE0FFF1FEE0FFF1F2E0F73
:1011F4003F1FF901E450FF4F9081923008F081E0E5
:1012040090917601992361F081E00AC080916A018E
:1012140090916B01019690936B0180936A0180E039
:0E122400DF91CF911F910F91FF90EF900895F1
:101232004F925F926F927F928F929F92AF92BF92E4
:10124200CF92DF92EF92FF92CF93DF9300D000D044
:10125200CDB7DEB76B017C0169837A838B839C8374
:10126200DC01CB01BF77009720E8A2072FE3B2078A
:1012720028F10097A048BF4369F42BED3FE049EC09
:101282005FE3C701B6010E946C1620E030E040E83F
:1012920053E05FC081E290E0909361008093600030
:1012A200A7019601C701B6010E9417169B01AC0166
:1012B20060E070E0CB010E946816B6C00097A105FD
:1012C2004FE3B40708F048C0A058B1090097A10540
:1012D200B94308F4A7C0A7019601C701B6010E944D
:1012E2006C164B015C012BE633ED4DE05CEB0E948A
:1012F2006C162AEB33E14FE25DE30E941716A5015B
:1013020094010E946C1625E73AEA4AE25EE30E94E3
:101312001816A50194010E946C162B013C012EEABD
:1013220035EE44E35FEBC501B4010E946C1620E088
:1013320030E040E85FE30E9418169B01AC01C30154
:10134200B2010E946816A70196010E946C16A701BD
:1013520096010E94181668C0C701B6010E94801645
:101362009B01AC0160E070E080E89FE30E941716E9
:1013720020E030E040E05FE30E946C166B017C01EC
:101382000E94280A4B015C012BE633ED4DE05CEB39
:10139200C701B6010E946C162AEB33E14FE25DE30E
:1013A2000E941716A70196010E946C1625E73AEAD9
:1013B2004AE25EE30E941816A70196010E946C168B
:1013C2002B013C012EEA35EE44E35FEBC701B60187
:1013D2000E946C1620E030E040E85FE30E9418169D
:1013E2009B01AC01C301B2010E946816A5019401E0
:1013F2000E946C16A50194010E9418169B01AC0173
:101402000E9418169B01AC016BED7FE089EC9FE313
:101412000E94171629813A814B815C8157FF04C0D3
:10142200905802C0C701B6010F900F900F900F9015
:10143200DF91CF91FF90EF90DF90CF90BF90AF9070
:0E1442009F908F907F906F905F904F900895D5
:10145000A4E0B0E0EEE2FAE00C9478148B019C0179
:10146000AC0140785F776B017C0140385F4761F4E5
:10147000E894E7F8FF24C114D104E104F10409F071
:10148000ACC097FDAAC0AEC0E894F7F8C114D1046F
:10149000E104F10409F4A6C097FF07C081E290E0DF
:1014A000909361008093600098C0DC01CB0167E1FC
:1014B000B595A795979587956A95D1F70097A1055A
:1014C000B105B9F480E090E0DC0127FD08C0000F11
:1014D000111F221F331F0196A11DB11DF6CF0197C9
:1014E000A109B109B095A095909581959F4FAF4FF7
:1014F000BF4F8F579109A109B1092F773327206872
:1015000080FF04C0000F111F221F331FAC01BD015B
:10151000759567955795479549835A836B837C8367
:10152000000F111F221F331F49E150E0812C912C25
:101530005401B394C12CD12C760180E090E0DC0101
:101540002C013D01480C591C6A1C7B1C0415150517
:101550002605370574F0D301C201880D991DAA1D17
:10156000BB1D0419150926093709C80CD91CEA1C2A
:10157000FB1C000F111F221F331FB694A7949794D2
:10158000879441505109E1F60115110521053105F6
:1015900051F0970186010170112722273327C00ED1
:1015A000D11EE21EF31EF594E794D794C79451EC34
:1015B000F51A89819A81AB81BC8127E1880F991F37
:1015C000AA1FBB1F2A95D1F78C0D9D1DAE1DBF1DF7
:1015D000482F392F2A2F5B2F09C040E030E020EC44
:1015E0005FE704C0462F372F282F592F642F732F02
:0C15F000822F952F2496E0E10C949414B7
:1015FC002F923F924F925F926F927F928F929F9217
:10160C00AF92BF92CF92DF92EF92FF920F931F9304
:10161C00CF93DF93CDB7DEB768970FB6F894DEBFE4
:10162C000FBECDBF1C0100ED17E0412C512C320137
:10163C00812C912C5401C12CD12C7601BE016F5FF1
:10164C007F4FCE010D960E94E20CC301B2010E94A5
:10165C00951129813A814B815C810E9418160E9458
:10166C001E162B013C01C501B4010E9495112D8160
:10167C003E814F8158850E9418160E941E164B0100
:10168C005C01C701B6010E94951129853A854B85ED
:10169C005C850E9418160E941E166B017C018FED52
:1016AC009EE20197F1F700C000000150110931F6DC
:1016BC00C301B20120ED37E040E050E00E94C514B8
:1016CC00CA01B9010E949511F10160837183828373
:1016DC009383C501B40120ED37E040E050E00E9457
:1016EC00C514CA01B9010E949511F1016483758377
:1016FC0086839783C701B60120ED37E040E050E0C8
:10170C000E94C514CA01B9010E949511F1016087AC
:10171C0071878287938768960FB6F894DEBF0FBEE9
:10172C00CDBFDF91CF911F910F91FF90EF90DF9084
:10173C00CF90BF90AF909F908F907F906F905F9065
:08174C004F903F902F9008958B
:10175400A4E0B0E0E0EBFBE00C9480148B019C016E
:101764003F770B3D4FE0140749E424074FE3340768
:1017740048F40115110540E8240749E3340708F447
:101784008AC07BC06B017C01CC24F7FCC394DD24AC
:10179400EE24FF24023D43E514074BE7240740E40D
:1017A400340708F5043E4BEC140746E1240740E4F3
:1017B400340760F42BED3FE049EC5FE3CC2019F0F3
:1017C4000E94181660C00E9417165AC02BED3FE005
:1017D40049E450E4CC2019F00E94181602C00E947B
:1017E400171690584AC0063D41E3140742EE2407F9
:1017F40040E4340700F5003E4DEE14074FEA240799
:1018040040E4340760F424EE3BEC46E950E4CC2099
:1018140019F00E94181634C00E94171634C02BED1C
:101824003FE049EC50E4CC2019F00E94181625C082
:101834000E94171622C00115110540E824074FE73E
:10184400340728F5AE014F5F5F4F0E94D50E282F55
:10185400237069817A818B819C81213089F048F0E1
:10186400223089F4DC01CB01B05889839A83AB839D
:10187400BC8369817A818B819C810E94720D0BC02B
:101884000E94EB0D08C00E94EB0D905804C06FEF4E
:0E1894007FEF8FEF9FE72496E8E00C949C1402
:1018A200CF93DF93CDB7DEB7C254D1090FB6F89408
:1018B200DEBF0FBECDBF41E060E080E895E20E944E
:1018C2007F120E945C1619821A821B821C821D8260
:1018D2001E821F82188619861A861B861C861D8602
:1018E2001E861F86188A198A1A8A1B8A1C8A1D8AD2
:1018F2001E8A1F8A188E198E1A8E1B8E1C8E1D8EA2
:101902001E8E1F8E18A219A21AA21BA21CA20E942E
:10191200DC14CE0149960E94FE0A4CE763E082E0A5
:101922000E9412130F2EF0EDEF2EF0E0FF2EF02D9D
:101932008E010B5D1F4FBE01635F7F4FCE0101968B
:101942000E94E20CAE01475E5F4FBE01635F7F4FB4
:10195200CE0101960E94F90380915F018F938091DD
:101962005E018F9380915D018F9380915C018F93D3
:10197200809163018F93809162018F9380916101C5
:101982008F93809160018F93809167018F938091F3
:1019920066018F93809165018F93809164018F938B
:1019A200FF92EF921F930F930E942C15C8010E9481
:1019B2009B150E944D160FB6F894DEBF0FBECDBF29
:0219C200BACF9A
:1019C400FF920F931F93CF93DF938C01EB010E943F
:1019D400CE150E940916F82E0E9409166F2D70E08C
:1019E400762F6627682B072E000C880B990B0E9414
:1019F4009511F80160837183828393830E94091691
:101A0400F82E0E9409166F2D70E0762F6627682B3A
:101A1400072E000C880B990B0E949511F801648322
:101A24007583868397830E940916F82E0E940916EF
:101A34006F2D70E0762F6627682B072E000C880B1D
:101A4400990B0E949511F8016087718782879387AB
:101A54000E9409160E9409160E940916182F0E9456
:101A64000916612F70E0762F6627682B072E000C6D
:101A7400880B990B0E949511688379838A839B83D1
:101A84000E940916182F0E940916612F70E0762F04
:101A94006627682B072E000C880B990B0E94951162
:101AA4006C837D838E839F830E940916182F0E9466
:101AB4001016612F70E0762F6627682B072E000C16
:101AC400880B990B0E949511688779878A879B8771
:101AD4000E944116DF91CF911F910F91FF900895BD
:101AE4004F925F926F927F928F929F92AF92BF922A
:101AF400CF92DF92EF92FF92CF93DF9300D000D08A
:101B0400CDB7DEB74B015C019B01AC010E946C16A2
:101B14006B017C019B01AC01C501B4010E946C16F0
:101B240069837A838B839C832CE33CE646E356E308
:101B3400C701B6010E946C162FEC37E040E559E36B
:101B44000E9417162B013C01A7019601C701B6019B
:101B54000E946C1629813A814B815C810E946C162B
:101B64009B01AC01C301B2010E946C162B013C0124
:101B740024E838E848E05CE3C701B6010E946C162B
:101B84002BEA3AEA4AE25EE30E94171629813A8177
:101B94004B815C810E946C16A50194010E94181669
:101BA4009B01AC01C301B2010E9418160F900F9063
:101BB4000F900F90DF91CF91FF90EF90DF90CF9037
:101BC400BF90AF909F908F907F906F905F904F9059
:021BD400089572
:101BD6004F925F926F927F928F929F92AF92BF9237
:101BE600CF92DF92EF92FF92CF93DF9300D000D097
:101BF600CDB7DEB79B01AC010E946C166B017C0170
:101C06009B01AC010E946C162B013C0120E030E0E8
:101C160040E05FEBC701B6010E946C1620E030E0A1
:101C260040E85FE30E9418164B015C012FE93AEA8F
:101C36004AE25DE3C301B2010E946C169B01AC014E
:101C4600C501B4010E9418164B015C0127E13AE96F
:101C56004CEC57E3C701B6010E946C162FE334E043
:101C660046EB5AE30E94171669837A838B839C831B
:101C7600A3019201C701B6010E946C169B01AC013B
:101C860069817A818B819C810E946C169B01AC01D3
:101C9600C501B4010E9418160F900F900F900F9077
:101CA600DF91CF91FF90EF90DF90CF90BF90AF90F4
:0E1CB6009F908F907F906F905F904F90089559
:101CC4008F929F92AF92BF92CF92DF92EF92FF9248
:101CD4000F931F938B019C0157E136952795179518
:101CE40007955A95D1F71127A8014F575109473144
:101CF40051050CF045C057FD2DC00FEF1FEF2FE726
:101D040030E004C035952795179507954A95D2F785
:101D14004801590186229722A822B92289288A28B3
:101D24008B2871F197FF07C0DC01CB01800F911F55
:101D3400A21FB31F02C0DC01CB01009510952095B2
:101D4400309580239123A223B323482F392F2A2FA0
:101D54005B2F1AC097FF0FC08B019C01000F111F4E
:101D6400221F331F012B022B032B51F040E030E0E4
:101D740020E85FEB09C040E030E020E050E004C020
:101D8400462F372F282F592F642F732F822F952FEB
:101D94001F910F91FF90EF90DF90CF90BF90AF9085
:061DA4009F908F9008954E
:101DAA004F925F926F927F928F929F92AF92BF9261
:101DBA00CF92DF92EF92FF921F93CF93DF93EA01C4
:101DCA006B017C01CC24F7FCC394DD24EE24FF24B0
:101DDA001C2D0E9480162B013C0123E839EF42E2B8
:101DEA005FE30E946C1620E030E040E05FE30E946F
:101DFA0018160E941E166B017C010E9495114B0158
:101E0A005C012AED3FE049EC5FE30E946C169B01FE
:101E1A00AC01C301B2010E9417162B013C0123EA4F
:101E2A0035E848E852E3C501B4010E946C169B01EB
:101E3A00AC01C301B2010E941716112361F0DC0143
:101E4A00CB01B05888839983AA83BB8388279927B3
:101E5A008C199D0905C0688379838A839B83C6018F
:101E6A00DF91CF911F91FF90EF90DF90CF90BF90BD
:101E7A00AF909F908F907F906F905F904F90089552
:101E8A0010C00E942C1658F00E94251640F029F422
:101E9A005F3F29F00C94471651110C9434160C9498
:101EAA0079160E945F1368F39923B1F3552391F3CE
:101EBA00951B550BBB27AA2762177307840738F0AF
:101ECA009F5F5F4F220F331F441FAA1FA9F335D00C
:101EDA000E2E3AF0E0E832D091505040E695001CC0
:101EEA00CAF72BD0FE2F29D0660F771F881FBB1F7A
:101EFA00261737074807AB07B0E809F0BB0B802D58
:101F0A00BF01FF2793585F4F3AF09E3F510578F083
:101F1A000C9447160C9434165F3FE4F3983ED4F3BE
:101F2A00869577956795B795F7959F5FC9F7880F57
:101F3A00911D9695879597F90895E1E0660F771FA9
:101F4A00881FBB1F621773078407BA0720F0621B3A
:0E1F5A00730B840BBA0BEE1F88F7E095089509
:101F68000FC00E94251638F00E942C1620F09523E9
:101F780011F00C9447160C94791611240C9434160D
:101F88000E945F1370F3959FC1F3950F50E0551FA2
:101F9800629FF001729FBB27F00DB11D639FAA27B6
:101FA800F00DB11DAA1F649F6627B00DA11D661F05
:101FB800829F2227B00DA11D621F739FB00DA11D26
:101FC800621F839FA00D611D221F749F3327A00DE0
:101FD800611D231F849F600D211D822F762F6A2F7C
:101FE80011249F5750409AF0F1F088234AF0EE0FE1
:101FF800FF1FBB1F661F771F881F91505040A9F70E
:102008009E3F510580F00C9447160C9434165F3FA0
:10201800E4F3983ED4F3869577956795B795F79549
:10202800E7959F5FC1F7FE2B880F911D96958795C1
:0420380097F9089577
:10203C0011C00E94251638F00E942C1620F039F49D
:10204C009F3F19F426F40C9479160EF4E095E7FBF7
:10205C000C944716E92F0E945F1358F3BA176207C6
:10206C0073078407950720F079F4A6F50C943316C2
:10207C000EF4E0950B2EBA2FA02D0B01B901900197
:10208C000C01CA01A0011124FF27591B99F0593FDB
:10209C0050F4503E68F11A16F040A22F232F342F23
:1020AC004427585FF3CF469537952795A795F04071
:1020BC005395C9F77EF41F16BA0B620B730B840B86
:1020CC00BAF09150A1F0FF0FBB1F661F771F881F3E
:1020DC00C2F70EC0BA0F621F731F841F48F4879596
:1020EC0077956795B795F7959E3F08F0B0CF939588
:0E20FC00880F08F09927EE0F979587950895A5
:10210A0080917401882321F081E0809376010895FB
:10211A001092760120917701822F90E0FC01EE0F58
:10212A00FF1FEE0FFF1FEE0FFF1FE80FF91FE4500E
:10213A00FF4F3081311111C02150822F90E0FC01F4
:10214A00EE0FFF1FEE0FFF1FEE0FFF1FE80FF91F25
:10215A00E450FF4F3081332379F3AC01440F551F0C
:10216A00440F551F440F551F480F591FDA01A45039
:10217A00BF4F1196ED91FC9112970280F381E02DE9
:10218A001296FC93EE93119741505F4FE417F507AF
:10219A0029F442815381FD0152834183FC01EE0FF0
:1021AA00FF1FEE0FFF1FEE0FFF1F8E0F9F1FFC0179
:1021BA00E450FF4F0180F281E02D86819781909350
:0C21CA0073018093720120937701089547
:1021D6000F920FB6F8940F921F9211242F923F92EE
:1021E6004F925F926F927F928F929F92AF92BF9221
:1021F600CF92DF92EF92FF920F931F932F933F930D
:102206004F935F936F937F938F939F93AF93BF93F8
:10221600CF93DF93EF93FF93A0917201B091730177
:102226000DB60D920EB60D920E94FA0781110E940C
:102236008510A0917201B0917301CD91CDBFDD9152
:10224600DEBFFF91EF91DF91CF91BF91AF919F914B
:102256008F917F916F915F914F913F912F911F9138
:102266000F91FF90EF90DF90CF90BF90AF909F902F
:102276008F907F906F905F904F903F902F901F9020
:082286000F900FBE0F900895A8
:10228E000F931F93CF93DF93DB01109719F48FEF0A
:10229E009FEF3DC02D913C91119730FF25C01696B2
:1022AE004D915C91179714962D913C91159742176D
:1022BE00530778F41296ED91FC9113978083129642
:1022CE002D913C9113972F5F3F4F13963C932E9376
:1022DE00129716962D913C9117972F5F3F4F179699
:1022EE003C932E93169713C01C96ED91FC911D975F
:1022FE00309769F2EB01092F182F0995892B39F6C2
:10230E008E819F8101969F838E83812F902FDF91E7
:08231E00CF911F910F9108956A
:10232600E89409C097FB3EF4909580957095619569
:102336007F4F8F4F9F4F9923A9F0F92F96E9BB271F
:102346009395F695879577956795B795F111F8CF9B
:10235600FAF4BB0F11F460FF1BC06F5F7F4F8F4F06
:102366009F4F16C0882311F096E911C0772321F0FC
:102376009EE8872F762F05C0662371F096E8862F94
:1023860070E060E02AF09A95660F771F881FDAF7EB
:0A239600880F9695879597F9089532
:1023A000A2E8B0E0E6EDF1E10C947C145C014A0196
:1023B000CF57DF4F79836883C158D040C12CD12CCF
:1023C000CF57DF4FE881F981C158D0408081882301
:1023D000E9F07401860120E830E0AE014F5F5F4F05
:1023E000BE016F577F4FC5010E94FC058C0D9D1DDE
:1023F0008C159D054CF48FE490E0909361008093E0
:1024000060008FEF9FEF03C06C01DACFC601CE579B
:08241000DF4FECE00C9498147E
:10241800A0E1B0E0E2E1F2E10C948214FB01BA0120
:10242800AE014F5F5F4F7A0140E1D7011D924A9597
:10243800E9F742E051E05A8349839C838B83F7FF95
:1024480009C08FE490E090936100809360008FEF63
:102458009FEF14C0A9018C013197FE83ED83C7015A
:102468000E94AD144F8158852D813E814217530734
:1024780008F49A01F801E20FF31F10826096E6E073
:042488000C949E14FE
:10248C00A0E0B0E0ECE4F2E10C947C146C015B0194
:10249C007A01E901480181E08822992400FD03C0FA
:1024AC004217530750F0A701B501C6010E943D1415
:1024BC00EC16FD0610F0C70117C08E010E191F098E
:1024CC000115110541F0B60180E290E00E94471120
:1024DC0001501109F5CF8114910429F4A701B5011C
:1024EC00C6010E943D14CE01CDB7DEB7ECE00C94D2
:0224FC00981432
:1024FE001F93CF93DF93EC01862F142F0E944F155D
:10250E008AE18A95F1F700C0BE01DD0F880B990BA9
:10251E000E9495119B01AC0160E074E284E799E49E
:10252E000E94681620E030E040E85FE30E94171634
:10253E000E941E16CB010E9476168AE18A95F1F74B
:10254E0000C0812F0E94E1158AE18A95F1F700C043
:0C255E000E947E16DF91CF911F9108951E
:10256A000E94671388F09F5798F0B92F9927B7519F
:10257A00B0F0E1F0660F771F881F991F1AF0BA951D
:10258A00C9F714C0B13091F00E943316B1E0089532
:10259A000C943316672F782F8827B85F39F0B93F24
:1025AA00CCF3869577956795B395D9F73EF49095D0
:0E25BA008095709561957F4F8F4F9F4F0895CC
:1025C800DC01ED91FC91119780818A3221F080E045
:1025D80090E03AE00EC03196ED93FC93DB01ED916B
:1025E800FC911197CF0102968D939C9380819181E4
:1025F8000895ED91FC911197208120532A3068F4B9
:10260800389FA001399F500D1124CA01820F911DD6
:0C26180031961196FC93EE93ECCF0895E0
:102624001F93CF93DF93C82F162FD42F0E94E31349
:102634008FE19EE40197F1F700C00000DCBFC130D8
:1026440058F0C33038F0C33039F40E9460160E9449
:10265400641602C00E9464168FE097E20197F1F7B6
:1026640000C00000812F0E94B815DF91CF911F9107
:022674000895C7
:10267600990F0008550FAA0BE0E8FEEF161617068D
:10268600E807F907C0F012161306E407F50798F0F5
:10269600621B730B840B950B39F40A2661F0232B0E
:1026A600242B252B21F408950A2609F4A140A6958A
:0826B6008FEF811D811D0895C5
:1026BE0057FD9058440F551F59F05F3F71F04795E5
:1026CE00880F97FB991F61F09F3F79F087950895CA
:1026DE00121613061406551FF2CF4695F1DF08C0E9
:1026EE00161617061806991FF1CF86957105610506
:0426FE00089408959F
:10270200A1E21A2EAA1BBB1BFD010DC0AA1FBB1FF3
:10271200EE1FFF1FA217B307E407F50720F0A21B65
:10272200B30BE40BF50B661F771F881F991F1A94D2
:1027320069F760957095809590959B01AC01BD01FC
:04274200CF01089526
:10274600CF93DF93EC0190E0E92FF0E0EE0FFF1F4F
:10275600E05EFE4F8081811102C081810EC0A8819A
:10276600B9812C91821305C091811196B983A883F2
:1027760001C09F5F9B3040F3892FDF91CF91089571
:10278600FA0160387105CCF0623871051CF06338C7
:10279600710599F4A081B1819D012C5F3F4F318372
:1027A60020834D915D916D917C91FC014083518315
:1027B6006283738381E090E0089580E090E008955D
:1027C60093B7977B93BF9AE19A95F1F700C0813052
:1027D60051F028F0823059F0833069F0089583B7BC
:1027E600877B83BF089583B7806483BF089583B7CB
:0E27F600886083BF089583B7886483BF089509
:102804001F93CF93DF93182FC4EAD4E8C6BF06B64C
:1028140007FEFDCF81B1887F8830C1F713B9D6BFD9
:1028240006B607FEFDCF81B1887F883119F00E947A
:0C2834004116ECCFDF91CF911F91089569
:1028400094EA96BF06B607FEFDCF91B1987F90310E
:1028500071F483B984E886BF06B607FEFDCF81B167
:10286000887F803431F0803231F083E0089580E059
:0A287000089581E0089582E00895C4
:10287A00A0E0B0E0E3E4F4E10C9480146C01EB0115
:10288A008A017B01E40EF51ECE15DF0541F0899120
:10289A00B601082E000C990B0E944711F5CFC8010A
:0A28AA00CDB7DEB7E8E00C949C14F3
:1028B400E0917001F09171018081811107C08FEF67
:1028C4009FEF90936901809368010895E0917001EE
:1028D400F09171010580F681E02D808191819093C2
:0828E400690180936801089569
:1028EC002F923F924F925F926F927F928F929F9214
:1028FC00AF92BF92CF92DF92EF92FF920F931F9302
:10290C00CF93DF93CDB7DEB7CA1BDB0B0FB6F894B2
:08291C00DEBF0FBECDBF099420
:102924002A88398848885F846E847D848C849B845B
:10293400AA84B984C884DF80EE80FD800C811B8169
:10294400AA81B981CE0FD11D0FB6F894DEBF0FBE98
:06295400CDBFED01089566
:10295A00A2E0B0E0E3EBF4E10C9484148C015A8316
:10296A004983AE014F5F5F4F0E94D011F801208169
:10297A0024FF02C08FEF9FEF2296E4E00C94A0148C
:10298A00052E97FB1EF400940E94F11557FD07D0FF
:10299A000E94811307FC03D04EF40C94F115509554
:0E29AA004095309521953F4F4F4F5F4F089558
:1029B8002FEF82E597E0215080409040E1F700C07A
:1029C800000087E00E945F1580E00E946E1588E095
:0C29D8000E947D1580E10E948C1508957E
:1029E400AA1BBB1B51E107C0AA1FBB1FA617B70731
:1029F40010F0A61BB70B881F991F5A95A9F780954D
:082A04009095BC01CD0108957D
:102A0C0097FB072E16F4009407D077FD09D00E948F
:102A1C00F21407FC05D03EF4909581959F4F0895D4
:082A2C00709561957F4F08953C
:102A340083B984E886BF06B607FEFDCF81B1887FDF
:102A4400883221F0803321F082E0089580E00895F7
:042A540081E0089580
:102A5800A0E0B0E0E2E3F5E10C948614AE01475F34
:102A68005F4F6F8178858D819E810E943A16E2E0E2
:042A78000C94A21404
:102A7C00092E0394000C11F4882352F0BB0F40F480
:102A8C00BF2B11F460FF04C06F5F7F4F8F4F9F4FC0
:022A9C0008959B
:102A9E00882319F0813041F0089580B590B5806893
:102AAE00877F892B80BD089580B5886880BD089585
:102ABE00CF93C82F80ED0E94021489E10E941A154F
:0E2ACE008C2F0E941A150E944116CF91089578
:102ADC00CF93C82F80ED0E9402148BE60E941A152A
:0E2AEC008C2F0E941A150E944116CF9108955A
:102AFA00CF93C82F80ED0E9402148BE10E941A1511
:0E2B0A008C2F0E941A150E944116CF9108953B
:102B1800CF93C82F80ED0E9402148CE10E941A15F1
:0E2B28008C2F0E941A150E944116CF9108951D
:102B3600CF93DF93EC018881882331F021960E94A0
:0E2B4600E91589918111FBCFDF91CF910895A0
:102B5400FC01AF014F5F5F4F2081222311F0FA0186
:0C2B6400F8CF9F01281B390BC901089510
:102B700093B7987F93BF9AE19A95F1F700C093B706
:062B8000892B83BF0895BC
:102B8600EC010E9485160E948416CE010E948616CC
:062B9600CE010E94821630
:102B9C0080ED0E9402148BE30E941A1581ED0E94B5
:042BAC002014089554
:102BB000FC01480F591FE417F50711F06193FBCF93
:022BC000089576
:102BC2002AB138E0839FC0011124822B8AB908956B
:102BD200CF93C82F5E980E947316CCB9CF910895F7
:102BE20090958095709561957F4F8F4F9F4F089577
:102BF200FC01DB012D91BD0121932111FACF089532
:102C02009C01215431092A31310508F4806208956A
:0E2C120084EC86BF06B607FEFDCF83B10895A1
:0E2C200084E886BF06B607FEFDCF83B1089597
:0E2C2E005058BB27AA270E941E100C943E157A
:0E2C3C000E94B5126894B1110C9434160895DC
:0E2C4A0000240A9416161706180609060895A7
:0E2C580000240A9412161306140605060895A9
:0E2C6600E894BB2766277727CB0197F90895DE
:0E2C74009A01AB016FEF7FE70E940C120895EA
:0C2C820084E986BF06B604FCFDCF08956F
:0C2C8E0097F99F6780E870E060E008950F
:0A2C9A0008B601FEFDCF12BE08953A
:0A2CA4000E943B1308F48FEF08951F
:0A2CAE000E943B1308F481E0089532
:082CB80011B888E480B9089509
:082CC00089B7816089BF089506
:082CC80089B7826089BF0895FD
:082CD0000E94450F0C943E1513
:082CD8000E94B40F0C943E159C
:062CE0000E94EB101895A4
:062CE6005D9BFECF089586
:062CEC0089B990BD0895B6
:062CF2009FEF80EC089545
:042CF8000C94000038
:042CFC00579A089546
:042D00009F7708951C
:042D04000E946100C8
:022D080008952C
:022D0A0008952A
:022D0C00089528
:102D0E00204178203D20252E326620670900204183
:102D1E0079203D20252E32662067090020417A2039
:102D2E003D20252E3266206709002054203D2025A7
:102D3E002E3266B0430900204778203D20252E32E2
:102D4E0066206465672F730900204779203D202592
:102D5E002E3266206465672F73090020477A203D66
:102D6E0020252E3266206465672F730D0A005820C9
:102D7E00416E676C653A20252E3266095920416EE8
:102D8E00676C653A20252E3266095A20416E676CB3
:0A2D9E00653A20252E32660D0A006A
:102DA80068076C094C836A9074A07AC000806888B0
:062DB80000846C82008122
:102DBE00494E4600696E66004E414E006E616E00D1
:062DCE00286E696C29006B
:00000001FF
