:100000000C9433000C94B1070C94B1070C94B10715
:100010000C94B1070C94B1070C94B1070C94AB0786
:100020000C94B1070C94B1070C94B1070C94B10770
:100030000C94B1070C94B1070C94B1070C94B10760
:100040000C94B1070C94B1070C94B1070C94B10750
:100050000C94B10700600084800084008C000F7055
:10006000008C009C800011241FBECFE5D8E0DEBFCD
:10007000CDBFE4E5F0E040E017C0B591A591359122
:100080002591059107FD0CC095918591EF01F92F00
:10009000E82F05900D92A217B307D9F7FE0104C00F
:1000A0001D92A217B307E1F7E536F40731F70E9476
:0A00B0008E050C945507F894FFCF5D
:1000BA00EF92FF920F931F93CF93DF938091980053
:1000CA00811104C1C0919000D09191007E018FEFFF
:1000DA00E81AF80AF0929100E0929000E114F10413
:1000EA00B9F48091940090919500209192003091FA
:1000FA0093003093950020939400909393008093FB
:10010A009200809199008F5F809399000E94E00687
:10011A0080918C0090918D00E816F90610F480E029
:10012A00B9C080E061E0E0919400F091950090817F
:10013A00911107C02FEF3FEF30938D0020938C0071
:10014A00A9C0E0919400F09195000580F681E02D18
:10015A000680F781E02D22813381E216F30628F426
:10016A0030938D0020938C0095C0A285B38524819D
:10017A00358146815781E9015D834C832681378128
:10018A0044815581E9015B834A83AF014E5F5F4F2A
:10019A0011962D913C9112972417350731F4268137
:1001AA00378112963C932E931197138612869C914F
:1001BA0091509C93A489B589109719F126853785A2
:1001CA0000891189E9011D830C83208931890685FB
:1001DA001785E9011B830A8311960D911C911297C9
:1001EA009F01245F3F4F0217130731F42089318999
:1001FA0012963C932E931197158A148A9C919150CA
:10020A009C93268990919B00921710F420939B004F
:10021A0030E0D901AA0FBB1FAA0FBB1FAA0FBB1F31
:10022A002A0F3B1FD901A05ABF4F11960D90BC91BE
:10023A00A02DB583A48314962D913C9115973783ED
:10024A00268314962D913C911597E9015B834A8385
:10025A0015965C934E931497A689B0E09D01220FE0
:10026A00331F220F331F220F331FA20FB31FA05AAF
:10027A00BF4FB387A2879C919F5F9C93A0919600E2
:10028A00B0919700268956969C91921708F04BCF09
:10029A00862F49CFE0919600F0919700268930E0A9
:1002AA00F901EE0FFF1FEE0FFF1FEE0FFF1F2E0FBC
:1002BA003F1FF901E05AFF4F9081923008F081E028
:1002CA0090919A00992361F081E00AC080918E0092
:1002DA0090918F00019690938F0080938E0080E01A
:0E02EA00DF91CF911F910F91FF90EF9008953B
:1002F8004F925F926F927F928F929F92AF92BF922E
:10030800CF92DF92EF92FF920F931F93CF93DF93D9
:10031800CDB7DEB728970FB6F894DEBF0FBECDBFB6
:100328008B01DC014D905D906D907C90139753018B
:100338004201E894B7F81496CD90DD90ED90FC90CA
:100348001797D701C601BF778D839E83AF83B88780
:100358009C01AD01C501B4010E948E0718162CF549
:1003680020E030E0A901C301B2010E948E071816EF
:100378002CF00F2EF3E5FF2EF02D04C00F2EF7E51D
:10038800FF2EF02D20E030E04FE753E4C501B40123
:100398000E94A70720E030E044EB52E40E94A30744
:1003A8000E946707262F872F26C020E030E0A9018A
:1003B800C701B6010E948E0718162CF00F2EF1E423
:1003C800FF2EF02D04C00F2EF4E4FF2EF02D20E0B8
:1003D80030E04FE753E46D817E818F8198850E94DC
:1003E800A70720E030E044EB52E40E94A3070E94F4
:1003F8006707262F872FE22FF82FEF3FF10519F017
:1004080014F0EFEFF0E0FF2314F4E0E0F0E08CE309
:10041800D8018C9388E211968C9311971296FC92CE
:10042800129799E213969C93139714968C93CF0185
:1004380020E030E00F2EFAE0CF2ED12CF02D01C0B5
:1004480097017901BFEFEB1AFB0AB6010E94250755
:10045800CB0118161906A4F33323C4F09701CE0173
:100468000196280F391F6C010F2EFAE0AF2EB12C20
:10047800F02DCF01B5010E942507805DF901829317
:100488009F01E62FF72F2C153D0599F7FE01EE0D7C
:10049800FF1D11822981222361F0D8011596FE01E2
:1004A800329685E090E001962D9321912111FBCFA2
:1004B80002C085E090E0F801E80FF91F89E2808327
:1004C8008EE38183128228960FB6F894DEBF0FBEA2
:1004D800CDBFDF91CF911F910F91FF90EF90DF90EB
:1004E800CF90BF90AF909F908F907F906F905F90CC
:0404F8004F90089584
:1004FC00CF93DF93EB01813061F138F0823009F456
:10050C004CC0833009F471C07FC0599880B58F7B83
:10051C00806880BD8FE19EE40197F1F700C0000078
:10052C00072E000C880B990B0E94E8059B01AC016F
:10053C0060E074E284E799E40E94A30720E030E0D5
:10054C0040E85FE30E9460070E94670770BD69B9CD
:10055C005BC0599A80B58F7B806880BD8FE19EE42B
:10056C000197F1F700C00000072E000C880B990BC7
:10057C000E94E8059B01AC0160E074E284EF99E411
:10058C000E94A30720E030E040E85FE30E94600790
:10059C000E94670770BD69B937C0599880B5806CE7
:1005AC0080BD41E060E081E00E9413038FE19EE496
:1005BC000197F1F700C00000BE01DD0F880B990B0D
:1005CC000E94E8059B01AC0160E074E284EF9AE4C0
:1005DC000E94A30720E030E040E85FE30E94600740
:1005EC000E94670770BD69B90FC0599880B5806CBF
:1005FC0080BD40E060E081E00E9413038FE19EE447
:10060C000197F1F700C0000080B5866880BD8AB103
:0A061C0088618AB9DF91CF9108953B
:10062600813019F130F08230E1F1833009F455C0A0
:100636000895442319F0413069F008952AB381E002
:1006460090E002C0880F991F6A95E2F78095822391
:100656008ABB08952AB381E090E002C0880F991FF3
:100666006A95E2F7822B8ABB0895442319F041303C
:1006760069F0089527B381E090E002C0880F991FC2
:100686006A95E2F78095822387BB089527B381E0B8
:1006960090E002C0880F991F6A95E2F7822B87BB0C
:1006A6000895442319F0413069F0089524B381E098
:1006B60090E002C0880F991F6A95E2F78095822321
:1006C60084BB089524B381E090E002C0880F991F8F
:1006D6006A95E2F7822B84BB0895442319F04130D2
:1006E60069F0089521B381E090E002C0880F991F58
:1006F6006A95E2F78095822381BB089521B381E054
:1007060090E002C0880F991F6A95E2F7822B81BBA1
:02071600089544
:1007180010C00E94750758F00E946E0740F029F437
:100728005F3F29F00C94830751110C947D070C94BA
:10073800AE070E949F0668F39923B1F3552391F3FE
:10074800951B550BBB27AA2762177307840738F038
:100758009F5F5F4F220F331F441FAA1FA9F335D095
:100768000E2E3AF0E0E832D091505040E695001C49
:10077800CAF72BD0FE2F29D0660F771F881FBB1F03
:10078800261737074807AB07B0E809F0BB0B802DE1
:10079800BF01FF2793585F4F3AF09E3F510578F00D
:1007A8000C9483070C947D075F3FE4F3983ED4F3E1
:1007B800869577956795B795F7959F5FC9F7880FE1
:1007C800911D9695879597F90895E1E0660F771F33
:1007D800881FBB1F621773078407BA0720F0621BC4
:0E07E800730B840BBA0BEE1F88F7E095089593
:1007F6000FC00E946E0738F00E94750720F09523FF
:1008060011F00C9483070C94AE0711240C947D0709
:100816000E949F0670F3959FC1F3950F50E0551FF8
:10082600629FF001729FBB27F00DB11D639FAA273F
:10083600F00DB11DAA1F649F6627B00DA11D661F8E
:10084600829F2227B00DA11D621F739FB00DA11DAF
:10085600621F839FA00D611D221F749F3327A00D69
:10086600611D231F849F600D211D822F762F6A2F05
:1008760011249F5750409AF0F1F088234AF0EE0F6A
:10088600FF1FBB1F661F771F881F91505040A9F797
:100896009E3F510580F00C9483070C947D075F3FC3
:1008A600E4F3983ED4F3869577956795B795F795D3
:1008B600E7959F5FC1F7FE2B880F911D969587954B
:0408C60097F9089501
:1008CA0011C00E946E0738F00E94750720F039F4B3
:1008DA009F3F19F426F40C94AE070EF4E095E7FB5B
:1008EA000C948307E92F0E949F0658F3BA176207F0
:1008FA0073078407950720F079F4A6F50C947C0712
:10090A000EF4E0950B2EBA2FA02D0B01B901900120
:10091A000C01CA01A0011124FF27591B99F0593F64
:10092A0050F4503E68F11A16F040A22F232F342FAC
:10093A004427585FF3CF469537952795A795F040FA
:10094A005395C9F77EF41F16BA0B620B730B840B0F
:10095A00BAF09150A1F0FF0FBB1F661F771F881FC7
:10096A00C2F70EC0BA0F621F731F841F48F487951F
:10097A0077956795B795F7959E3F08F0B0CF939511
:0E098A00880F08F09927EE0F9795879508952E
:1009980080919800882321F081E080939A0008953F
:1009A80010929A0020919B00822F90E0FC01EE0F9C
:1009B800FF1FEE0FFF1FEE0FFF1FE80FF91FE05A92
:1009C800FF4F3081311111C02150822F90E0FC017E
:1009D800EE0FFF1FEE0FFF1FEE0FFF1FE80FF91FAF
:1009E800E05AFF4F3081332379F3AC01440F551F90
:1009F800440F551F440F551F480F591FDA01A05ABD
:100A0800BF4F1196ED91FC9112970280F381E02D72
:100A18001296FC93EE9311974D595F4FE417F50723
:100A280029F442815381FD0152834183FC01EE0F79
:100A3800FF1FEE0FFF1FEE0FFF1F8E0F9F1FFC0102
:100A4800E05AFF4F0180F281E02D868197819093D3
:0C0A580097008093960020939B00089567
:100A64000F920FB6F8940F921F9211242F923F9277
:100A74004F925F926F927F928F929F92AF92BF92AA
:100A8400CF92DF92EF92FF920F931F932F933F9396
:100A94004F935F936F937F938F939F93AF93BF9382
:100AA400CF93DF93EF93FF93A0919600B0919700BB
:100AB4000DB60D920EB60D920E945D0081110E943A
:100AC400CC04A0919600B0919700CD91CDBFDD915B
:100AD400DEBFFF91EF91DF91CF91BF91AF919F91D5
:100AE4008F917F916F915F914F913F912F911F91C2
:100AF4000F91FF90EF90DF90CF90BF90AF909F90B9
:100B04008F907F906F905F904F903F902F901F90A9
:080B14000F900FBE0F90089531
:100B1C00CF93DF93CDB7DEB7E3970FB6F894DEBF74
:100B2C000FBECDBF60E875E280E00E947E0284E8D3
:100B3C0090E00E94FC060E9497074CE763E082E07D
:100B4C000E9452060F2E412C512CF0E26F2EF1E434
:100B5C007F2EF02D0F2E812C912CF0EAAF2EF1E48C
:100B6C00BF2EF02D0F2EC12CD12CF0EFEF2EF1E477
:100B7C00FF2EF02D2FEF80E792E021508040904027
:100B8C00E1F700C00000488A598A6A8A7B8A8C8AFD
:100B9C009D8AAE8ABF8AC88ED98EEA8EFB8EBE0124
:100BAC006F5F7F4FCE0140960E947C01CE01019673
:100BBC000E94FC068DE00E9493070E948907DACF01
:100BCC00E89409C097FB3EF49095809570956195DB
:100BDC007F4F8F4F9F4F9923A9F0F92F96E9BB2791
:100BEC009395F695879577956795B795F111F8CF0D
:100BFC00FAF4BB0F11F460FF1BC06F5F7F4F8F4F78
:100C0C009F4F16C0882311F096E911C0772321F06D
:100C1C009EE8872F762F05C0662371F096E8862F05
:100C2C0070E060E02AF09A95660F771F881FDAF75C
:0A0C3C00880F9695879597F90895A3
:100C46000E94A70688F09F5798F0B92F9927B751A9
:100C5600B0F0E1F0660F771F881F991F1AF0BA955A
:100C6600C9F714C0B13091F00E947C07B1E0089535
:100C76000C947C07672F782F8827B85F39F0B93F27
:100C8600CCF3869577956795B395D9F73EF490950D
:0E0C96008095709561957F4F8F4F9F4F089509
:100CA4001F93CF93DF93C82F162FD42F0E94C10612
:100CB4008FE39CE90197F1F700C00000DCBFC1306D
:100CC40058F0C33038F0C33039F40E949B070E94B7
:100CD4009F0702C00E949F078FE19EE40197F1F7EE
:100CE40000C00000812F0E944A07DF91CF911F911D
:020CF400089561
:100CF600990F0008550FAA0BE0E8FEEF1616170627
:100D0600E807F907C0F012161306E407F50798F08E
:100D1600621B730B840B950B39F40A2661F0232BA7
:100D2600242B252B21F408950A2609F4A140A69523
:080D36008FEF811D811D08955E
:100D3E0057FD9058440F551F59F05F3F71F047957E
:100D4E00880F97FB991F61F09F3F79F08795089563
:100D5E00121613061406551FF2CF4695F1DF08C082
:100D6E00161617061806991FF1CF8695710561059F
:040D7E000894089538
:100D820093B7977B93BF95E39A95F1F70000813073
:100D920051F028F0823059F0833069F0089583B71A
:100DA200877B83BF089583B7806483BF089583B729
:0E0DB200886083BF089583B7886483BF089567
:100DC000E0919400F09195008081811107C08FEF30
:100DD0009FEF90938D0080938C000895E091940094
:100DE000F09195000580F681E02D808191819093AE
:080DF0008D0080938C00089532
:100DF800CF93DF93EC018881882361F021960E94CC
:100E080093078FE39CE90197F1F700C000008991EF
:0A0E18008111F5CFDF91CF9108950D
:100E2200AA1BBB1B51E107C0AA1FBB1FA617B7070E
:100E320010F0A61BB70B881F991F5A95A9F780952A
:080E42009095BC01CD0108955B
:100E4A0097FB072E16F4009407D077FD09D00E946D
:100E5A00110707FC05D03EF4909581959F4F0895A0
:080E6A00709561957F4F08951A
:100E7200092E0394000C11F4882352F0BB0F40F4A6
:100E8200BF2B11F460FF04C06F5F7F4F8F4F9F4FE6
:020E92000895C1
:100E940093B7987F93BF95E39A95F1F7000093B7C2
:060EA400892B83BF0895B5
:100EAA00EC010E94B6070E94B507CE010E94B7075F
:060EBA00CE010E94B30707
:0E0EC0005058BB27AA270E9465040C943907DE
:0E0ECE000E9423066894B1110C947D070895CC
:0E0EDC0000240A941616170618060906089533
:0E0EEA0000240A941216130614060506089535
:0E0EF800E894BB2766277727CB0197F908956A
:0C0F060097F99F6780E870E060E00895B4
:0A0F120008B601FEFDCF12BE0895DF
:0A0F1C000E947B0608F48FEF089591
:080F26005D9BFECF8CB908951C
:080F2E0011B888E480B90895B0
:080F360089B7816089BF0895AD
:080F3E0089B7826089BF0895A4
:080F46000E948C030C94390792
:080F4E000E94FB030C9439071B
:060F56000E94320518950F
:060F5C009FEF80EC0895F8
:040F62000C940000EB
:040F66000E945B008A
:020F6A000895E8
:020F6C000895E6
:020F6E000895E4
:080F700068656C6C6F200D0038
:00000001FF
