:100000000C9439000C945E160C945E160C945E16DB
:100010000C945E160C945E160C945E160C9452169C
:100020000C945E160C945E160C945E160C945E1680
:100030000C945E160C945E160C945E160C945E1670
:100040000C945E160C945E160C945E160C945E1660
:100050000C945E1600600062800062008E002CD25C
:10006000008E00B28000B200DE002CFE00DE00EE4A
:10007000800011241FBECFE5D8E0DEBFCDBFE4E590
:10008000F0E040E017C0B591A5913591259105911B
:1000900007FD0CC095918591EF01F92FE82F059090
:1000A0000D92A217B307D9F7FE0104C01D92A21743
:1000B000B307E1F7E137F40731F70E94C70C0C945E
:0600C000A515F894FFCF26
:1000C600A6E2B0E0E9E6F0E00C94461498A38F8F20
:1000D6007F8B6E8B288FFB010190F081E02DFA87D4
:1000E600E987FB0102811381248135813B8B2A8BB1
:1000F600808591859AA389A326803780FA0180801E
:100106009180A280B38020E030E0A901C501B4014E
:100116000E94391687FF06C0B7FAB094B7F8B094B4
:100126008DE204C0598552FF47C38BE2F1018083FB
:100136002A893B89215031093C832B8341E050E0D9
:10014600598B488B06C08A899B899C838B83198A25
:10015600188AD501C401BF770097E0E8AE07EFE73C
:10016600BE0799F4F88D2F2FFF0F330B2154310959
:1001760088899989820D931D2A31310518F468EC16
:1001860070E019C06CEC70E016C00197A048BF473C
:10019600A8F0488D242F440F330B21543109888948
:1001A6009989820D931D2A31310518F460ED70E0AE
:1001B60002C064ED70E00E94DB15EDC220E030E085
:1001C600A901C501B4010E943916C12CD12C20E821
:1001D600E22E2FE3F22E1A821982882309F48CC0AC
:1001E6008D829E82AF82B88620E030E040E251E404
:1001F600C701B6010E944E162B013C01D501C40170
:1002060084199509A609B709B7FF07C0B095A09547
:10021600909581959F4FAF4FBF4F0297A105B105AE
:1002260044F489819A8101969A83898373016201D4
:10023600DBCFA5019401C301B2010E94391687FDE7
:10024600F0CF8D819E81AF81B8858C199D09AE094D
:10025600BF090196A11DB11D0397A105B10508F4BB
:1002660049C01E821D82A5019401C701B6010E94E4
:10027600341618160CF040C0E981FA81E43DFE4FB1
:10028600E4F44D815E81452BC1F420E030E040E886
:100296005AE5C501B4010E944E164B015C0120E0EF
:1002A60030E040E85AE5C701B6010E944E166B01E0
:1002B6007C0181E090E09E838D8320E030E040E287
:1002C60051E4C701B6010E944A166B017C01E9811F
:1002D600FA813197FA83E983D501C4018C199D0906
:1002E600AE09BF090196A11DB11D0397A105B10570
:1002F60008F0B9CF46015701288D022E000C330BAA
:10030600398F288FC9010E94E3158A8F17FD03C014
:100316001E830D8304C046E050E05E834D835A8DF4
:10032600573641F4012B09F04CC281E090E09E83E0
:100336008D8347C24A8D4F8706C029813A8137FF90
:1003460052C256E65F878D819E8101969E838D837C
:100356009F859636B9F4E981FA81F7FF08C0C12C6A
:10036600D12C90E8E92E9FE3F92E1A821982FA8D94
:10037600F73641F02D813E8149815A81240F351F80
:100386003E832D831C2DDDA2EBA20F2D8B869C8632
:10039600AD86BE861D8A1C8A8C899D89ED81FE816B
:1003A6008E179F07DCF5212F3DA14BA1502F6B85A2
:1003B6007C858D859E850E944A160E94320E2B01F1
:1003C6003C010E9400166B8FA3019201612F7DA153
:1003D6008BA1902F0E944E162B853C854D855E8500
:1003E6000E94F9159B01AC0150582B873C874D871D
:1003F6005E8720E030E040E251E4612F7DA18BA1D1
:10040600902F0E944A16162F7DA38BA3092F4C8985
:100416005D894F5F5F4F5D8B4C8BBECF20E030E038
:1004260040EA50E4612F7DA18BA1902F0E944E16C9
:100436002B013C019B01AC016B857C858D859E85DE
:100446000E94391687FD0DC0A30192016B857C853C
:100456008D859E850E943916811106C0FB8DF0FDA3
:1004660003C0412C512C3201A5019401C301B201F4
:100476000E94FA154B015C0120E030E040E251E4B5
:10048600C701B6010E944E166B877C8B182F092F69
:100496009B01482F592FC501B4010E94341687FDD0
:1004A60014C029813A812F5F3F4F3A8329833F85C4
:1004B600363679F44D815E814F5F5F4F5E834D83A3
:1004C6005B855DA38C898EA30BC0CB86DC8A1E2D33
:1004D6000F2D9F85953639F0EB85EDA3FC89FEA39C
:1004E600E980FA8006C02B852DA33C893EA3E12C2A
:1004F600F12C48885988C12CD12C1D8A1C8A1C864F
:100506001B8649855A85407155275CA34BA32B85CD
:100516003C854D815E812417350734F08C899D8991
:10052600892B09F494C09FC03201EE89FF8980852A
:10053600918505974816590688F72DA13EA1412FAA
:10054600502FC501B4010E944A160E94320E6B8FCD
:100556007C8F8D8F9E8F0E9400166A30710514F075
:1005660069E070E08BA19CA1892B69F46115710586
:1005760051F49A8D973639F4F7FE05C03601EFEF40
:100586006E1A7E0A38C02C893D89232B99F4F7FE12
:1005960011C03FEF431A530AF101E60DF71D4EE273
:1005A60040838B819C8101979C838B83E1E0F0E003
:1005B600FD8BEC8BF101E40DF51D36016114710420
:1005C60031F020E3219331E0631A7108F7CFC601B9
:1005D600840D951D2B813C812C193D092C014FEF73
:1005E600441A540AF101E80FF91F605D6083C901DE
:1005F60001979C838B832B8D3C8D4D8D5E8D6DA1DC
:100606007EA1812F902F0E944E16A50194010E9473
:10061600F9154B015C01B7FAB094B7F8B09420E035
:1006260030E040E251E46DA17EA1812F902F0E941F
:100636004A166DA37EA3182F092F91E0E91AF10837
:10064600EB85FC853196FC87EB87630160CFF985E6
:10065600F4FF09C0F101E40DF51D8EE280839201DD
:100666002F5F3F4F2901A101440D551D5E834D8328
:10067600FA011082FF85F53609F061C0E9A1FAA1F9
:10068600E20DF31D3197108229813A8137FF08C0A8
:100696003195219531093A83298301E010E002C0A2
:1006A60000E010E0E9A1FAA13197E20DF31D22E086
:1006B60030E08AE0E82EF12CCF01821993094981B6
:1006C6005A81452B91F089819A81B7010E94D614EF
:1006D600805D829369837A83215031094B815C81E5
:1006E600415051095C834B83E7CF121613065CF326
:1006F600FC013197E20DF31D012B11F42BE201C031
:100706002DE220830297B101680F791F288D398D5C
:10071600215431092A31310510F025E601C025E4BE
:10072600FB0120832B813C81225031093C832B83A2
:100736004816590624F48D819E810E94DB15398561
:1007460031FF29C030FD27C04B815C811416150688
:1007560014F5C1010E948C15820D931D9C0122196E
:10076600330948895989241735074CF0FC01208143
:10077600EB81FC81E80FF91F20830197EFCF4B81B6
:100786005C8160E370E088899989820D931D0E94DF
:10079600BA151B8A1A8AC1010E948C1509851A8509
:1007A6002A893B89AC01B1018F8D98A10E9416124E
:1007B600A696E2E10C946214598553FFC4CC80E2FC
:1007C600B5CC89819A818C3F9F4F54F0E981FA819B
:1007D6002D813E81E217F3070CF4AFCD35E604C058
:0C07E600F5E6FF87CFCD36E63F87CCCD8F
:1007F200AEE0B0E0EFEFF3E00C9449144C016B0172
:100802001A8219828FEF9FEF9C838B831E821D8237
:1008120058874F833A872987A12CB12CD6016D9036
:100822007C90F301EA0DFB1D808181110FC0D6017E
:10083200ED93FC938081853209F0D3C13F01BFEF74
:100842006B1A7B0AF6017182608219C0853279F3D4
:10085200B401082E000C990B0E9417114FEFA41A35
:10086200B40ADCCF8C32ACF08D32F9F489819A81F2
:1008720081609A8389833196D601ED93FC93D601E8
:10088200ED91FC9180818B3269F789819A81846034
:10089200F0CF803221F489819A818860EACF833255
:1008A20051F489819A818061E4CF803321F4898176
:1008B2009A818260DECFB701C6010E94B4129E8384
:1008C2008D8397FF0BC029813A81B1E02B273A83B0
:1008D20029839195819591099E838D8389819A813E
:1008E20080FF03C08D7F9A838983D601ED91FC91AD
:1008F200119780818E3249F43196ED93FC93B701C2
:10090200C6010E94B4129C838B83C6010E9473139A
:10091200582ED601ED91FC918081082E000C990B86
:100922000E94E315893609F443C084F4833609F43E
:1009320002C134F4853209F427C18136E1F030C1B5
:100942008436B1F188360CF4D9C02AC1803709F453
:100952009AC03CF48E3609F4BCC08F3609F461C0EB
:100962001FC1853709F440C0883709F476C0833740
:1009720009F016C1F3C0652D70E0A701CE010B96F8
:100982000E949313892B09F426C1D601ED91FC91A3
:100992001197CF0101968D939C932081AE01455F03
:1009A2005F4FBE016F5F7F4FC4010E94000010C104
:1009B200652D70E0970141E050E0CE010B960E9458
:1009C2000000892B09F407C1F6018081918101960B
:1009D20091838083AE01455F5F4FBE016F5F7F4FA2
:1009E200C4010E940000F4C0652D70E0970140E050
:1009F20050E0CE010B960E940000892B09F4EBC057
:100A0200D6018D919C91119701968D939C93AE0185
:100A1200455F5F4FBE016F5F7F4FC4010E940000C0
:100A2200D7C0652D70E0970140E050E0CE010B96F3
:100A32000E940000892B09F4CEC0F60180819181C9
:100A4200019691838083AE01455F5F4FBE016F5F68
:100A52007F4FC4010E940000BBC0652D70E097016A
:100A620040E050E0CE010B960E940000892B09F471
:100A7200B2C0D601ED91FC911197CF0101968D93F1
:100A82009C9320811CC0970140E050E060EF70E031
:100A9200CE010B960E940000892B09F49CC0F6013E
:100AA200808191810196918380838B859C85892B9E
:100AB20029F420E030E048ED50E084C028E7AE01A0
:100AC200455F5F4FBE016F5F7F4FC4010E94000010
:100AD2007FC0A501400F511F652D70E09701CE0127
:100AE2000B960E940000892B09F475C0D6018D91E6
:100AF2009C91119701968D939C9373C0652D70E024
:100B0200A701CE010B960E949313892B09F463C0AF
:100B1200D601ED91FC911197CF0101968D939C9393
:100B22002081AE01455F5F4FBE016F5F7F4FC40101
:100B32000E9463004DC0B0E85B124DC0F601808197
:100B42009181019691838083D701ED91FC91119758
:100B5200CF0102968D939C93808120C0B0E85B12F6
:100B62003AC0F60180819181019691838083D701F9
:100B7200ED91FC911197CF0102968D939C93408148
:100B8200518120E030E01EC0B0E85B1224C0F601C3
:100B9200208131812F5F3F4F318320838B870DC0AE
:100BA20085E28B87D6016D927C921A8219821E820F
:100BB2001D828FEF9FEF9C838B8321E030E0AE019B
:100BC200455F5F4FBE016F5F7F4FC4010E9400000F
:100BD2008A0D9B1D07C0F601808191810196918348
:0C0BE2008083C5012E96EFE00C94651492
:100BEE004F925F926F927F928F929F92AF92BF922F
:100BFE00CF92DF92EF92FF920F931F93CF93DF93DB
:100C0E00CDB7DEB762970FB6F894DEBF0FBECDBF7D
:100C1E009A8B898B8B017A016901F90124813581C7
:100C2E0046815781F70164817581868197810E9483
:100C3E00F9152B013C01F60120853185428553853E
:100C4E00F70160857185828593850E94F915698704
:100C5E007A878B879C87F60120813181428153816F
:100C6E00F70160817181828193810E94F91520E0E4
:100C7E003CED4FE757E40E944A16E989FA8924852C
:100C8E003585468557850E94FA154B015C01E98929
:100C9E00FA89648775878687978720E03CED4FE752
:100CAE0057E4C301B2010E944A16E989FA892089E4
:100CBE003189428953890E94FA152B013C01E98939
:100CCE00FA89608B718B828B938B23EC3BEF4EE812
:100CDE0054E3F70160857185828593850E944E16D7
:100CEE000E94900B6B017C019B01AC01C501B4010C
:100CFE000E944E16A30192010E94FA159B01AC01AF
:100D0E00E989FA89608B718B828B938BC701B6014F
:100D1E000E944E169B01AC01C501B4010E94F9154B
:100D2E00E989FA896487758786879787F8018080B5
:100D3E009180A280B3804480558066807780C08485
:100D4E00D184E284F384A5019401C501B4010E940B
:100D5E004E1669837A838B839C83A3019201C30110
:100D6E00B2010E944E166D837E838F8398879B01FE
:100D7E00AC0169817A818B819C810E94FA156D8705
:100D8E007E878F87988B2D813E814F815885698113
:100D9E007A818B819C810E94FA1569837A838B8379
:100DAE009C83A7019601C701B6010E944E169B01B6
:100DBE00AC0169817A818B819C810E94FA150E9417
:100DCE000E0A6B017C01A50194015F770E94341617
:100DDE001816A4F4A7019601C301B2010E944A1687
:100DEE000E94FF0823EA3CE445E652E40E944E16B8
:100DFE00E989FA89608F718F828F938FF8018481D0
:100E0E009581A681B7819C01AD015F77C701B601BF
:100E1E000E9434161816BCF4A7019601F8016081E1
:100E2E007181828193810E944A160E94FF0823EAF3
:100E3E003CE445E652E40E944E16E989FA89648F35
:100E4E00758F868F978F2FE832EC45E75FE3E98940
:100E5E00FA8964857585868597850E944E166B0185
:100E6E007C012AE037ED43E25DE3E989FA89608D82
:100E7E00718D828D938D0E944E169B01AC01C70120
:100E8E00B6010E94FA154B015C01E989FA89648763
:100E9E007587868797872FE832EC45E75FE3608991
:100EAE007189828993890E944E166B017C012AE01A
:100EBE0037ED43E25DE3E989FA89648D758D868DA0
:100ECE00978D0E944E169B01AC01C701B6010E9480
:100EDE00FA156B017C01E989FA89608B718B828B23
:100EEE00938B23E333E343E35FE36081718182817C
:100EFE0093810E944E162B013C012AE939E949E9FA
:100F0E005EE3C501B4010E944E169B01AC01C30104
:100F1E00B2010E94FA15E989FA896083718382838E
:100F2E00938323E333E343E35FE364817581868137
:100F3E0097810E944E164B015C012AE939E949E975
:100F4E005EE3C701B6010E944E169B01AC01C501BE
:100F5E00B4010E94FA15E989FA8964837583868340
:100F6E00978369857A858B859C85905820E030E043
:100F7E0043E852E40E944A16E989FA89608771872C
:100F8E008287938762960FB6F894DEBF0FBECDBFF1
:100F9E00DF91CF911F910F91FF90EF90DF90CF9047
:100FAE00BF90AF909F908F907F906F905F904F907B
:020FBE00089594
:100FC000EF92FF920F931F93CF93DF938091EA00EC
:100FD000811104C1C091E200D091E3007E018FEF46
:100FE000E81AF80AF092E300E092E200E114F1045A
:100FF000B9F48091E6009091E7002091E4003091EF
:10100000E5003093E7002093E6009093E50080939D
:10101000E4008091EB008F5F8093EB000E942A1424
:101020008091DE009091DF00E816F90610F480E070
:10103000B9C080E061E0E091E600F091E7009081C6
:10104000911107C02FEF3FEF3093DF002093DE00B8
:10105000A9C0E091E600F091E7000580F681E02D5F
:101060000680F781E02D22813381E216F30628F411
:101070003093DF002093DE0095C0A285B3852481E4
:10108000358146815781E9015D834C832681378113
:1010900044815581E9015B834A83AF014E5F5F4F15
:1010A00011962D913C9112972417350731F4268122
:1010B000378112963C932E931197138612869C913A
:1010C00091509C93A489B589109719F1268537858D
:1010D00000891189E9011D830C83208931890685E6
:1010E0001785E9011B830A8311960D911C911297B4
:1010F0009F01245F3F4F0217130731F42089318984
:1011000012963C932E931197158A148A9C919150B4
:101110009C9326899091ED00921710F42093ED0096
:1011200030E0D901AA0FBB1FAA0FBB1FAA0FBB1F1C
:101130002A0F3B1FD901A257BF4F11960D90BC91AA
:10114000A02DB583A48314962D913C9115973783D8
:10115000268314962D913C911597E9015B834A8370
:1011600015965C934E931497A689B0E09D01220FCB
:10117000331F220F331F220F331FA20FB31FA2579B
:10118000BF4FB387A2879C919F5F9C93A091E8007B
:10119000B091E900268956969C91921708F04BCFA2
:1011A000862F49CFE091E800F091E900268930E0F0
:1011B000F901EE0FFF1FEE0FFF1FEE0FFF1F2E0FA7
:1011C0003F1FF901E257FF4F9081923008F081E014
:1011D0009091EC00992361F081E00AC08091E000D9
:1011E0009091E10001969093E1008093E00080E00F
:0E11F000DF91CF911F910F91FF90EF90089526
:1011FE004F925F926F927F928F929F92AF92BF9219
:10120E00CF92DF92EF92FF92CF93DF9300D000D078
:10121E00CDB7DEB76B017C0169837A838B839C83A8
:10122E00DC01CB01BF77009720E8A2072FE3B207BE
:10123E0028F10097A048BF4369F42BED3FE049EC3D
:10124E005FE3C701B6010E944E1620E030E040E891
:10125E0053E05FC081E290E0909361008093600064
:10126E00A7019601C701B6010E94F9159B01AC01B9
:10127E0060E070E0CB010E944A16B6C00097A1054F
:10128E004FE3B40708F048C0A058B1090097A10574
:10129E00B94308F4A7C0A7019601C701B6010E9481
:1012AE004E164B015C012BE633ED4DE05CEB0E94DC
:1012BE004E162AEB33E14FE25DE30E94F915A501CC
:1012CE0094010E944E1625E73AEA4AE25EE30E9436
:1012DE00FA15A50194010E944E162B013C012EEA2F
:1012EE0035EE44E35FEBC501B4010E944E1620E0DB
:1012FE0030E040E85FE30E94FA159B01AC01C301A8
:10130E00B2010E944A16A70196010E944E16A7012D
:10131E0096010E94FA1568C0C701B6010E946216B6
:10132E009B01AC0160E070E080E89FE30E94F9153C
:10133E0020E030E040E05FE30E944E166B017C013E
:10134E000E940E0A4B015C012BE633ED4DE05CEB87
:10135E00C701B6010E944E162AEB33E14FE25DE360
:10136E000E94F915A70196010E944E1625E73AEA4A
:10137E004AE25EE30E94FA15A70196010E944E16FC
:10138E002B013C012EEA35EE44E35FEBC701B601BB
:10139E000E944E1620E030E040E85FE30E94FA150E
:1013AE009B01AC01C301B2010E944A16A501940132
:1013BE000E944E16A50194010E94FA159B01AC01E4
:1013CE000E94FA159B01AC016BED7FE089EC9FE367
:1013DE000E94F91529813A814B815C8157FF04C027
:1013EE00905802C0C701B6010F900F900F900F904A
:1013FE00DF91CF91FF90EF90DF90CF90BF90AF90A5
:0E140E009F908F907F906F905F904F90089509
:10141C00A4E0B0E0E4E1FAE00C9448148B019C01E8
:10142C00AC0140785F776B017C0140385F4761F419
:10143C00E894E7F8FF24C114D104E104F10409F0A5
:10144C00ACC097FDAAC0AEC0E894F7F8C114D104A3
:10145C00E104F10409F4A6C097FF07C081E290E013
:10146C00909361008093600098C0DC01CB0167E130
:10147C00B595A795979587956A95D1F70097A1058E
:10148C00B105B9F480E090E0DC0127FD08C0000F45
:10149C00111F221F331F0196A11DB11DF6CF0197FD
:1014AC00A109B109B095A095909581959F4FAF4F2B
:1014BC00BF4F8F579109A109B1092F7733272068A6
:1014CC0080FF04C0000F111F221F331FAC01BD0190
:1014DC00759567955795479549835A836B837C839C
:1014EC00000F111F221F331F49E150E0812C912C5A
:1014FC005401B394C12CD12C760180E090E0DC0136
:10150C002C013D01480C591C6A1C7B1C041515054B
:10151C002605370574F0D301C201880D991DAA1D4B
:10152C00BB1D0419150926093709C80CD91CEA1C5E
:10153C00FB1C000F111F221F331FB694A794979406
:10154C00879441505109E1F601151105210531052A
:10155C0051F0970186010170112722273327C00E05
:10156C00D11EE21EF31EF594E794D794C79451EC68
:10157C00F51A89819A81AB81BC8127E1880F991F6B
:10158C00AA1FBB1F2A95D1F78C0D9D1DAE1DBF1D2B
:10159C00482F392F2A2F5B2F09C040E030E020EC78
:1015AC005FE704C0462F372F282F592F642F732F36
:0C15BC00822F952F2496E0E10C9464141B
:1015C8002F923F924F925F926F927F928F929F924B
:1015D800AF92BF92CF92DF92EF92FF920F931F9339
:1015E800CF93DF93CDB7DEB768970FB6F894DEBF19
:1015F8000FBECDBF1C0100ED17E0412C512C32016C
:10160800812C912C5401C12CD12C7601BE016F5F25
:101618007F4FCE010D960E94370CC301B2010E9484
:10162800651129813A814B815C810E94FA150E94DB
:1016380000162B013C01C501B4010E9465112D81E2
:101648003E814F8158850E94FA150E9400164B0171
:101658005C01C701B6010E94651129853A854B8551
:101668005C850E94FA150E9400166B017C018FEDC3
:101678009EE20197F1F700C000000150110931F610
:10168800C301B20120ED37E040E050E00E9495141C
:10169800CA01B9010E946511F101608371838283D7
:1016A8009383C501B40120ED37E040E050E00E948B
:1016B8009514CA01B9010E946511F101648375830B
:1016C80086839783C701B60120ED37E040E050E0FC
:1016D8000E949514CA01B9010E946511F101608741
:1016E80071878287938768960FB6F894DEBF0FBE1E
:1016F800CDBFDF91CF911F910F91FF90EF90DF90B9
:10170800CF90BF90AF909F908F907F906F905F9099
:081718004F903F902F900895BF
:10172000A4E0B0E0E6E9FBE00C9450148B019C01CE
:101730003F770B3D4FE0140749E424074FE334079C
:1017400048F40115110540E8240749E3340708F47B
:101750008AC07BC06B017C01CC24F7FCC394DD24E0
:10176000EE24FF24023D43E514074BE7240740E441
:10177000340708F5043E4BEC140746E1240740E427
:10178000340760F42BED3FE049EC5FE3CC2019F027
:101790000E94FA1560C00E94F9155AC02BED3FE077
:1017A00049E450E4CC2019F00E94FA1502C00E94CE
:1017B000F91590584AC0063D41E3140742EE24074C
:1017C00040E4340700F5003E4DEE14074FEA2407CD
:1017D00040E4340760F424EE3BEC46E950E4CC20CE
:1017E00019F00E94FA1534C00E94F91534C02BED8F
:1017F0003FE049EC50E4CC2019F00E94FA1525C0D6
:101800000E94F91522C00115110540E824074FE791
:10181000340728F5AE014F5F5F4F0E94A50E282FB9
:10182000237069817A818B819C81213089F048F015
:10183000223089F4DC01CB01B05889839A83AB83D1
:10184000BC8369817A818B819C810E94420D0BC08F
:101850000E94BB0D08C00E94BB0D905804C06FEFE2
:0E1860007FEF8FEF9FE72496E8E00C946C1466
:10186E00FF920F931F93CF93DF938C01EB010E9496
:10187E00B0150E94EB15F82E0E94EB156F2D70E03F
:10188E00762F6627682B072E000C880B990B0E946B
:10189E006511F80160837183828393830E94EB1537
:1018AE00F82E0E94EB156F2D70E0762F6627682BB1
:1018BE00072E000C880B990B0E946511F8016483AA
:1018CE007583868397830E94EB15F82E0E94EB1585
:1018DE006F2D70E0762F6627682B072E000C880B75
:1018EE00990B0E946511F801608771878287938733
:1018FE000E94EB150E94EB150E94EB15182F0E940B
:10190E00EB15612F70E0762F6627682B072E000CE3
:10191E00880B990B0E946511688379838A839B8358
:10192E000E94EB15182F0E94EB15612F70E0762F99
:10193E006627682B072E000C880B990B0E946511E9
:10194E006C837D838E839F830E94EB15182F0E94DC
:10195E00F215612F70E0762F6627682B072E000C8C
:10196E00880B990B0E946511688779878A879B87F8
:10197E000E942316DF91CF911F910F91FF90089532
:10198E00CF93DF93CDB7DEB7C656D1090FB6F89415
:10199E00DEBF0FBECDBF41E060E080E895E20E9461
:1019AE004F120E943E168CE0FE013196DF01982FF9
:1019BE001D929A95E9F73C96DF01982F1D929A9504
:1019CE00E9F78E01075E1F4FD8011D928A95E9F740
:1019DE00CE0185960E94EA140E94AC14C8010E94A2
:1019EE00E40A4CE763E082E00E94E2120F2EF2E678
:1019FE00EF2EF0E0FF2EF02D005D1F4FBE01635F56
:101A0E007F4FCE0101960E94370C9E01275E3F4FFD
:101A1E00AE01435F5F4FBE016F5F7F4FCE01859674
:101A2E000E94F70588A98F938FA58F938EA58F930C
:101A3E008DA58F938CA58F938BA58F938AA58F934E
:101A4E0089A58F9388A58F938FA18F938EA18F9346
:101A5E008DA18F93FF92EF921F930F930E940E15FD
:101A6E00C8010E947D150E942F160FB6F894DEBF96
:061A7E000FBECDBFC3CF77
:101A84004F925F926F927F928F929F92AF92BF928A
:101A9400CF92DF92EF92FF92CF93DF9300D000D0EA
:101AA400CDB7DEB74B015C019B01AC010E944E1621
:101AB4006B017C019B01AC01C501B4010E944E166F
:101AC40069837A838B839C832CE33CE646E356E369
:101AD400C701B6010E944E162FEC37E040E559E3EA
:101AE4000E94F9152B013C01A7019601C701B6011B
:101AF4000E944E1629813A814B815C810E944E16C8
:101B04009B01AC01C301B2010E944E162B013C01A2
:101B140024E838E848E05CE3C701B6010E944E16A9
:101B24002BEA3AEA4AE25EE30E94F91529813A81F6
:101B34004B815C810E944E16A50194010E94FA1506
:101B44009B01AC01C301B2010E94FA150F900F90E2
:101B54000F900F90DF91CF91FF90EF90DF90CF9097
:101B6400BF90AF909F908F907F906F905F904F90B9
:021B74000895D2
:101B76004F925F926F927F928F929F92AF92BF9297
:101B8600CF92DF92EF92FF92CF93DF9300D000D0F7
:101B9600CDB7DEB79B01AC010E944E166B017C01EE
:101BA6009B01AC010E944E162B013C0120E030E067
:101BB60040E05FEBC701B6010E944E1620E030E020
:101BC60040E85FE30E94FA154B015C012FE93AEA0F
:101BD6004AE25DE3C301B2010E944E169B01AC01CD
:101BE600C501B4010E94FA154B015C0127E13AE9EF
:101BF6004CEC57E3C701B6010E944E162FE334E0C2
:101C060046EB5AE30E94F91569837A838B839C839A
:101C1600A3019201C701B6010E944E169B01AC01B9
:101C260069817A818B819C810E944E169B01AC0151
:101C3600C501B4010E94FA150F900F900F900F90F6
:101C4600DF91CF91FF90EF90DF90CF90BF90AF9054
:0E1C56009F908F907F906F905F904F900895B9
:101C64008F929F92AF92BF92CF92DF92EF92FF92A8
:101C74000F931F938B019C0157E136952795179578
:101C840007955A95D1F71127A8014F5751094731A4
:101C940051050CF045C057FD2DC00FEF1FEF2FE786
:101CA40030E004C035952795179507954A95D2F7E6
:101CB4004801590186229722A822B92289288A2814
:101CC4008B2871F197FF07C0DC01CB01800F911FB6
:101CD400A21FB31F02C0DC01CB0100951095209513
:101CE400309580239123A223B323482F392F2A2F01
:101CF4005B2F1AC097FF0FC08B019C01000F111FAF
:101D0400221F331F012B022B032B51F040E030E044
:101D140020E85FEB09C040E030E020E050E004C080
:101D2400462F372F282F592F642F732F822F952F4B
:101D34001F910F91FF90EF90DF90CF90BF90AF90E5
:061D44009F908F900895AE
:101D4A004F925F926F927F928F929F92AF92BF92C1
:101D5A00CF92DF92EF92FF921F93CF93DF93EA0124
:101D6A006B017C01CC24F7FCC394DD24EE24FF2410
:101D7A001C2D0E9462162B013C0123E839EF42E236
:101D8A005FE30E944E1620E030E040E05FE30E94ED
:101D9A00FA150E9400166B017C010E9465114B0125
:101DAA005C012AED3FE049EC5FE30E944E169B017D
:101DBA00AC01C301B2010E94F9152B013C0123EACF
:101DCA0035E848E852E3C501B4010E944E169B016A
:101DDA00AC01C301B2010E94F915112361F0DC01C3
:101DEA00CB01B05888839983AA83BB838827992714
:101DFA008C199D0905C0688379838A839B83C601F0
:101E0A00DF91CF911F91FF90EF90DF90CF90BF901D
:101E1A00AF909F908F907F906F905F904F900895B2
:101E2A0010C00E940E1658F00E94071640F029F4BE
:101E3A005F3F29F00C94291651110C9416160C9434
:101E4A005B160E942F1368F39923B1F3552391F37C
:101E5A00951B550BBB27AA2762177307840738F00F
:101E6A009F5F5F4F220F331F441FAA1FA9F335D06C
:101E7A000E2E3AF0E0E832D091505040E695001C20
:101E8A00CAF72BD0FE2F29D0660F771F881FBB1FDA
:101E9A00261737074807AB07B0E809F0BB0B802DB8
:101EAA00BF01FF2793585F4F3AF09E3F510578F0E4
:101EBA000C9429160C9416165F3FE4F3983ED4F35B
:101ECA00869577956795B795F7959F5FC9F7880FB8
:101EDA00911D9695879597F90895E1E0660F771F0A
:101EEA00881FBB1F621773078407BA0720F0621B9B
:0E1EFA00730B840BBA0BEE1F88F7E09508956A
:101F08000FC00E94071638F00E940E1620F0952385
:101F180011F00C9429160C945B1611240C941616C7
:101F28000E942F1370F3959FC1F3950F50E0551F32
:101F3800629FF001729FBB27F00DB11D639FAA2716
:101F4800F00DB11DAA1F649F6627B00DA11D661F65
:101F5800829F2227B00DA11D621F739FB00DA11D86
:101F6800621F839FA00D611D221F749F3327A00D40
:101F7800611D231F849F600D211D822F762F6A2FDC
:101F880011249F5750409AF0F1F088234AF0EE0F41
:101F9800FF1FBB1F661F771F881F91505040A9F76E
:101FA8009E3F510580F00C9429160C9416165F3F3D
:101FB800E4F3983ED4F3869577956795B795F795AA
:101FC800E7959F5FC1F7FE2B880F911D9695879522
:041FD80097F90895D8
:101FDC0011C00E94071638F00E940E1620F039F43A
:101FEC009F3F19F426F40C945B160EF4E095E7FB76
:101FFC000C942916E92F0E942F1358F3BA17620775
:10200C0073078407950720F079F4A6F50C94151640
:10201C000EF4E0950B2EBA2FA02D0B01B9019001F7
:10202C000C01CA01A0011124FF27591B99F0593F3B
:10203C0050F4503E68F11A16F040A22F232F342F83
:10204C004427585FF3CF469537952795A795F040D1
:10205C005395C9F77EF41F16BA0B620B730B840BE6
:10206C00BAF09150A1F0FF0FBB1F661F771F881F9E
:10207C00C2F70EC0BA0F621F731F841F48F48795F6
:10208C0077956795B795F7959E3F08F0B0CF9395E8
:0E209C00880F08F09927EE0F97958795089505
:1020AA008091EA00882321F081E08093EC00089572
:1020BA001092EC002091ED00822F90E0FC01EE0FCF
:1020CA00FF1FEE0FFF1FEE0FFF1FE80FF91FE2576A
:1020DA00FF4F3081311111C02150822F90E0FC0155
:1020EA00EE0FFF1FEE0FFF1FEE0FFF1FE80FF91F86
:1020FA00E257FF4F3081332379F3AC01440F551F68
:10210A00440F551F440F551F480F591FDA01A25794
:10211A00BF4F1196ED91FC9112970280F381E02D49
:10212A001296FC93EE9311974F565F4FE417F507FB
:10213A0029F442815381FD0152834183FC01EE0F50
:10214A00FF1FEE0FFF1FEE0FFF1F8E0F9F1FFC01D9
:10215A00E257FF4F0180F281E02D868197819093AB
:0C216A00E9008093E8002093ED00089548
:102176000F920FB6F8940F921F9211242F923F924E
:102186004F925F926F927F928F929F92AF92BF9281
:10219600CF92DF92EF92FF920F931F932F933F936D
:1021A6004F935F936F937F938F939F93AF93BF9359
:1021B600CF93DF93EF93FF93A091E800B091E900EE
:1021C6000DB60D920EB60D920E94E00781110E9487
:1021D6005510A091E800B091E900CD91CDBFDD91F9
:1021E600DEBFFF91EF91DF91CF91BF91AF919F91AC
:1021F6008F917F916F915F914F913F912F911F9199
:102206000F91FF90EF90DF90CF90BF90AF909F908F
:102216008F907F906F905F904F903F902F901F9080
:082226000F900FBE0F90089508
:10222E000F931F93CF93DF93DB01109719F48FEF6A
:10223E009FEF3DC02D913C91119730FF25C0169612
:10224E004D915C91179714962D913C9115974217CD
:10225E00530778F41296ED91FC91139780831296A2
:10226E002D913C9113972F5F3F4F13963C932E93D6
:10227E00129716962D913C9117972F5F3F4F1796F9
:10228E003C932E93169713C01C96ED91FC911D97BF
:10229E00309769F2EB01092F182F0995892B39F622
:1022AE008E819F8101969F838E83812F902FDF9148
:0822BE00CF911F910F910895CB
:1022C600E89409C097FB3EF49095809570956195CA
:1022D6007F4F8F4F9F4F9923A9F0F92F96E9BB2780
:1022E6009395F695879577956795B795F111F8CFFC
:1022F600FAF4BB0F11F460FF1BC06F5F7F4F8F4F67
:102306009F4F16C0882311F096E911C0772321F05C
:102316009EE8872F762F05C0662371F096E8862FF4
:1023260070E060E02AF09A95660F771F881FDAF74B
:0A233600880F9695879597F9089592
:10234000A2E8B0E0E6EAF1E10C944C145C014A0129
:10235000CF57DF4F79836883C158D040C12CD12C2F
:10236000CF57DF4FE881F981C158D0408081882361
:10237000E9F07401860120E830E0AE014F5F5F4F65
:10238000BE016F577F4FC5010E94F9038C0D9D1D43
:102390008C159D054CF48FE490E090936100809340
:1023A00060008FEF9FEF03C06C01DACFC601CE57FC
:0823B000DF4FECE00C9468140F
:1023B800A0E1B0E0E2EEF1E10C945214FB01BA01A5
:1023C800AE014F5F5F4F7A0140E1D7011D924A95F8
:1023D800E9F742E051E05A8349839C838B83F7FFF6
:1023E80009C08FE490E090936100809360008FEFC4
:1023F8009FEF14C0A9018C013197FE83ED83C701BB
:102408000E947D144F8158852D813E8142175307C4
:1024180008F49A01F801E20FF31F10826096E6E0D3
:042428000C946E148E
:10242C00A0E0B0E0ECE1F2E10C944C146C015B0127
:10243C007A01E901480181E08822992400FD03C05A
:10244C004217530750F0A701B501C6010E940D14A5
:10245C00EC16FD0610F0C70117C08E010E191F09EE
:10246C000115110541F0B60180E290E00E941711B0
:10247C0001501109F5CF8114910429F4A701B5017C
:10248C00C6010E940D14CE01CDB7DEB7ECE00C9462
:02249C006814C2
:10249E001F93CF93DF93EC01862F142F0E943115DB
:1024AE008AE18A95F1F700C0BE01DD0F880B990B0A
:1024BE000E9465119B01AC0160E074E284E799E42F
:1024CE000E944A1620E030E040E85FE30E94F915D2
:1024DE000E940016CB010E9458168AE18A95F1F7E8
:1024EE0000C0812F0E94C3158AE18A95F1F700C0C2
:0C24FE000E946016DF91CF911F9108959D
:10250A000E94371388F09F5798F0B92F9927B7512F
:10251A00B0F0E1F0660F771F881F991F1AF0BA957D
:10252A00C9F714C0B13091F00E941516B1E00895B0
:10253A000C941516672F782F8827B85F39F0B93FA2
:10254A00CCF3869577956795B395D9F73EF4909530
:0E255A008095709561957F4F8F4F9F4F08952C
:10256800DC01ED91FC91119780818A3221F080E0A5
:1025780090E03AE00EC03196ED93FC93DB01ED91CB
:10258800FC911197CF0102968D939C938081918144
:102598000895ED91FC911197208120532A3068F419
:1025A800389FA001399F500D1124CA01820F911D37
:0C25B80031961196FC93EE93ECCF089541
:1025C4001F93CF93DF93C82F162FD42F0E94B313DA
:1025D4008FE39CE90197F1F700C00000DCBFC13034
:1025E40058F0C33038F0C33039F40E9442160E94C8
:1025F400461602C00E9446168FE19EE40197F1F749
:1026040000C00000812F0E949A15DF91CF911F9185
:02261400089527
:10261600990F0008550FAA0BE0E8FEEF16161706ED
:10262600E807F907C0F012161306E407F50798F055
:10263600621B730B840B950B39F40A2661F0232B6E
:10264600242B252B21F408950A2609F4A140A695EA
:082656008FEF811D811D089525
:10265E0057FD9058440F551F59F05F3F71F0479545
:10266E00880F97FB991F61F09F3F79F0879508952A
:10267E00121613061406551FF2CF4695F1DF08C049
:10268E00161617061806991FF1CF86957105610566
:04269E0008940895FF
:1026A200A1E21A2EAA1BBB1BFD010DC0AA1FBB1F54
:1026B200EE1FFF1FA217B307E407F50720F0A21BC6
:1026C200B30BE40BF50B661F771F881F991F1A9433
:1026D20069F760957095809590959B01AC01BD015D
:0426E200CF01089587
:1026E600CF93DF93EC0190E0E92FF0E0EE0FFF1FB0
:1026F600EE54FF4F8081811102C081810EC0A881F6
:10270600B9812C91821305C091811196B983A88352
:1027160001C09F5F9B3040F3892FDF91CF910895D1
:10272600FA0160387105CCF0623871051CF0633827
:10273600710599F4A081B1819D012C5F3F4F3183D2
:1027460020834D915D916D917C91FC014083518375
:102756006283738381E090E0089580E090E00895BD
:1027660093B7977B93BF95E39A95F1F70000813075
:1027760051F028F0823059F0833069F0089583B71C
:10278600877B83BF089583B7806483BF089583B72B
:0E279600886083BF089583B7886483BF089569
:1027A4001F93CF93DF93182FC4EAD4E8C6BF06B6AD
:1027B40007FEFDCF81B1887F8830C1F713B9D6BF3A
:1027C40006B607FEFDCF81B1887F883119F00E94DB
:0C27D4002316ECCFDF91CF911F910895E8
:1027E00094EA96BF06B607FEFDCF91B1987F90316F
:1027F00071F483B984E886BF06B607FEFDCF81B1C8
:10280000887F803431F0803231F083E0089580E0B9
:0A281000089581E0089582E0089524
:10281A00A0E0B0E0E3E1F4E10C9450146C01EB01A8
:10282A008A017B01E40EF51ECE15DF0541F0899180
:10283A00B601082E000C990B0E941711F5CFC8019A
:0A284A00CDB7DEB7E8E00C946C1483
:10285400E091E600F091E7008081811107C08FEFDD
:102864009FEF9093DF008093DE000895E091E600EF
:10287400F091E7000580F681E02D808191819093AD
:08288400DF008093DE000895DF
:10288C002F923F924F925F926F927F928F929F9274
:10289C00AF92BF92CF92DF92EF92FF920F931F9362
:1028AC00CF93DF93CDB7DEB7CA1BDB0B0FB6F89413
:0828BC00DEBF0FBECDBF099481
:1028C4002A88398848885F846E847D848C849B84BC
:1028D400AA84B984C884DF80EE80FD800C811B81CA
:1028E400AA81B981CE0FD11D0FB6F894DEBF0FBEF9
:0628F400CDBFED010895C7
:1028FA00A2E0B0E0E3E8F4E10C9454148C015A83AA
:10290A004983AE014F5F5F4F0E94A011F8012081F9
:10291A0024FF02C08FEF9FEF2296E4E00C9470141C
:10292A00052E97FB1EF400940E94D31557FD07D07D
:10293A000E94511307FC03D04EF40C94D315509502
:0E294A004095309521953F4F4F4F5F4F0895B8
:102958002FEF82E597E0215080409040E1F700C0DA
:10296800000087E00E94411580E00E94501588E031
:0C2978000E945F1580E10E946E1508951A
:10298400AA1BBB1B51E107C0AA1FBB1FA617B70791
:1029940010F0A61BB70B881F991F5A95A9F78095AD
:0829A4009095BC01CD010895DE
:1029AC0097FB072E16F4009407D077FD09D00E94F0
:1029BC00C21407FC05D03EF4909581959F4F089565
:0829CC00709561957F4F08959D
:1029D400FC010C961192119211921192108611869B
:1029E40012861386148A158A168A178AE817F90735
:0429F40089F70895C2
:1029F80083B984E886BF06B607FEFDCF81B1887F1C
:102A0800883221F0803321F082E0089580E0089533
:042A180081E00895BC
:102A1C00A0E0B0E0E4E1F5E10C945614AE01475FA0
:102A2C005F4F6F8178858D819E810E941C16E2E03C
:042A3C000C94721470
:102A4000092E0394000C11F4882352F0BB0F40F4BC
:102A5000BF2B11F460FF04C06F5F7F4F8F4F9F4FFC
:022A60000895D7
:102A6200882319F0813041F0089580B590B58068CF
:102A7200877F892B80BD089580B5886880BD0895C1
:102A8200CF93C82F80ED0E94D21389E10E94FC14DB
:0E2A92008C2F0E94FC140E942316CF910895F1
:102AA000CF93C82F80ED0E94D2138BE60E94FC14B6
:0E2AB0008C2F0E94FC140E942316CF910895D3
:102ABE00CF93C82F80ED0E94D2138BE10E94FC149D
:0E2ACE008C2F0E94FC140E942316CF910895B5
:102ADC00CF93C82F80ED0E94D2138CE10E94FC147E
:0E2AEC008C2F0E94FC140E942316CF91089597
:102AFA00CF93DF93EC018881882331F021960E94DD
:0E2B0A00CB1589918111FBCFDF91CF910895FA
:102B1800FC01AF014F5F5F4F2081222311F0FA01C2
:0C2B2800F8CF9F01281B390BC90108954C
:102B340093B7987F93BF95E39A95F1F7000093B705
:062B4400892B83BF0895F8
:102B4A00EC010E9467160E946616CE010E94681662
:062B5A00CE010E9464168A
:102B600080ED0E94D2138BE30E94FC1481ED0E9441
:042B7000F0130895C1
:102B7400FC01480F591FE417F50711F06193FBCFCF
:022B84000895B2
:102B86002AB138E0839FC0011124822B8AB90895A7
:102B9600CF93C82F5E980E945516CCB9CF91089551
:102BA60090958095709561957F4F8F4F9F4F0895B3
:102BB600FC01DB012D91BD0121932111FACF08956E
:102BC6009C01215431092A31310508F480620895A7
:0E2BD60084EC86BF06B607FEFDCF83B10895DE
:0E2BE40084E886BF06B607FEFDCF83B10895D4
:0E2BF2005058BB27AA270E94EE0F0C94201506
:0E2C00000E9485126894B1110C941616089566
:0E2C0E0000240A9416161706180609060895E3
:0E2C1C0000240A9412161306140605060895E5
:0E2C2A00E894BB2766277727CB0197F908951A
:0E2C38009A01AB016FEF7FE70E94DC11089557
:0C2C460084E986BF06B604FCFDCF0895AB
:0C2C520097F99F6780E870E060E008954B
:0A2C5E0008B601FEFDCF12BE089576
:0A2C68000E940B1308F48FEF08958B
:0A2C72000E940B1308F481E008959E
:082C7C0011B888E480B9089545
:082C840089B7816089BF089542
:082C8C0089B7826089BF089539
:082C94000E94150F0C9420159D
:082C9C000E94840F0C94201526
:062CA4000E94BB10189510
:062CAA005D9BFECF0895C2
:062CB00089B990BD0895F2
:062CB6009FEF80EC089581
:042CBC000C94000074
:042CC000579A089582
:042CC4009F77089559
:042CC8000E94610005
:022CCC00089569
:022CCE00089567
:022CD000089565
:102CD2005820416E676C653A20252E3266095920CC
:102CE200416E676C653A20252E3266095A20416E84
:0C2CF200676C653A20252E32660D0A0042
:102CFE0068076C094C836A9074A07AC0008068885B
:062D0E0000846C820081CC
:102D1400494E4600696E66004E414E006E616E007B
:062D2400286E696C290015
:00000001FF
