:100000000C9433000C9477150C9477150C94771599
:100010000C9477150C9477150C9477150C946B153C
:100020000C9477150C9477150C9477150C94771520
:100030000C9477150C9477150C9477150C94771510
:100040000C9477150C9477150C9477150C94771500
:100050000C9477150060008680008600B0002B04A9
:1000600000B000C0800011241FBECFE5D8E0DEBF85
:10007000CDBFE4E5F0E040E017C0B591A591359122
:100080002591059107FD0CC095918591EF01F92F00
:10009000E82F05900D92A217B307D9F7FE0104C00F
:1000A0001D92A217B307E1F7E536F40731F70E9476
:0A00B000BC0F0C94CB14F894FFCFA2
:1000BA00AEE0B0E0E3E6F0E00C9497134C016B017C
:1000CA001A8219828FEF9FEF9C838B831E821D8277
:1000DA0058874F833A872987A12CB12CD6016D9076
:1000EA007C90F301EA0DFB1D808181110FC0D601BE
:1000FA00ED93FC938081853209F0D3C13F01BFEFB4
:10010A006B1A7B0AF6017182608219C0853279F313
:10011A00B401082E000C990B0E9414104FEFA41A78
:10012A00B40ADCCF8C32ACF08D32F9F489819A8131
:10013A0081609A8389833196D601ED93FC93D60127
:10014A00ED91FC9180818B3269F789819A81846073
:10015A00F0CF803221F489819A818860EACF833294
:10016A0051F489819A818061E4CF803321F48981B5
:10017A009A818260DECFB701C6010E94F8119E8380
:10018A008D8397FF0BC029813A81B1E02B273A83EF
:10019A0029839195819591099E838D8389819A817D
:1001AA0080FF03C08D7F9A838983D601ED91FC91EC
:1001BA00119780818E3249F43196ED93FC93B70101
:1001CA00C6010E94F8119C838B83C6010E94E1122A
:1001DA00582ED601ED91FC918081082E000C990BC6
:1001EA000E940115893609F443C084F4833609F460
:1001FA0002C134F4853209F427C18136E1F030C1F5
:10020A008436B1F188360CF4D9C02AC1803709F492
:10021A009AC03CF48E3609F4BCC08F3609F461C02A
:10022A001FC1853709F440C0883709F476C083377F
:10023A0009F016C1F3C0652D70E0A701CE010B9637
:10024A000E940000892B09F426C1D601ED91FC9188
:10025A001197CF0101968D939C932081AE01455F42
:10026A005F4FBE016F5F7F4FC4010E94000010C143
:10027A00652D70E0970141E050E0CE010B960E9497
:10028A006D0D892B09F407C1F601808191810196D0
:10029A0091838083AE01455F5F4FBE016F5F7F4FE1
:1002AA00C4010E94B20BF4C0652D70E0970140E0D2
:1002BA0050E0CE010B960E946D0D892B09F4EBC01C
:1002CA00D6018D919C91119701968D939C93AE01C5
:1002DA00455F5F4FBE016F5F7F4FC4010E94601090
:1002EA00D7C0652D70E0970140E050E0CE010B9633
:1002FA000E946D0D892B09F4CEC0F601808191818F
:10030A00019691838083AE01455F5F4FBE016F5FA7
:10031A007F4FC4010E94630FBBC0652D70E0970137
:10032A0040E050E0CE010B960E946D0D892B09F436
:10033A00B2C0D601ED91FC911197CF0101968D9330
:10034A009C9320811CC0970140E050E060EF70E070
:10035A00CE010B960E946D0D892B09F49CC0F60103
:10036A00808191810196918380838B859C85892BDD
:10037A0029F420E030E04AEA50E084C028E7AE01E0
:10038A00455F5F4FBE016F5F7F4FC4010E947206D7
:10039A007FC0A501400F511F652D70E09701CE0166
:1003AA000B960E940000892B09F475C0D6018D9125
:1003BA009C91119701968D939C9373C0652D70E063
:1003CA00A701CE010B960E940000892B09F463C095
:1003DA00D601ED91FC911197CF0101968D939C93D3
:1003EA002081AE01455F5F4FBE016F5F7F4FC40141
:1003FA000E9400004DC0B0E85B124DC0F60180813A
:10040A009181019691838083D701ED91FC91119797
:10041A00CF0102968D939C93808120C0B0E85B1235
:10042A003AC0F60180819181019691838083D70138
:10043A00ED91FC911197CF0102968D939C93408187
:10044A00518120E030E01EC0B0E85B1224C0F60102
:10045A00208131812F5F3F4F318320838B870DC0ED
:10046A0085E28B87D6016D927C921A8219821E824E
:10047A001D828FEF9FEF9C838B8321E030E0AE01DA
:10048A00455F5F4FBE016F5F7F4FC4010E94261216
:10049A008A0D9B1D07C0F601808191810196918387
:0C04AA008083C5012E96EFE00C94B31384
:1004B6004F925F926F927F928F929F92AF92BF926E
:1004C600CF92DF92EF92FF920F931F93CF93DF931A
:1004D600CDB7DEB762970FB6F894DEBF0FBECDBFBD
:1004E6009A8B898B8B017A016901F9012481358107
:1004F60046815781F70164817581868197810E94C3
:1005060017152B013C01F60120853185428553855F
:10051600F70160857185828593850E941715698725
:100526007A878B879C87F6012081318142815381AE
:10053600F70160817181828193810E94171520E005
:100546003CED4FE757E40E946315E989FA89248553
:100556003585468557850E9418154B015C01E9894A
:10056600FA89648775878687978720E03CED4FE791
:1005760057E4C301B2010E946315E989FA8920890B
:100586003189428953890E9418152B013C01E9895A
:10059600FA89608B718B828B938B23EC3BEF4EE851
:1005A60054E3F70160857185828593850E946715FE
:1005B6000E948B096B017C019B01AC01C501B40152
:1005C6000E946715A30192010E9418159B01AC01B8
:1005D600E989FA89608B718B828B938BC701B6018F
:1005E6000E9467159B01AC01C501B4010E94171555
:1005F600E989FA896487758786879787F8018080F5
:100606009180A280B3804480558066807780C084C4
:10061600D184E284F384A5019401C501B4010E944A
:10062600671569837A838B839C83A3019201C30137
:10063600B2010E9467156D837E838F8398879B0125
:10064600AC0169817A818B819C810E9418156D8726
:100656007E878F87988B2D813E814F815885698152
:100666007A818B819C810E94181569837A838B839A
:100676009C83A7019601C701B6010E9467159B01DD
:10068600AC0169817A818B819C810E9418150E9438
:1006960060076B017C01A50194015F770E945215EA
:1006A6001816A4F4A7019601C301B2010E946315AE
:1006B6000E94630523EA3CE445E652E40E9467157E
:1006C600E989FA89608F718F828F938FF80184810F
:1006D6009581A681B7819C01AD015F77C701B601FF
:1006E6000E9452151816BCF4A7019601F801608104
:1006F6007181828193810E9463150E94630523EABA
:100706003CE445E652E40E946715E989FA89648F5C
:10071600758F868F978F2FE832EC45E75FE3E9897F
:10072600FA8964857585868597850E9467156B01AC
:100736007C012AE037ED43E25DE3E989FA89608DC1
:10074600718D828D938D0E9467159B01AC01C70147
:10075600B6010E9418154B015C01E989FA89648784
:100766007587868797872FE832EC45E75FE36089D0
:100776007189828993890E9467156B017C012AE041
:1007860037ED43E25DE3E989FA89648D758D868DDF
:10079600978D0E9467159B01AC01C701B6010E94A7
:1007A60018156B017C01E989FA89608B718B828B44
:1007B600938B23E333E343E35FE3608171818281BB
:1007C60093810E9467152B013C012AE939E949E921
:1007D6005EE3C501B4010E9467159B01AC01C3012C
:1007E600B2010E941815E989FA89608371838283B0
:1007F600938323E333E343E35FE364817581868177
:1008060097810E9467154B015C012AE939E949E99C
:100816005EE3C701B6010E9467159B01AC01C501E5
:10082600B4010E941815E989FA8964837583868361
:10083600978369857A858B859C85905820E030E082
:1008460043E852E40E946315E989FA896087718753
:100856008287938762960FB6F894DEBF0FBECDBF30
:10086600DF91CF911F910F91FF90EF90DF90CF9086
:10087600BF90AF909F908F907F906F905F904F90BA
:020886000895D3
:10088800EF92FF920F931F93CF93DF938091BC0059
:10089800811104C1C091B400D091B5007E018FEFE1
:1008A800E81AF80AF092B500E092B400E114F104F5
:1008B800B9F48091B8009091B9002091B6003091B8
:1008C800B7003093B9002093B8009093B700809395
:1008D800B6008091BD008F5F8093BD000E947813A1
:1008E8008091B0009091B100E816F90610F480E00C
:1008F800B9C080E061E0E091B800F091B900908162
:10090800911107C02FEF3FEF3093B1002093B00053
:10091800A9C0E091B800F091B9000580F681E02DFA
:100928000680F781E02D22813381E216F30628F450
:100938003093B1002093B00095C0A285B38524817F
:10094800358146815781E9015D834C832681378152
:1009580044815581E9015B834A83AF014E5F5F4F54
:1009680011962D913C9112972417350731F4268161
:10097800378112963C932E931197138612869C9179
:1009880091509C93A489B589109719F126853785CC
:1009980000891189E9011D830C8320893189068525
:1009A8001785E9011B830A8311960D911C911297F3
:1009B8009F01245F3F4F0217130731F420893189C3
:1009C80012963C932E931197158A148A9C919150F4
:1009D8009C9326899091BF00921710F42093BF0032
:1009E80030E0D901AA0FBB1FAA0FBB1FAA0FBB1F5C
:1009F8002A0F3B1FD901AE59BF4F11960D90BC91DC
:100A0800A02DB583A48314962D913C911597378317
:100A1800268314962D913C911597E9015B834A83AF
:100A280015965C934E931497A689B0E09D01220F0A
:100A3800331F220F331F220F331FA20FB31FAE59CC
:100A4800BF4FB387A2879C919F5F9C93A091BA00E8
:100A5800B091BB00268956969C91921708F04BCF0F
:100A6800862F49CFE091BA00F091BB00268930E08B
:100A7800F901EE0FFF1FEE0FFF1FEE0FFF1F2E0FE6
:100A88003F1FF901EE59FF4F9081923008F081E045
:100A98009091BE00992361F081E00AC08091B20074
:100AA8009091B30001969093B3008093B20080E0D8
:0E0AB800DF91CF911F910F91FF90EF90089565
:100AC6004F925F926F927F928F929F92AF92BF9258
:100AD600CF92DF92EF92FF92CF93DF9300D000D0B8
:100AE600CDB7DEB76B017C0169837A838B839C83E8
:100AF600DC01CB01BF77009720E8A2072FE3B207FE
:100B060028F10097A048BF4369F42BED3FE049EC7C
:100B16005FE3C701B6010E94671520E030E040E8B8
:100B260053E05FC081E290E09093610080936000A3
:100B3600A7019601C701B6010E9417159B01AC01DA
:100B460060E070E0CB010E946315B6C00097A10576
:100B56004FE3B40708F048C0A058B1090097A105B3
:100B6600B94308F4A7C0A7019601C701B6010E94C0
:100B760067154B015C012BE633ED4DE05CEB0E9403
:100B860067152AEB33E14FE25DE30E941715A501D5
:100B960094010E94671525E73AEA4AE25EE30E945D
:100BA6001815A50194010E9467152B013C012EEA38
:100BB60035EE44E35FEBC501B4010E94671520E002
:100BC60030E040E85FE30E9418159B01AC01C301C9
:100BD600B2010E946315A70196010E946715A7013D
:100BE60096010E94181568C0C701B6010E947B15C0
:100BF6009B01AC0160E070E080E89FE30E9417155E
:100C060020E030E040E05FE30E9467156B017C0165
:100C16000E9460074B015C012BE633ED4DE05CEB77
:100C2600C701B6010E9467152AEB33E14FE25DE387
:100C36000E941715A70196010E94671525E73AEA53
:100C46004AE25EE30E941815A70196010E94671505
:100C56002B013C012EEA35EE44E35FEBC701B601FA
:100C66000E94671520E030E040E85FE30E94181517
:100C76009B01AC01C301B2010E946315A501940159
:100C86000E946715A50194010E9418159B01AC01ED
:100C96000E9418159B01AC016BED7FE089EC9FE388
:100CA6000E94171529813A814B815C8157FF04C048
:100CB600905802C0C701B6010F900F900F900F9089
:100CC600DF91CF91FF90EF90DF90CF90BF90AF90E4
:0E0CD6009F908F907F906F905F904F90089549
:100CE400AFE0B0E0E8E7F6E00C9494131C016B016C
:100CF4005A8349832B83FB0182819381848095806D
:100D040000811181A680B78097FD02C00D7F02C0CB
:100D140081E090E0E981FA814080518062807380B3
:100D24009801207133273D832C83740104FF08C08C
:100D3400411451046104710419F032E0E31AF1081A
:100D4400F801E870FF27FF83EE8303FF03C0F1E09F
:100D5400EF1AF108F6010084F185E02D3197FF8741
:100D6400EE87EA0DFB1D10829C012E193F0939877D
:100D74002887C801827099279B878A87EB818E2FE9
:100D8400EE0F990B9C01215431093D872C872E8548
:100D94003F852230310530F48C819D81892B09F007
:100DA40042C05CC0411451046104710461F18E8538
:100DB4009F8501979F878E87C2018F7099278A30FC
:100DC400910514F4C09602C0895A9F4FEC85FD85A5
:100DD4007A9748F49C012062215631092A31310561
:100DE40010F40E94E014EE85FF85EA0DFB1D80835C
:100DF400F1E0EF1AF10884E07694679457944794ED
:100E04008A95D1F7C4CF888599858E0D9F1D1816B4
:100E140019066CF21E141F040CF0BECFEA85FB8584
:100E2400EF2B29F6B9CFE981FA8180819181A281E2
:100E3400B381892B8A2B8B2B89F0EE85FF85EA0DF4
:100E4400FB1D31972B8120838E859F8502979F8779
:100E54008E87FC01EA0DFB1D80E38083EE81FF8118
:100E6400EF2B59F02E853F85215031093F872E877E
:100E7400F901EA0DFB1D80E28083F601408551856E
:100E8400415051092E853F85421B530BB9016A0D10
:100E94007B1D9401C1010E945A119C01F1018081C2
:100EA400918190FF06C0F601828193818217930796
:0C0EB4000CF4C9012F96E2E10C94B0137D
:100EC000A4E0B0E0E6E6F7E00C9496138B019C01F9
:100ED000AC0140785F776B017C0140385F4761F47B
:100EE000E894E7F8FF24C114D104E104F10409F007
:100EF000ACC097FDAAC0AEC0E894F7F8C114D10405
:100F0000E104F10409F4A6C097FF07C081E290E074
:100F1000909361008093600098C0DC01CB0167E191
:100F2000B595A795979587956A95D1F70097A105EF
:100F3000B105B9F480E090E0DC0127FD08C0000FA6
:100F4000111F221F331F0196A11DB11DF6CF01975E
:100F5000A109B109B095A095909581959F4FAF4F8C
:100F6000BF4F8F579109A109B1092F773327206807
:100F700080FF04C0000F111F221F331FAC01BD01F1
:100F8000759567955795479549835A836B837C83FD
:100F9000000F111F221F331F49E150E0812C912CBB
:100FA0005401B394C12CD12C760180E090E0DC0197
:100FB0002C013D01480C591C6A1C7B1C04151505AD
:100FC0002605370574F0D301C201880D991DAA1DAD
:100FD000BB1D0419150926093709C80CD91CEA1CC0
:100FE000FB1C000F111F221F331FB694A794979468
:100FF000879441505109E1F601151105210531058C
:1010000051F0970186010170112722273327C00E66
:10101000D11EE21EF31EF594E794D794C79451ECC9
:10102000F51A89819A81AB81BC8127E1880F991FCC
:10103000AA1FBB1F2A95D1F78C0D9D1DAE1DBF1D8C
:10104000482F392F2A2F5B2F09C040E030E020ECD9
:101050005FE704C0462F372F282F592F642F732F97
:0C106000822F952F2496E0E10C94B2132F
:10106C002F923F924F925F926F927F928F929F92AC
:10107C00AF92BF92CF92DF92EF92FF920F931F939A
:10108C00CF93DF93CDB7DEB768970FB6F894DEBF7A
:10109C000FBECDBF1C0100ED17E0412C512C3201CD
:1010AC00812C912C5401C12CD12C7601BE016F5F87
:1010BC007F4FCE010D960E94320AC301B2010E94ED
:1010CC00A91029813A814B815C810E9418150E94DC
:1010DC001E152B013C01C501B4010E94A9102D81E4
:1010EC003E814F8158850E9418150E941E154B0198
:1010FC005C01C701B6010E94A91029853A854B8570
:10110C005C850E9418150E941E156B017C018FEDE9
:10111C009EE20197F1F700C000000150110931F671
:10112C00C301B20120ED37E040E050E00E94E31330
:10113C00CA01B9010E94A910F101608371838283F5
:10114C009383C501B40120ED37E040E050E00E94EC
:10115C00E313CA01B9010E94A910F10164837583DC
:10116C0086839783C701B60120ED37E040E050E05D
:10117C000E94E313CA01B9010E94A910F101608712
:10118C0071878287938768960FB6F894DEBF0FBE7F
:10119C00CDBFDF91CF911F910F91FF90EF90DF901A
:1011AC00CF90BF90AF909F908F907F906F905F90FB
:0811BC004F903F902F90089521
:1011C4004F925F926F927F928F929F92AF92BF9253
:1011D400CF92DF92EF92FF921F93CF93DF9300D0D1
:1011E40000D000D0CDB7DEB76D837E83DC014D9097
:1011F4005D906D907C90139753014201E894B7F889
:101204001496CD90DD90ED90FC901797D701C60110
:10121400BF7789839A83AB83BC839C01AD01C501ED
:10122400B4010E9452151816FCF420E030E0A90124
:10123400C301B2010E945215181614F013E501C03F
:1012440017E520E030E04FE753E4C501B4010E9404
:10125400671520E030E044EB52E40E9463150E94DD
:101264001E15362F272F20C020E030E0A901C7012A
:10127400B6010E945215181614F011E401C014E4CA
:1012840020E030E04FE753E469817A818B819C81CF
:101294000E94671520E030E044EB52E40E9463159D
:1012A4000E941E15362F272F832F922F992314F473
:1012B40080E090E08F3F910519F014F08FEF90E0FB
:1012C4009F938F931F921F938CE990E09F938F932A
:1012D4009E819F93AD81AF930E9434140FB6F8940E
:1012E400DEBF0FBECDBF26960FB6F894DEBF0FBE8D
:1012F400CDBFDF91CF911F91FF90EF90DF90CF9002
:10130400BF90AF909F908F907F906F905F904F9021
:0213140008953A
:10131600A4E0B0E0E1E9F9E00C949E138B019C0196
:101326003F770B3D4FE0140749E424074FE33407AA
:1013360048F40115110540E8240749E3340708F489
:101346008AC07BC06B017C01CC24F7FCC394DD24EE
:10135600EE24FF24023D43E514074BE7240740E44F
:10136600340708F5043E4BEC140746E1240740E435
:10137600340760F42BED3FE049EC5FE3CC2019F035
:101386000E94181560C00E9417155AC02BED3FE049
:1013960049E450E4CC2019F00E94181502C00E94BE
:1013A600171590584AC0063D41E3140742EE24073C
:1013B60040E4340700F5003E4DEE14074FEA2407DB
:1013C60040E4340760F424EE3BEC46E950E4CC20DC
:1013D60019F00E94181534C00E94171534C02BED61
:1013E6003FE049EC50E4CC2019F00E94181525C0C6
:1013F6000E94171522C00115110540E824074FE782
:10140600340728F5AE014F5F5F4F0E94240C282F4A
:10141600237069817A818B819C81213089F048F023
:10142600223089F4DC01CB01B05889839A83AB83DF
:10143600BC8369817A818B819C810E94C20A0BC020
:101446000E943B0B08C00E943B0B905804C06FEFF4
:0E1456007FEF8FEF9FE72496E8E00C94BA1327
:10146400FF920F931F93CF93DF938C01EB010E94A4
:10147400D6140E940915F82E0E9409156F2D70E0EC
:10148400762F6627682B072E000C880B990B0E9479
:10149400A910F80160837183828393830E940915E4
:1014A400F82E0E9409156F2D70E0762F6627682BA1
:1014B400072E000C880B990B0E94A910F801648375
:1014C4007583868397830E940915F82E0E94091557
:1014D4006F2D70E0762F6627682B072E000C880B83
:1014E400990B0E94A910F8016087718782879387FE
:1014F4000E9409150E9409150E940915182F0E94BF
:101504000915612F70E0762F6627682B072E000CD3
:10151400880B990B0E94A910688379838A839B8323
:101524000E940915182F0E940915612F70E0762F6B
:101534006627682B072E000C880B990B0E94A910B4
:101544006C837D838E839F830E940915182F0E94CC
:101554001015612F70E0762F6627682B072E000C7C
:10156400880B990B0E94A910688779878A879B87C3
:101574000E944115DF91CF911F910F91FF90089523
:101584004F925F926F927F928F929F92AF92BF928F
:10159400CF92DF92EF92FF92CF93DF9300D000D0EF
:1015A400CDB7DEB74B015C019B01AC010E9467150E
:1015B4006B017C019B01AC01C501B4010E9467155C
:1015C40069837A838B839C832CE33CE646E356E36E
:1015D400C701B6010E9467152FEC37E040E559E3D7
:1015E4000E9417152B013C01A7019601C701B60102
:1015F4000E94671529813A814B815C810E9467159D
:101604009B01AC01C301B2010E9467152B013C018F
:1016140024E838E848E05CE3C701B6010E94671596
:101624002BEA3AEA4AE25EE30E94171529813A81DD
:101634004B815C810E946715A50194010E941815D5
:101644009B01AC01C301B2010E9418150F900F90C9
:101654000F900F90DF91CF91FF90EF90DF90CF909C
:10166400BF90AF909F908F907F906F905F904F90BE
:021674000895D7
:101676004F925F926F927F928F929F92AF92BF929C
:10168600CF92DF92EF92FF92CF93DF9300D000D0FC
:10169600CDB7DEB79B01AC010E9467156B017C01DB
:1016A6009B01AC010E9467152B013C0120E030E054
:1016B60040E05FEBC701B6010E94671520E030E00D
:1016C60040E85FE30E9418154B015C012FE93AEAF6
:1016D6004AE25DE3C301B2010E9467159B01AC01BA
:1016E600C501B4010E9418154B015C0127E13AE9D6
:1016F6004CEC57E3C701B6010E9467152FE334E0AF
:1017060046EB5AE30E94171569837A838B839C8381
:10171600A3019201C701B6010E9467159B01AC01A6
:1017260069817A818B819C810E9467159B01AC013E
:10173600C501B4010E9418150F900F900F900F90DD
:10174600DF91CF91FF90EF90DF90CF90BF90AF9059
:0E1756009F908F907F906F905F904F900895BE
:10176400A2E0B0E0E8EBFBE00C9494133C016B01C5
:10177400FB0122813381A480B580808191819A8389
:10178400898386809780FA0120803180428053804B
:10179400B201A10157FE07C044275527BA014219D7
:1017A40053096409750937FD03C08D7F9A838983C2
:1017B400950157FC05C0898182FD02C083FF02C0E8
:1017C40021503109CE0101967C010AE010E0C601E6
:1017D4000E94A20E57FC03C0298122FF0AC0019770
:1017E400F401E80FF91F57FC02C02BE209C02DE2F7
:1017F40007C023FF06C00197F401E80FF91F20E298
:10180400208309811A81F60140855185415051098F
:10181400481B590BB401680F791F9501C3010E943D
:101824005A119C01F3018081918190FF06C0F60159
:1018340082819381821793070CF4C9012296E2E115
:041844000C94B0133D
:101848004F925F926F927F928F929F92AF92BF92C8
:10185800CF92DF92EF92FF921F93CF93DF93EA012B
:101868006B017C01CC24F7FCC394DD24EE24FF2417
:101878001C2D0E947B152B013C0123E839EF42E225
:101888005FE30E94671520E030E040E05FE30E94DC
:1018980018150E941E156B017C010E94A9104B01AE
:1018A8005C012AED3FE049EC5FE30E9467159B016C
:1018B800AC01C301B2010E9417152B013C0123EAB8
:1018C80035E848E852E3C501B4010E9467159B0159
:1018D800AC01C301B2010E941715112361F0DC01AC
:1018E800CB01B05888839983AA83BB83882799271B
:1018F8008C199D0905C0688379838A839B83C601F7
:10190800DF91CF911F91FF90EF90DF90CF90BF9024
:10191800AF909F908F907F906F905F904F900895B9
:1019280010C00E942C1558F00E94251540F029F48B
:101938005F3F29F00C94471551110C9434150C9401
:1019480074150E949D1268F39923B1F3552391F3FE
:10195800951B550BBB27AA2762177307840738F016
:101968009F5F5F4F220F331F441FAA1FA9F335D073
:101978000E2E3AF0E0E832D091505040E695001C27
:10198800CAF72BD0FE2F29D0660F771F881FBB1FE1
:10199800261737074807AB07B0E809F0BB0B802DBF
:1019A800BF01FF2793585F4F3AF09E3F510578F0EB
:1019B8000C9447150C9434155F3FE4F3983ED4F328
:1019C800869577956795B795F7959F5FC9F7880FBF
:1019D800911D9695879597F90895E1E0660F771F11
:1019E800881FBB1F621773078407BA0720F0621BA2
:0E19F800730B840BBA0BEE1F88F7E095089571
:101A06000FC00E94251538F00E942C1520F0952352
:101A160011F00C9447150C94741511240C9434157C
:101A26000E949D1270F3959FC1F3950F50E0551FCC
:101A3600629FF001729FBB27F00DB11D639FAA271D
:101A4600F00DB11DAA1F649F6627B00DA11D661F6C
:101A5600829F2227B00DA11D621F739FB00DA11D8D
:101A6600621F839FA00D611D221F749F3327A00D47
:101A7600611D231F849F600D211D822F762F6A2FE3
:101A860011249F5750409AF0F1F088234AF0EE0F48
:101A9600FF1FBB1F661F771F881F91505040A9F775
:101AA6009E3F510580F00C9447150C9434155F3F0A
:101AB600E4F3983ED4F3869577956795B795F795B1
:101AC600E7959F5FC1F7FE2B880F911D9695879529
:041AD60097F90895DF
:101ADA00CF93DF93DC01F90168387105F1F05CF40A
:101AEA006138710561F164387105A1F160387105D9
:101AFA0009F051C02FC0603C710509F441C0603F34
:101B0A007105F1F1603A710509F045C0C081D181D2
:101B1A00CE0102969183808325C0C081D181CE01F6
:101B2A00029691838083452B39F04881042E000C5C
:101B3A00550B660B770B1CC0488150E029C0C08149
:101B4A00D181CE01049691838083488159816A812B
:101B5A007B810EC0C081D181CE01029691838083A0
:101B6A00452BA1F048815981052E000C660B770B95
:101B7A004D935D936D937C93139781E090E00DC034
:101B8A00C081D181CE010296918380834881598197
:101B9A0060E070E0EDCF80E090E0DF91CF910895B2
:101BAA0011C00E94251538F00E942C1520F039F436
:101BBA009F3F19F426F40C9474150EF4E095E7FB94
:101BCA000C944715E92F0E949D1258F3BA17620721
:101BDA0073078407950720F079F4A6F50C9433155A
:101BEA000EF4E0950B2EBA2FA02D0B01B90190012E
:101BFA000C01CA01A0011124FF27591B99F0593F72
:101C0A0050F4503E68F11A16F040A22F232F342FB9
:101C1A004427585FF3CF469537952795A795F04007
:101C2A005395C9F77EF41F16BA0B620B730B840B1C
:101C3A00BAF09150A1F0FF0FBB1F661F771F881FD4
:101C4A00C2F70EC0BA0F621F731F841F48F487952C
:101C5A0077956795B795F7959E3F08F0B0CF93951E
:0E1C6A00880F08F09927EE0F9795879508953B
:101C78008091BC00882321F081E08093BE00089504
:101C88001092BE002091BF00822F90E0FC01EE0F61
:101C9800FF1FEE0FFF1FEE0FFF1FE80FF91FEE5992
:101CA800FF4F3081311111C02150822F90E0FC018B
:101CB800EE0FFF1FEE0FFF1FEE0FFF1FE80FF91FBC
:101CC800EE59FF4F3081332379F3AC01440F551F90
:101CD800440F551F440F551F480F591FDA01AE59BD
:101CE800BF4F1196ED91FC9112970280F381E02D80
:101CF8001296FC93EE9311974B595F4FE417F50733
:101D080029F442815381FD0152834183FC01EE0F86
:101D1800FF1FEE0FFF1FEE0FFF1F8E0F9F1FFC010F
:101D2800EE59FF4F0180F281E02D868197819093D3
:0C1D3800BB008093BA002093BF00089508
:101D4400A0E0B0E0E8EAFEE00C949613DC01280180
:101D54001696AD90BC901797F701808191811296E9
:101D6400ED91FC9113971896CD91DC9119972197D9
:101D7400F7FF02C0E1E0F0E0CA0DDB1D1882690143
:101D8400A1E0B0E08F01021B130B4C01F2E08F22A3
:101D94009924052C000C66087708CE018A199B0942
:101DA400CA15DB0519F1411551056105710589F065
:101DB400CB01BA01A30192010E94BF12CA01A62F4E
:101DC400B72F605D6A9341E0C41AD108A901BC0130
:101DD400E4CF98012C0D3D1D121613064CF31C1470
:101DE4001D0434F48114910419F702C080E090E0DA
:101DF400AB2B31F4F701208131812F7E3183208395
:0A1E0400CDB7DEB7E0E10C94B21395
:101E0E000F920FB6F8940F921F9211242F923F92B9
:101E1E004F925F926F927F928F929F92AF92BF92EC
:101E2E00CF92DF92EF92FF920F931F932F933F93D8
:101E3E004F935F936F937F938F939F93AF93BF93C4
:101E4E00CF93DF93EF93FF93A091BA00B091BB00B5
:101E5E000DB60D920EB60D920E94440481110E9491
:101E6E003C0EA091BA00B091BB00CD91CDBFDD91DB
:101E7E00DEBFFF91EF91DF91CF91BF91AF919F9117
:101E8E008F917F916F915F914F913F912F911F9104
:101E9E000F91FF90EF90DF90CF90BF90AF909F90FB
:101EAE008F907F906F905F904F903F902F901F90EC
:081EBE000F900FBE0F90089574
:101EC600A2E0B0E0E9E6FFE00C9498134C016B0148
:101ED600FB012281338164807580808191819A83A0
:101EE6008983A680B78037FD03C08D7F9A83898357
:101EF600FA014081518162817381CE0101967C0194
:101F060008E010E09301C6010E94A20E298124FF79
:101F160006C00197F501E80FF91F20E32083298108
:101F260023FF06C00197F501E80FF91F20E2208381
:101F360009811A81F6014085518541505109481B96
:101F4600590BB501680F791F9301C4010E945A11FC
:101F56009C01F4018081918190FF06C0F601828187
:101F66009381821793070CF4C9012296EEE00C9434
:021F7600B413A2
:101F7800CF93DF93CDB7DEB7C755D1090FB6F89425
:101F8800DEBF0FBECDBF41E060E080E895E20E9471
:101F980093110E9457158CE0FE013196DF01982FAE
:101FA8001D929A95E9F73C96DF01982F1D929A9514
:101FB800E9F78E01075E1F4FD8011D928A95E9F750
:101FC800CE01C4960E9410140E94FA13C8010E9400
:101FD80036084CE763E082E00E945012BE01635F5E
:101FE8007F4FCE0101960E94320A9E01275E3F4F25
:101FF800AE01435F5F4FBE016F5F7F4FCE01C49656
:102008000E945B02BE016B5D7F4FCE01C4960E94A9
:10201800E208CE0185960E94A3140E944D15DECFDA
:102028000F931F93CF93DF93DB01109719F48FEF72
:102038009FEF3DC02D913C91119730FF25C016961A
:102048004D915C91179714962D913C9115974217D5
:10205800530778F41296ED91FC91139780831296AA
:102068002D913C9113972F5F3F4F13963C932E93DE
:10207800129716962D913C9117972F5F3F4F179601
:102088003C932E93169713C01C96ED91FC911D97C7
:10209800309769F2EB01092F182F0995892B39F62A
:1020A8008E819F8101969F838E83812F902FDF9150
:0820B800CF911F910F910895D3
:1020C000A2E0B0E0E6E6F0E10C9498135C016B014D
:1020D000FB012281338184809580808191819A8364
:1020E00089836680778037FD03C08D7F9A838983DB
:1020F000FA014081518162817381CE0101967C0198
:102100000AE010E09401C6010E94A20E09811A8122
:10211000F6014085518541505109481B590BB301C7
:10212000680F791F9401C5010E945A119C01F501A5
:102130008081918190FF06C0F60182819381821790
:0E21400093070CF4C9012296EEE00C94B41340
:10214E00E89409C097FB3EF4909580957095619543
:10215E007F4F8F4F9F4F9923A9F0F92F96E9BB27F9
:10216E009395F695879577956795B795F111F8CF75
:10217E00FAF4BB0F11F460FF1BC06F5F7F4F8F4FE0
:10218E009F4F16C0882311F096E911C0772321F0D6
:10219E009EE8872F762F05C0662371F096E8862F6E
:1021AE0070E060E02AF09A95660F771F881FDAF7C5
:0A21BE00880F9695879597F908950C
:1021C800A2E8B0E0EAEEF0E10C949A135C014A014F
:1021D800CF57DF4F79836883C158D040C12CD12CA9
:1021E800CF57DF4FE881F981C158D04080818823DB
:1021F800E9F07401860120E830E0AE014F5F5F4FDF
:10220800BE016F577F4FC5010E945D008C0D9D1D5B
:102218008C159D054CF48FE490E0909361008093B9
:1022280060008FEF9FEF03C06C01DACFC601CE5775
:08223800DF4FECE00C94B6133B
:10224000A0E1B0E0E6E2F1E10C94A013FB01BA01D9
:10225000AE014F5F5F4F7A0140E1D7011D924A9571
:10226000E9F742E051E05A8349839C838B83F7FF6F
:1022700009C08FE490E090936100809360008FEF3D
:102280009FEF14C0A9018C013197FE83ED83C70134
:102290000E94CB134F8158852D813E8142175307F1
:1022A00008F49A01F801E20FF31F10826096E6E04D
:0422B0000C94BC13BB
:1022B400A0E0B0E0E0E6F1E10C949A136C015B015C
:1022C4007A01E901480181E08822992400FD03C0D4
:1022D4004217530750F0A701B501C6010E945B13D2
:1022E400EC16FD0610F0C70117C08E010E191F0968
:1022F4000115110541F0B60180E290E00E9414102E
:1023040001501109F5CF8114910429F4A701B501F5
:10231400C6010E945B13CE01CDB7DEB7ECE00C948E
:02232400B613EE
:102326001F93CF93DF93EC01862F142F0E9457142F
:102336008AE18A95F1F700C0BE01DD0F880B990B83
:102346000E94A9109B01AC0160E074E284E799E465
:102356000E94631520E030E040E85FE30E94171515
:102366000E941E15CB010E9471158AE18A95F1F72C
:1023760000C0812F0E94E9148AE18A95F1F700C016
:0C2386000E947915DF91CF911F910895FE
:102392000E94A51288F09F5798F0B92F9927B7513C
:1023A200B0F0E1F0660F771F881F991F1AF0BA95F7
:1023B200C9F714C0B13091F00E943315B1E008950D
:1023C2000C943315672F782F8827B85F39F0B93FFF
:1023D200CCF3869577956795B395D9F73EF49095AA
:0E23E2008095709561957F4F8F4F9F4F0895A6
:1023F000DC01ED91FC91119780818A3221F080E01F
:1024000090E03AE00EC03196ED93FC93DB01ED9144
:10241000FC911197CF0102968D939C9380819181BD
:102420000895ED91FC911197208120532A3068F492
:10243000389FA001399F500D1124CA01820F911DB0
:0C24400031961196FC93EE93ECCF0895BA
:10244C00A0E0B0E0ECE2F2E10C949C137C01FB0107
:10245C00EA01C901A280B380C480D58000811181BA
:10246C00209711F4C3EAD0E0009719F4CE010E9432
:10247C00B214B7FC04C0A816B90608F4C50196013D
:10248C00AC01BE01C7010E945A11CDB7DEB7EAE01C
:04249C000C94B813D1
:1024A0001F93CF93DF93C82F162FD42F0E940113B1
:1024B0008FE39CE90197F1F700C00000DCBFC13059
:1024C00058F0C33038F0C33039F40E945B150E94D5
:1024D0005F1502C00E945F158FE19EE40197F1F73E
:1024E00000C00000812F0E94C014DF91CF911F9186
:0224F00008954D
:1024F200990F0008550FAA0BE0E8FEEF1616170613
:10250200E807F907C0F012161306E407F50798F07A
:10251200621B730B840B950B39F40A2661F0232B93
:10252200242B252B21F408950A2609F4A140A6950F
:082532008FEF811D811D08954A
:10253A0057FD9058440F551F59F05F3F71F047956A
:10254A00880F97FB991F61F09F3F79F0879508954F
:10255A00121613061406551FF2CF4695F1DF08C06E
:10256A00161617061806991FF1CF8695710561058B
:04257A000894089524
:10257E00A1E21A2EAA1BBB1BFD010DC0AA1FBB1F79
:10258E00EE1FFF1FA217B307E407F50720F0A21BEB
:10259E00B30BE40BF50B661F771F881F991F1A9458
:1025AE0069F760957095809590959B01AC01BD0182
:0425BE00CF010895AC
:1025C200CF93DF93EC0190E0E92FF0E0EE0FFF1FD5
:1025D200EA57FF4F8081811102C081810EC0A8811C
:1025E200B9812C91821305C091811196B983A88378
:1025F20001C09F5F9B3040F3892FDF91CF910895F7
:1026020093B7977B93BF95E39A95F1F700008130DA
:1026120051F028F0823059F0833069F0089583B781
:10262200877B83BF089583B7806483BF089583B790
:0E263200886083BF089583B7886483BF0895CE
:102640001F93CF93DF93182FC4EAD4E8C6BF06B612
:1026500007FEFDCF81B1887F8830C1F713B9D6BF9F
:1026600006B607FEFDCF81B1887F883119F00E9440
:0C2670004115ECCFDF91CF911F91089530
:10267C0094EA96BF06B607FEFDCF91B1987F9031D4
:10268C0071F483B984E886BF06B607FEFDCF81B12D
:10269C00887F803431F0803231F083E0089580E01F
:0A26AC00089581E0089582E008958A
:1026B600A0E0B0E0E1E6F3E10C949E136C01EB01BF
:1026C6008A017B01E40EF51ECE15DF0541F08991E6
:1026D600B601082E000C990B0E941410F5CFC80104
:0A26E600CDB7DEB7E8E00C94BA139C
:1026F000E091B800F091B9008081811107C08FEF9F
:102700009FEF9093B1008093B0000895E091B800DE
:10271000F091B9000580F681E02D80819181909340
:08272000B1008093B0000895A0
:102728002F923F924F925F926F927F928F929F92D9
:10273800AF92BF92CF92DF92EF92FF920F931F93C7
:10274800CF93DF93CDB7DEB7CA1BDB0B0FB6F89478
:08275800DEBF0FBECDBF0994E6
:102760002A88398848885F846E847D848C849B8421
:10277000AA84B984C884DF80EE80FD800C811B812F
:10278000AA81B981CE0FD11D0FB6F894DEBF0FBE5E
:06279000CDBFED0108952C
:10279600A2E0B0E0E1EDF3E10C94A2138C015A83C0
:1027A6004983AE014F5F5F4F0E94E410F80120811C
:1027B60024FF02C08FEF9FEF2296E4E00C94BE1335
:1027C600052E97FB1EF400940E94F91457FD07D0BE
:1027D6000E94BF1207FC03D04EF40C94F9145095D6
:0E27E6004095309521953F4F4F4F5F4F08951E
:1027F4002FEF82E597E0215080409040E1F700C040
:10280400000087E00E94671480E00E94761488E04C
:0C2814000E94851480E10E949414089535
:10282000FC010C9611921192119211921086118650
:1028300012861386148A158A168A178AE817F907EA
:0428400089F7089577
:1028440083B984E886BF06B607FEFDCF81B1887FD1
:10285400883221F0803321F082E0089580E00895E9
:0428640081E0089572
:10286800A0E0B0E0EAE3F4E10C94A413AE01475F02
:102878005F4F6F8178858D819E810E943A15E2E0D5
:042888000C94C013D9
:10288C00092E0394000C11F4882352F0BB0F40F472
:10289C00BF2B11F460FF04C06F5F7F4F8F4F9F4FB2
:0228AC0008958D
:1028AE00882319F0813041F0089580B590B5806885
:1028BE00877F892B80BD089580B5886880BD089577
:1028CE00CF93C82F80ED0E94201389E10E9422141D
:0E28DE008C2F0E9422140E944115CF91089564
:1028EC00CF93C82F80ED0E9420138BE60E942214F8
:0E28FC008C2F0E9422140E944115CF91089546
:10290A00CF93C82F80ED0E9420138BE10E942214DE
:0E291A008C2F0E9422140E944115CF91089527
:10292800CF93C82F80ED0E9420138CE10E942214BF
:0E2938008C2F0E9422140E944115CF91089509
:10294600CF93DF93EC018881882331F021960E9492
:0E295600F11489918111FBCFDF91CF9108958B
:10296400FC01AF014F5F5F4F2081222311F0FA0178
:0C297400F8CF9F01281B390BC901089502
:1029800093B7987F93BF95E39A95F1F7000093B7BB
:06299000892B83BF0895AE
:10299600EC010E9480150E947F15CE010E948115D0
:0629A600CE010E947D1528
:1029AC0080ED0E9420138BE30E94221481ED0E9483
:0429BC003E13089529
:1029C0009C01215631092A31310510F48F75992760
:0229D000089568
:1029D2002AB138E0839FC0011124822B8AB908955D
:1029E200CF93C82F5E980E946E15CCB9CF910895EF
:1029F20090958095709561957F4F8F4F9F4F089569
:102A02009C01215431092A31310508F4806208956C
:0E2A120084EC86BF06B607FEFDCF83B10895A3
:0E2A200084E886BF06B607FEFDCF83B1089599
:0E2A2E005058BB27AA270E94D50D0C944614C1
:0E2A3C000E94C9116894B1110C9434150895CC
:0E2A4A0000240A9416161706180609060895A9
:0E2A580000240A9412161306140605060895AB
:0E2A6600E894BB2766277727CB0197F90895E0
:0E2A74009A01AB016FEF7FE70E9420110895D9
:0C2A820084E986BF06B604FCFDCF089571
:0C2A8E0097F99F6780E870E060E0089511
:0A2A9A0008B601FEFDCF12BE08953C
:0A2AA4000E94791208F48FEF0895E4
:082AAE0011B888E480B9089515
:082AB60089B7816089BF089512
:082ABE0089B7826089BF089509
:082AC6000E94940C0C944614CC
:082ACE000E94030D0C94461454
:062AD6000E94070F189595
:062ADC005D9BFECF089592
:062AE20089B990BD0895C2
:062AE8009FEF80EC089551
:042AEE000C94000044
:042AF200579A089552
:042AF6009F77089529
:042AFA000E945B00DB
:022AFE00089539
:022B0000089536
:022B0200089534
:102B040068076C094C836A9074A07AC00080688856
:062B140000846C820081C8
:072B1A002563282564290052
:072B2100286E756C6C2900A1
:062B2800286E696C290013
:00000001FF
