:100000000C9433000C94500C0C94500C0C94500C29
:100010000C94500C0C94500C0C94500C0C944A0CF6
:100020000C94500C0C94500C0C94500C0C94500CE0
:100030000C94500C0C94500C0C94500C0C94500CD0
:100040000C94500C0C94500C0C94500C0C94500CC0
:100050000C94500C0060008680008600B90018B433
:1000600000B900C9800011241FBECFE5D8E0DEBF73
:10007000CDBFE4E5F0E040E017C0B591A591359122
:100080002591059107FD0CC095918591EF01F92F00
:10009000E82F05900D92A217B307D9F7FE0104C00F
:1000A0001D92A217B307E1F7E536F40731F70E9476
:0A00B00068040C94D70BF894FFCFFE
:1000BA00AEE0B0E0E3E6F0E00C943B0B4C016B01E0
:1000CA001A8219828FEF9FEF9C838B831E821D8277
:1000DA0058874F833A872987A12CB12CD6016D9076
:1000EA007C90F301EA0DFB1D808181110FC0D601BE
:1000FA00ED93FC938081853209F0D3C13F01BFEFB4
:10010A006B1A7B0AF6017182608219C0853279F313
:10011A00B401082E000C990B0E943B084FEFA41A59
:10012A00B40ADCCF8C32ACF08D32F9F489819A8131
:10013A0081609A8389833196D601ED93FC93D60127
:10014A00ED91FC9180818B3269F789819A81846073
:10015A00F0CF803221F489819A818860EACF833294
:10016A0051F489819A818061E4CF803321F48981B5
:10017A009A818260DECFB701C6010E941F0A9E8360
:10018A008D8397FF0BC029813A81B1E02B273A83EF
:10019A0029839195819591099E838D8389819A817D
:1001AA0080FF03C08D7F9A838983D601ED91FC91EC
:1001BA00119780818E3249F43196ED93FC93B70101
:1001CA00C6010E941F0A9C838B83C6010E94DF0A14
:1001DA00582ED601ED91FC918081082E000C990BC6
:1001EA000E94FB0B893609F443C084F4833609F470
:1001FA0002C134F4853209F427C18136E1F030C1F5
:10020A008436B1F188360CF4D9C02AC1803709F492
:10021A009AC03CF48E3609F4BCC08F3609F461C02A
:10022A001FC1853709F440C0883709F476C083377F
:10023A0009F016C1F3C0652D70E0A701CE010B9637
:10024A000E940000892B09F426C1D601ED91FC9188
:10025A001197CF0101968D939C932081AE01455F42
:10026A005F4FBE016F5F7F4FC4010E94000010C143
:10027A00652D70E0970141E050E0CE010B960E9497
:10028A00EC05892B09F407C1F60180819181019659
:10029A0091838083AE01455F5F4FBE016F5F7F4FE1
:1002AA00C4010E940B05F4C0652D70E0970140E07F
:1002BA0050E0CE010B960E94EC05892B09F4EBC0A5
:1002CA00D6018D919C91119701968D939C93AE01C5
:1002DA00455F5F4FBE016F5F7F4FC4010E94870871
:1002EA00D7C0652D70E0970140E050E0CE010B9633
:1002FA000E94EC05892B09F4CEC0F6018081918118
:10030A00019691838083AE01455F5F4FBE016F5FA7
:10031A007F4FC4010E94E207BBC0652D70E09701C0
:10032A0040E050E0CE010B960E94EC05892B09F4BF
:10033A00B2C0D601ED91FC911197CF0101968D9330
:10034A009C9320811CC0970140E050E060EF70E070
:10035A00CE010B960E94EC05892B09F49CC0F6018C
:10036A00808191810196918380838B859C85892BDD
:10037A0029F420E030E043EB50E084C028E7AE01E6
:10038A00455F5F4FBE016F5F7F4FC4010E947A03D2
:10039A007FC0A501400F511F652D70E09701CE0166
:1003AA000B960E940000892B09F475C0D6018D9125
:1003BA009C91119701968D939C9373C0652D70E063
:1003CA00A701CE010B960E940000892B09F463C095
:1003DA00D601ED91FC911197CF0101968D939C93D3
:1003EA002081AE01455F5F4FBE016F5F7F4FC40141
:1003FA000E9400004DC0B0E85B124DC0F60180813A
:10040A009181019691838083D701ED91FC91119797
:10041A00CF0102968D939C93808120C0B0E85B1235
:10042A003AC0F60180819181019691838083D70138
:10043A00ED91FC911197CF0102968D939C93408187
:10044A00518120E030E01EC0B0E85B1224C0F60102
:10045A00208131812F5F3F4F318320838B870DC0ED
:10046A0085E28B87D6016D927C921A8219821E824E
:10047A001D828FEF9FEF9C838B8321E030E0AE01DA
:10048A00455F5F4FBE016F5F7F4FC4010E944D0AF7
:10049A008A0D9B1D07C0F601808191810196918387
:0C04AA008083C5012E96EFE00C94570BE8
:1004B600EF92FF920F931F93CF93DF938091C50026
:1004C600811104C1C091BD00D091BE007E018FEFA5
:1004D600E81AF80AF092BE00E092BD00E114F104B9
:1004E600B9F48091C1009091C2002091BF00309173
:1004F600C0003093C2002093C1009093C000809347
:10050600BF008091C6008F5F8093C6000E941C0BBF
:100516008091B9009091BA00E816F90610F480E0CF
:10052600B9C080E061E0E091C100F091C200908125
:10053600911107C02FEF3FEF3093BA002093B90017
:10054600A9C0E091C100F091C2000580F681E02DBE
:100556000680F781E02D22813381E216F30628F426
:100566003093BA002093B90095C0A285B385248143
:10057600358146815781E9015D834C832681378128
:1005860044815581E9015B834A83AF014E5F5F4F2A
:1005960011962D913C9112972417350731F4268137
:1005A600378112963C932E931197138612869C914F
:1005B60091509C93A489B589109719F126853785A2
:1005C60000891189E9011D830C83208931890685FB
:1005D6001785E9011B830A8311960D911C911297C9
:1005E6009F01245F3F4F0217130731F42089318999
:1005F60012963C932E931197158A148A9C919150CA
:100606009C9326899091C800921710F42093C800F5
:1006160030E0D901AA0FBB1FAA0FBB1FAA0FBB1F31
:100626002A0F3B1FD901AE59BF4F11960D90BC91B1
:10063600A02DB583A48314962D913C9115973783ED
:10064600268314962D913C911597E9015B834A8385
:1006560015965C934E931497A689B0E09D01220FE0
:10066600331F220F331F220F331FA20FB31FAE59A2
:10067600BF4FB387A2879C919F5F9C93A091C300B5
:10068600B091C400268956969C91921708F04BCFDC
:10069600862F49CFE091C300F091C400268930E04F
:1006A600F901EE0FFF1FEE0FFF1FEE0FFF1F2E0FBC
:1006B6003F1FF901EE59FF4F9081923008F081E01B
:1006C6009091C700992361F081E00AC08091BB0038
:1006D6009091BC0001969093BC008093BB0080E093
:0E06E600DF91CF911F910F91FF90EF9008953B
:1006F400AFE0B0E0E0E8F3E00C94380B1C016B01D0
:100704005A8349832B83FB01828193818480958062
:1007140000811181A680B78097FD02C00D7F02C0C1
:1007240081E090E0E981FA814080518062807380A9
:100734009801207133273D832C83740104FF08C082
:10074400411451046104710419F032E0E31AF10810
:10075400F801E870FF27FF83EE8303FF03C0F1E095
:10076400EF1AF108F6010084F185E02D3197FF8737
:10077400EE87EA0DFB1D10829C012E193F09398773
:100784002887C801827099279B878A87EB818E2FDF
:10079400EE0F990B9C01215431093D872C872E853E
:1007A4003F852230310530F48C819D81892B09F0FD
:1007B40042C05CC0411451046104710461F18E852E
:1007C4009F8501979F878E87C2018F7099278A30F2
:1007D400910514F4C09602C0895A9F4FEC85FD859B
:1007E4007A9748F49C012062215631092A31310557
:1007F40010F40E94E20BEE85FF85EA0DFB1D808359
:10080400F1E0EF1AF10884E07694679457944794E2
:100814008A95D1F7C4CF888599858E0D9F1D1816AA
:1008240019066CF21E141F040CF0BECFEA85FB857A
:10083400EF2B29F6B9CFE981FA8180819181A281D8
:10084400B381892B8A2B8B2B89F0EE85FF85EA0DEA
:10085400FB1D31972B8120838E859F8502979F876F
:100864008E87FC01EA0DFB1D80E38083EE81FF810E
:10087400EF2B59F02E853F85215031093F872E8774
:10088400F901EA0DFB1D80E28083F6014085518564
:10089400415051092E853F85421B530BB9016A0D06
:1008A4007B1D9401C1010E9481099C01F101808199
:1008B400918190FF06C0F60182819381821793078C
:0C08C4000CF4C9012F96E2E10C94540BD7
:1008D000CF93DF93CDB7DEB72F970FB6F894DEBF77
:1008E0000FBECDBF41E060E080E895E20E94BA090A
:1008F0000E94560C2FEF80E792E0215080409040FC
:10090000E1F700C000000F2EFBE23F2EF02D0F2E6E
:10091000FBE2CF2EF02DDD24DA940F2EFCE9EF2E32
:10092000F0E0FF2EF02D8E010F5F1F4F0E943C0C58
:100930002B013C010E94380C4B015C0120E030E0AF
:10094000A901C301B2010E94330C882324F40F2EA5
:10095000FDE2CF2EF02D20E030E0A901C501B40169
:100960000E94330C882324F40F2EFDE23F2EF02D3D
:10097000C501B4010E940A0C9B01772324F42227AD
:100980003327261B370BD29EB001D39E700D112446
:10099000072E000C880B990B0E94D00820E030E055
:1009A00044EB52E40E94400C0E940A0C7F936F9328
:1009B0001F923F92C301B2010E940A0C9B01772350
:1009C00024F422273327261B370BD29EB001D39E57
:1009D000700D1124072E000C880B990B0E94D00873
:1009E00020E030E044EB52E40E94400C0E940A0CEC
:1009F0007F936F931F92CF92FF92EF921F930F936B
:100A00000E94870BC8010E94BA0B0FB6F894DEBF94
:060A10000FBECDBF8BCF2D
:100A1600A2E0B0E0E1E1F5E00C94380B3C016B019B
:100A2600FB0122813381A480B580808191819A83E4
:100A3600898386809780FA012080318042805380A6
:100A4600B201A10157FE07C044275527BA01421932
:100A560053096409750937FD03C08D7F9A8389831D
:100A6600950157FC05C0898182FD02C083FF02C043
:100A760021503109CE0101967C010AE010E0C60141
:100A86000E94210757FC03C0298122FF0AC0019753
:100A9600F401E80FF91F57FC02C02BE209C02DE252
:100AA60007C023FF06C00197F401E80FF91F20E2F3
:100AB600208309811A81F6014085518541505109EB
:100AC600481B590BB401680F791F9501C3010E9499
:100AD60081099C01F3018081918190FF06C0F60196
:100AE60082819381821793070CF4C9012296E2E171
:040AF6000C94540BFD
:100AFA0010C00E94180C58F00E94110C40F029F402
:100B0A005F3F29F00C942D0C51110C94200C0C947D
:100B1A004D0C0E949B0A68F39923B1F3552391F374
:100B2A00951B550BBB27AA2762177307840738F052
:100B3A009F5F5F4F220F331F441FAA1FA9F335D0AF
:100B4A000E2E3AF0E0E832D091505040E695001C63
:100B5A00CAF72BD0FE2F29D0660F771F881FBB1F1D
:100B6A00261737074807AB07B0E809F0BB0B802DFB
:100B7A00BF01FF2793585F4F3AF09E3F510578F027
:100B8A000C942D0C0C94200C5F3FE4F3983ED4F3A4
:100B9A00869577956795B795F7959F5FC9F7880FFB
:100BAA00911D9695879597F90895E1E0660F771F4D
:100BBA00881FBB1F621773078407BA0720F0621BDE
:0E0BCA00730B840BBA0BEE1F88F7E0950895AD
:100BD800CF93DF93DC01F90168387105F1F05CF41B
:100BE8006138710561F164387105A1F160387105EA
:100BF80009F051C02FC0603C710509F441C0603F45
:100C08007105F1F1603A710509F045C0C081D181E3
:100C1800CE0102969183808325C0C081D181CE0107
:100C2800029691838083452B39F04881042E000C6D
:100C3800550B660B770B1CC0488150E029C0C0815A
:100C4800D181CE01049691838083488159816A813C
:100C58007B810EC0C081D181CE01029691838083B1
:100C6800452BA1F048815981052E000C660B770BA6
:100C78004D935D936D937C93139781E090E00DC045
:100C8800C081D181CE0102969183808348815981A8
:100C980060E070E0EDCF80E090E0DF91CF910895C3
:100CA80011C00E94110C38F00E94180C20F039F481
:100CB8009F3F19F426F40C944D0C0EF4E095E7FBD5
:100CC8000C942D0CE92F0E949B0A58F3BA1762075F
:100CD80073078407950720F079F4A6F50C941F0C88
:100CE8000EF4E0950B2EBA2FA02D0B01B90190013F
:100CF8000C01CA01A0011124FF27591B99F0593F83
:100D080050F4503E68F11A16F040A22F232F342FCA
:100D18004427585FF3CF469537952795A795F04018
:100D28005395C9F77EF41F16BA0B620B730B840B2D
:100D3800BAF09150A1F0FF0FBB1F661F771F881FE5
:100D4800C2F70EC0BA0F621F731F841F48F487953D
:100D580077956795B795F7959E3F08F0B0CF93952F
:0E0D6800880F08F09927EE0F9795879508954C
:100D76008091C500882321F081E08093C700089503
:100D86001092C7002091C800822F90E0FC01EE0F60
:100D9600FF1FEE0FFF1FEE0FFF1FE80FF91FEE59A3
:100DA600FF4F3081311111C02150822F90E0FC019C
:100DB600EE0FFF1FEE0FFF1FEE0FFF1FE80FF91FCD
:100DC600EE59FF4F3081332379F3AC01440F551FA1
:100DD600440F551F440F551F480F591FDA01AE59CE
:100DE600BF4F1196ED91FC9112970280F381E02D91
:100DF6001296FC93EE9311974B595F4FE417F50744
:100E060029F442815381FD0152834183FC01EE0F97
:100E1600FF1FEE0FFF1FEE0FFF1F8E0F9F1FFC0120
:100E2600EE59FF4F0180F281E02D868197819093E4
:0C0E3600C4008093C3002093C8000895FE
:100E4200A0E0B0E0E7E2F7E00C943A0BDC01280105
:100E52001696AD90BC901797F701808191811296FA
:100E6200ED91FC9113971896CD91DC9119972197EA
:100E7200F7FF02C0E1E0F0E0CA0DDB1D1882690154
:100E8200A1E0B0E08F01021B130B4C01F2E08F22B4
:100E92009924052C000C66087708CE018A199B0953
:100EA200CA15DB0519F1411551056105710589F076
:100EB200CB01BA01A30192010E94BD0ACA01A62F69
:100EC200B72F605D6A9341E0C41AD108A901BC0141
:100ED200E4CF98012C0D3D1D121613064CF31C1481
:100EE2001D0434F48114910419F702C080E090E0EB
:100EF200AB2B31F4F701208131812F7E31832083A6
:0A0F0200CDB7DEB7E0E10C94560B0A
:100F0C000F920FB6F8940F921F9211242F923F92CA
:100F1C004F925F926F927F928F929F92AF92BF92FD
:100F2C00CF92DF92EF92FF920F931F932F933F93E9
:100F3C004F935F936F937F938F939F93AF93BF93D5
:100F4C00CF93DF93EF93FF93A091C300B091C400B4
:100F5C000DB60D920EB60D920E945B0281110E948D
:100F6C00BB06A091C300B091C400CD91CDBFDD9163
:100F7C00DEBFFF91EF91DF91CF91BF91AF919F9128
:100F8C008F917F916F915F914F913F912F911F9115
:100F9C000F91FF90EF90DF90CF90BF90AF909F900C
:100FAC008F907F906F905F904F903F902F901F90FD
:080FBC000F900FBE0F90089585
:100FC400A2E0B0E0E8EEF7E00C943C0B4C016B01BE
:100FD400FB012281338164807580808191819A83B1
:100FE4008983A680B78037FD03C08D7F9A83898368
:100FF400FA014081518162817381CE0101967C01A5
:1010040008E010E09301C6010E942107298124FF12
:1010140006C00197F501E80FF91F20E32083298119
:1010240023FF06C00197F501E80FF91F20E2208392
:1010340009811A81F6014085518541505109481BA7
:10104400590BB501680F791F9301C4010E948109EE
:101054009C01F4018081918190FF06C0F601828198
:101064009381821793070CF4C9012296EEE00C9445
:02107400580B17
:101076000F931F93CF93DF93DB01109719F48FEF34
:101086009FEF3DC02D913C91119730FF25C01696DC
:101096004D915C91179714962D913C911597421797
:1010A600530778F41296ED91FC911397808312966C
:1010B6002D913C9113972F5F3F4F13963C932E93A0
:1010C600129716962D913C9117972F5F3F4F1796C3
:1010D6003C932E93169713C01C96ED91FC911D9789
:1010E600309769F2EB01092F182F0995892B39F6EC
:1010F6008E819F8101969F838E83812F902FDF9112
:08110600CF911F910F91089594
:10110E00A2E0B0E0EDE8F8E00C943C0B5C016B0162
:10111E00FB012281338184809580808191819A8325
:10112E0089836680778037FD03C08D7F9A8389839C
:10113E00FA014081518162817381CE0101967C0159
:10114E000AE010E09401C6010E94210709811A816C
:10115E00F6014085518541505109481B590BB30189
:10116E00680F791F9401C5010E9481099C01F50148
:10117E008081918190FF06C0F60182819381821752
:0E118E0093070CF4C9012296EEE00C94580B66
:10119C00E89409C097FB3EF4909580957095619505
:1011AC007F4F8F4F9F4F9923A9F0F92F96E9BB27BB
:1011BC009395F695879577956795B795F111F8CF37
:1011CC00FAF4BB0F11F460FF1BC06F5F7F4F8F4FA2
:1011DC009F4F16C0882311F096E911C0772321F098
:1011EC009EE8872F762F05C0662371F096E8862F30
:1011FC0070E060E02AF09A95660F771F881FDAF787
:0A120C00880F9695879597F90895CD
:10121600A2E8B0E0E1E1F9E00C943E0B5C014A0182
:10122600CF57DF4F79836883C158D040C12CD12C6A
:10123600CF57DF4FE881F981C158D040808188239C
:10124600E9F07401860120E830E0AE014F5F5F4FA0
:10125600BE016F577F4FC5010E945D008C0D9D1D1D
:101266008C159D054CF48FE490E09093610080937B
:1012760060008FEF9FEF03C06C01DACFC601CE5737
:08128600DF4FECE00C945A0B61
:10128E00A0E1B0E0EDE4F9E00C94440BFB01BA01EF
:10129E00AE014F5F5F4F7A0140E1D7011D924A9533
:1012AE00E9F742E051E05A8349839C838B83F7FF31
:1012BE0009C08FE490E090936100809360008FEFFF
:1012CE009FEF14C0A9018C013197FE83ED83C701F6
:1012DE000E946F0B4F8158852D813E814217530717
:1012EE0008F49A01F801E20FF31F10826096E6E00F
:0412FE000C94600BE1
:10130200A0E0B0E0E7E8F9E00C943E0B6C015B0171
:101312007A01E901480181E08822992400FD03C095
:101322004217530750F0A701B501C6010E94FF0AF8
:10133200EC16FD0610F0C70117C08E010E191F0929
:101342000115110541F0B60180E290E00E943B08D0
:1013520001501109F5CF8114910429F4A701B501B7
:10136200C6010E94FF0ACE01CDB7DEB7ECE00C94B5
:021372005A0B14
:101374001F93CF93DF93EC01862F142F0E94AA0BA7
:101384008AE18A95F1F700C0BE01DD0F880B990B45
:101394000E94D0089B01AC0160E074E284E799E408
:1013A4000E94400C20E030E040E85FE30E94030C20
:1013B4000E940A0CCB010E94470C8AE18A95F1F73E
:1013C40000C0812F0E94EB0B8AE18A95F1F700C0DF
:0C13D4000E94520CDF91CF911F910895F0
:1013E0000E94A30A88F09F5798F0B92F9927B75108
:1013F000B0F0E1F0660F771F881F991F1AF0BA95B9
:10140000C9F714C0B13091F00E941F0CB1E00895EB
:101410000C941F0C672F782F8827B85F39F0B93FDD
:10142000CCF3869577956795B395D9F73EF490956B
:0E1430008095709561957F4F8F4F9F4F089567
:10143E00DC01ED91FC91119780818A3221F080E0E0
:10144E0090E03AE00EC03196ED93FC93DB01ED9106
:10145E00FC911197CF0102968D939C93808191817F
:10146E000895ED91FC911197208120532A3068F454
:10147E00389FA001399F500D1124CA01820F911D72
:0C148E0031961196FC93EE93ECCF08957C
:10149A00A0E0B0E0E3E5FAE00C94400B7C01FB012C
:1014AA00EA01C901A280B380C480D580008111817C
:1014BA00209711F4CCEAD0E0009719F4CE010E94EB
:1014CA00C90BB7FC04C0A816B90608F4C5019601F1
:1014DA00AC01BE01C7010E948109CDB7DEB7EAE0BF
:0414EA000C945C0BF7
:1014EE00990F0008550FAA0BE0E8FEEF1616170627
:1014FE00E807F907C0F012161306E407F50798F08F
:10150E00621B730B840B950B39F40A2661F0232BA7
:10151E00242B252B21F408950A2609F4A140A69523
:08152E008FEF811D811D08955E
:1015360057FD9058440F551F59F05F3F71F047957E
:10154600880F97FB991F61F09F3F79F08795089563
:10155600121613061406551FF2CF4695F1DF08C082
:10156600161617061806991FF1CF8695710561059F
:041576000894089538
:10157A00A1E21A2EAA1BBB1BFD010DC0AA1FBB1F8D
:10158A00EE1FFF1FA217B307E407F50720F0A21BFF
:10159A00B30BE40BF50B661F771F881F991F1A946C
:1015AA0069F760957095809590959B01AC01BD0196
:0415BA00CF010895C0
:1015BE00CF93DF93EC0190E0E92FF0E0EE0FFF1FE9
:1015CE00EA57FF4F8081811102C081810EC0A88130
:1015DE00B9812C91821305C091811196B983A8838C
:1015EE0001C09F5F9B3040F3892FDF91CF9108950B
:1015FE00A0E0B0E0E5E0FBE00C94420B6C01EB01E7
:10160E008A017B01E40EF51ECE15DF0541F08991AE
:10161E00B601082E000C990B0E943B08F5CFC801AD
:0A162E00CDB7DEB7E8E00C945E0BC8
:10163800E091C100F091C2008081811107C08FEF55
:101648009FEF9093BA008093B9000895E091C1008C
:10165800F091C2000580F681E02D80819181909300
:08166800BA008093B900089557
:101670002F923F924F925F926F927F928F929F92A2
:10168000AF92BF92CF92DF92EF92FF920F931F9390
:10169000CF93DF93CDB7DEB7CA1BDB0B0FB6F89441
:0816A000DEBF0FBECDBF0994AF
:1016A8002A88398848885F846E847D848C849B84EA
:1016B800AA84B984C884DF80EE80FD800C811B81F8
:1016C800AA81B981CE0FD11D0FB6F894DEBF0FBE27
:0616D800CDBFED010895F5
:1016DE00A2E0B0E0E5E7FBE00C94460B8C015A83E8
:1016EE004983AE014F5F5F4F0E940B09F8012081C5
:1016FE0024FF02C08FEF9FEF2296E4E00C94620B62
:10170E00A0E0B0E0EDE8FBE00C94480BAE01475FC3
:10171E005F4F6F8178858D819E810E94260CE2E05D
:04172E000C94640BA8
:10173200092E0394000C11F4882352F0BB0F40F4DD
:10174200BF2B11F460FF04C06F5F7F4F8F4F9F4F1D
:021752000895F8
:10175400882319F0813041F0089580B590B58068F0
:10176400877F892B80BD089580B5886880BD0895E2
:10177400CF93DF93EC018881882331F021960E9476
:0E178400F30B89918111FBCFDF91CF91089576
:10179200FC01AF014F5F5F4F2081222311F0FA015C
:0C17A200F8CF9F01281B390BC9010895E6
:1017AE00EC010E94580C0E94570CCE010E94590C5D
:0617BE00CE010E94540C54
:1017C4009C01215631092A31310510F48F7599276E
:0217D400089576
:1017D6002AB138E0839FC0011124822B8AB908956B
:1017E600CF93C82F5E980E94440CCCB9CF91089530
:1017F6009C01215431092A31310508F4806208958B
:0E1806005058BB27AA270E9454060C94990B39
:0E1814000E94F0096894B1110C94200C089504
:0E18220000240A9416161706180609060895E3
:0E18300000240A9412161306140605060895E5
:0E183E00E894BB2766277727CB0197F908951A
:0E184C009A01AB016FEF7FE70E9447090895F4
:0C185A0097F99F6780E870E060E0089557
:0A1866000E94770A08F481E008955B
:0818700060E070E0CB01089577
:0818780060E070E0CB0108956F
:081880000E947D050C94990BF8
:061888005D9BFECF0895F8
:06188E0089B990BD089528
:061894000E948607189572
:06189A009FEF80EC0895B1
:0418A0000C940000A4
:0418A400579A0895B2
:0418A8000E945B003F
:0218AC0008959D
:0218AE0008959B
:0218B000089599
:0218B200089597
:1018B40068076C094C836A9074A07AC000806888B9
:0618C40000846C8200812B
:1018CA00782825632564292C79282563256429002D
:0718DA00286E756C6C2900FB
:0618E100286E696C29006D
:00000001FF
