:100000000C9433000C94270E0C94270E0C94270E9E
:100010000C94270E0C94280B0C94270E0C94270E8E
:100020000C94270E0C94270E0C94270E0C94270E7C
:100030000C94270E0C94270E0C94270E0C94270E6C
:100040000C94270E0C94270E0C94270E0C94270E5C
:100050000C94270E006000628000620071001C603A
:1000600000710073800011241FBECFE5D8E0DEBF11
:10007000CDBFE4E5F0E040E017C0B591A591359122
:100080002591059107FD0CC095918591EF01F92F00
:10009000E82F05900D92A217B307D9F7FE0104C00F
:1000A0001D92A217B307E1F7E536F40731F70E9476
:0A00B000960A0C94900DF894FFCF0F
:1000BA002F923F924F925F926F927F928F929F926E
:1000CA00AF92BF92CF92DF92EF92FF920F931F935C
:1000DA00CF93DF93CDB7DEB76C970FB6F894DEBF38
:1000EA000FBECDBF8C011B017A01C22ED32ECE01C9
:1000FA0001964C015A019CE0A90EB11CD7016D91E1
:10010A007D918D919D917D01F601219131914191D0
:10011A0051916F010E94BB0DD4016D937D938D9314
:10012A009D934D01EA14FB0449F720E03CED4FE7AB
:10013A0057E469817A818B819C810E941C0EF801A7
:10014A0024853585468557850E94BC0D6B017C0147
:10015A0049845A846B847C8423EC3BEF4EE854E355
:10016A00C301B2010E94200E0E9432054B015C01BC
:10017A0020E03CED4FE757E46D817E818F819885C1
:10018A000E941C0ED80150962D913D914D915C9183
:10019A0053970E94BC0D6D877E878F87988BA50128
:1001AA009401C701B6010E94200E9B01AC016D8526
:1001BA007E858F8598890E94BC0D9B01AC01F80150
:1001CA00608B718B828B938BC501B4010E94200EC8
:1001DA009B01AC01C701B6010E94BB0DD8011C9658
:1001EA006D937D938D939C931F97F10180809180ED
:1001FA00A280B38084819581A681B7818D879E87ED
:10020A00AF87B88BC084D184E284F384A5019401BA
:10021A00C501B4010E94200E698B7A8B8B8B9C8B53
:10022A002D853E854F855889CA01B9010E94200E45
:10023A006D8B7E8B8F8B988F9B01AC0169897A8934
:10024A008B899C890E94BC0D698F7A8F8B8F9C8FBA
:10025A002D893E894F89588D69897A898B899C892C
:10026A000E94BC0D698B7A8B8B8B9C8BA7019601A4
:10027A00C701B6010E94200E9B01AC0169897A89E7
:10028A008B899C890E94BC0D0E945C046B017C01D5
:10029A00A50194015F770E94030E1816BCF4A7010A
:1002AA0096016D857E858F8598890E941C0E0E9415
:1002BA004B0223EA3CE445E652E40E94200ED801B0
:1002CA0058966D937D938D939C935B97F1018481EE
:1002DA009581A681B7819C01AD015F77C701B601FF
:1002EA000E94030E1816B4F4A7019601D1016D916C
:1002FA007D918D919C910E941C0E0E944B0223EAD3
:10030A003CE445E652E40E94200EF801648F758FA2
:10031A00868F978F2AE037ED43E25DE3D80158963E
:10032A006D917D918D919C915B970E94200E6B013E
:10033A007C012FE832EC45E75FE3F80164857585B7
:10034A00868597850E94200E9B01AC01C701B601E4
:10035A000E94BC0D4B015C01D8011C966D937D93E4
:10036A008D939C931F972FE832EC45E75FE35096F5
:10037A006D917D918D919C9153970E94200E6B01F6
:10038A007C012AE037ED43E25DE3F801648D758D67
:10039A00868D978D0E94200E9B01AC01C701B60184
:1003AA000E94BC0D6B017C01D80150966D937D9320
:1003BA008D939C93539723E333E343E35FE36D9178
:1003CA007D918D919C910E94200E6D877E878F87EB
:1003DA00988B2AE939E949E95EE3C501B4010E942B
:1003EA00200E9B01AC016D857E858F8598890E94C0
:1003FA00BC0DF801608371838283938323E333E323
:10040A0043E35FE364817581868197810E94200EB0
:10041A004B015C012AE939E949E95EE3C701B60102
:10042A000E94200E9B01AC01C501B4010E94BC0DC3
:10043A00D80114966D937D938D939C931797C3015E
:10044A00B201905820E030E043E852E40E941C0ECA
:10045A00F80160877187828793876C960FB6F89444
:10046A00DEBF0FBECDBFDF91CF911F910F91FF90DD
:10047A00EF90DF90CF90BF90AF909F908F907F903A
:0C048A006F905F904F903F902F9008956E
:100496004F925F926F927F928F929F92AF92BF928E
:1004A600CF92DF92EF92FF92CF93DF9300D000D0EE
:1004B600CDB7DEB76B017C0169837A838B839C831E
:1004C600DC01CB01BF77009720E8A2072FE3B20734
:1004D60028F10097A048BF4369F42BED3FE049ECB3
:1004E6005FE3C701B6010E94200E20E030E040E83D
:1004F60053E05FC081E290E09093610080936000DA
:10050600A7019601C701B6010E94BB0D9B01AC0174
:1005160060E070E0CB010E941C0EB6C00097A105FA
:100526004FE3B40708F048C0A058B1090097A105E9
:10053600B94308F4A7C0A7019601C701B6010E94F6
:10054600200E4B015C012BE633ED4DE05CEB0E9487
:10055600200E2AEB33E14FE25DE30E94BB0DA501BD
:1005660094010E94200E25E73AEA4AE25EE30E94E1
:10057600BC0DA50194010E94200E2B013C012EEA20
:1005860035EE44E35FEBC501B4010E94200E20E086
:1005960030E040E85FE30E94BC0D9B01AC01C30163
:1005A600B2010E941C0EA70196010E94200EA7010F
:1005B60096010E94BC0D68C0C701B6010E94290EB3
:1005C6009B01AC0160E070E080E89FE30E94BB0DF8
:1005D60020E030E040E05FE30E94200E6B017C01EA
:1005E6000E945C044B015C012BE633ED4DE05CEBB5
:1005F600C701B6010E94200E2AEB33E14FE25DE30C
:100606000E94BB0DA70196010E94200E25E73AEA3B
:100616004AE25EE30E94BC0DA70196010E94200EED
:100626002B013C012EEA35EE44E35FEBC701B60130
:100636000E94200E20E030E040E85FE30E94BC0DFF
:100646009B01AC01C301B2010E941C0EA5019401DD
:100656000E94200EA50194010E94BC0D9B01AC01D5
:100666000E94BC0D9B01AC016BED7FE089EC9FE322
:100676000E94BB0D29813A814B815C8157FF04C0E2
:10068600905802C0C701B6010F900F900F900F90BF
:10069600DF91CF91FF90EF90DF90CF90BF90AF901A
:0E06A6009F908F907F906F905F904F9008957F
:1006B4004F925F926F927F928F929F92AF92BF926E
:1006C400CF92DF92EF92FF920F931F93CF93DF931A
:1006D400CDB7DEB728970FB6F894DEBF0FBECDBFF7
:1006E4008B01DC014D905D906D907C9013975301CC
:1006F4004201E894B7F81496CD90DD90ED90FC900B
:100704001797D701C601BF778D839E83AF83B887C0
:100714009C01AD01C501B4010E94030E18162CF50D
:1007240020E030E0A901C301B2010E94030E1816B3
:100734002CF00F2EF3E5FF2EF02D04C00F2EF7E55D
:10074400FF2EF02D20E030E04FE753E4C501B40163
:100754000E94200E20E030E044EB52E40E941C0E84
:100764000E94C20D262F872F26C020E030E0A90169
:10077400C701B6010E94030E18162CF00F2EF1E4E7
:10078400FF2EF02D04C00F2EF4E4FF2EF02D20E0F8
:1007940030E04FE753E46D817E818F8198850E941C
:1007A400200E20E030E044EB52E40E941C0E0E9434
:1007B400C20D262F872FE22FF82FEF3FF10519F0F6
:1007C40014F0EFEFF0E0FF2314F4E0E0F0E08CE34A
:1007D400D8018C9388E211968C9311971296FC920F
:1007E400129799E213969C93139714968C93CF01C6
:1007F40020E030E00F2EFAE0CF2ED12CF02D01C0F6
:1008040097017901BFEFEB1AFB0AB6010E940B0DA9
:10081400CB0118161906A4F33323C4F09701CE01B3
:100824000196280F391F6C010F2EFAE0AF2EB12C60
:10083400F02DCF01B5010E940B0D805DF90182936B
:100844009F01E62FF72F2C153D0599F7FE01EE0DBC
:10085400FF1D11822981222361F0D8011596FE0122
:10086400329685E090E001962D9321912111FBCFE2
:1008740002C085E090E0F801E80FF91F89E2808367
:100884008EE38183128228960FB6F894DEBF0FBEE2
:10089400CDBFDF91CF911F910F91FF90EF90DF902B
:1008A400CF90BF90AF909F908F907F906F905F900C
:0408B4004F900895C4
:1008B800A4E0B0E0E2E6F4E00C94910C8B019C011A
:1008C800AC0140785F776B017C0140385F4761F489
:1008D800E894E7F8FF24C114D104E104F10409F015
:1008E800ACC097FDAAC0AEC0E894F7F8C114D10413
:1008F800E104F10409F4A6C097FF07C081E290E083
:10090800909361008093600098C0DC01CB0167E19F
:10091800B595A795979587956A95D1F70097A105FD
:10092800B105B9F480E090E0DC0127FD08C0000FB4
:10093800111F221F331F0196A11DB11DF6CF01976C
:10094800A109B109B095A095909581959F4FAF4F9A
:10095800BF4F8F579109A109B1092F773327206815
:1009680080FF04C0000F111F221F331FAC01BD01FF
:10097800759567955795479549835A836B837C830B
:10098800000F111F221F331F49E150E0812C912CC9
:100998005401B394C12CD12C760180E090E0DC01A5
:1009A8002C013D01480C591C6A1C7B1C04151505BB
:1009B8002605370574F0D301C201880D991DAA1DBB
:1009C800BB1D0419150926093709C80CD91CEA1CCE
:1009D800FB1C000F111F221F331FB694A794979476
:1009E800879441505109E1F601151105210531059A
:1009F80051F0970186010170112722273327C00E75
:100A0800D11EE21EF31EF594E794D794C79451ECD7
:100A1800F51A89819A81AB81BC8127E1880F991FDA
:100A2800AA1FBB1F2A95D1F78C0D9D1DAE1DBF1D9A
:100A3800482F392F2A2F5B2F09C040E030E020ECE7
:100A48005FE704C0462F372F282F592F642F732FA5
:0C0A5800822F952F2496E0E10C94AD0C49
:100A6400A4E0B0E0E8E3F5E00C94990C8B019C0160
:100A74003F770B3D4FE0140749E424074FE3340765
:100A840048F40115110540E8240749E3340708F444
:100A94008AC07BC06B017C01CC24F7FCC394DD24A9
:100AA400EE24FF24023D43E514074BE7240740E40A
:100AB400340708F5043E4BEC140746E1240740E4F0
:100AC400340760F42BED3FE049EC5FE3CC2019F0F0
:100AD4000E94BC0D60C00E94BB0D5AC02BED3FE0CC
:100AE40049E450E4CC2019F00E94BC0D02C00E94DD
:100AF400BB0D90584AC0063D41E3140742EE24075B
:100B040040E4340700F5003E4DEE14074FEA240795
:100B140040E4340760F424EE3BEC46E950E4CC2096
:100B240019F00E94BC0D34C00E94BB0D34C02BEDE3
:100B34003FE049EC50E4CC2019F00E94BC0D25C0E4
:100B44000E94BB0D22C00115110540E824074FE7A0
:100B5400340728F5AE014F5F5F4F0E94E608282F47
:100B6400237069817A818B819C81213089F048F0DE
:100B7400223089F4DC01CB01B05889839A83AB839A
:100B8400BC8369817A818B819C810E9484070BC01C
:100B94000E94FD0708C00E94FD07905804C06FEF33
:0E0BA4007FEF8FEF9FE72496E8E00C94B50CEE
:100BB2002F923F924F925F926F927F928F929F926B
:100BC200AF92BF92CF92DF92EF92FF920F931F9359
:100BD200CF93DF93CDB7DEB7A6970FB6F894DEBFFB
:100BE2000FBECDBF8DA39EA319821A821B821C82C7
:100BF2001D821E821F82188619861A861B861C86F3
:100C02000F2EF0EDAF2EF7E0BF2EF02D1E018DE07E
:100C1200280E311CB101CE0149960E94740871015F
:100C2200FE0131964F0161018F01F7014190519010
:100C3200619071907F01F80160817181828193815D
:100C42000E94ED0AA30192010E94BC0D0E94C20DF6
:100C5200F80161937193819391938F01EC15FD05D6
:100C620021F78FED9EE20197F1F700C0000091E0BD
:100C7200A91AB10879F60DA11EA10F2EF0ED4F2E83
:100C8200F7E05F2E612C712CF02DF40161917191CE
:100C9200819191914F01A30192010E94DE0CCA0140
:100CA200B9010E94ED0AF8016193719381939193C6
:100CB2008F018C149D0449F7A6960FB6F894DEBFF7
:100CC2000FBECDBFDF91CF911F910F91FF90EF909B
:100CD200DF90CF90BF90AF909F908F907F906F905A
:0A0CE2005F904F903F902F9008950F
:100CEC00CF93DF93EB01813061F138F0823009F45E
:100CFC004CC0833009F471C07FC0599880B58F7B8C
:100D0C00806880BD8FE19EE40197F1F700C0000080
:100D1C00072E000C880B990B0E94ED0A9B01AC016D
:100D2C0060E074E284E799E40E941C0E20E030E05D
:100D3C0040E85FE30E94BB0D0E94C20D70BD69B913
:100D4C005BC0599A80B58F7B806880BD8FE19EE433
:100D5C000197F1F700C00000072E000C880B990BCF
:100D6C000E94ED0A9B01AC0160E074E284EF99E40F
:100D7C000E941C0E20E030E040E85FE30E94BB0DB7
:100D8C000E94C20D70BD69B937C0599880B5806C8E
:100D9C0080BD41E060E081E00E940B078FE19EE4A2
:100DAC000197F1F700C00000BE01DD0F880B990B15
:100DBC000E94ED0A9B01AC0160E074E284EF9AE4BE
:100DCC000E941C0E20E030E040E85FE30E94BB0D67
:100DDC000E94C20D70BD69B90FC0599880B5806C66
:100DEC0080BD40E060E081E00E940B078FE19EE453
:100DFC000197F1F700C0000080B5866880BD8AB10C
:0A0E0C0088618AB9DF91CF91089543
:100E1600813019F130F08230E1F1833009F455C0A8
:100E26000895442319F0413069F008952AB381E00A
:100E360090E002C0880F991F6A95E2F78095822399
:100E46008ABB08952AB381E090E002C0880F991FFB
:100E56006A95E2F7822B8ABB0895442319F0413044
:100E660069F0089527B381E090E002C0880F991FCA
:100E76006A95E2F78095822387BB089527B381E0C0
:100E860090E002C0880F991F6A95E2F7822B87BB14
:100E96000895442319F0413069F0089524B381E0A0
:100EA60090E002C0880F991F6A95E2F78095822329
:100EB60084BB089524B381E090E002C0880F991F97
:100EC6006A95E2F7822B84BB0895442319F04130DA
:100ED60069F0089521B381E090E002C0880F991F60
:100EE6006A95E2F78095822381BB089521B381E05C
:100EF60090E002C0880F991F6A95E2F7822B81BBAA
:020F060008954C
:100F08004F925F926F927F928F929F92AF92BF9211
:100F1800CF92DF92EF92FF92CF93DF9300D000D071
:100F2800CDB7DEB74B015C019B01AC010E94200EDE
:100F38006B017C019B01AC01C501B4010E94200E2C
:100F480069837A838B839C832CE33CE646E356E3F0
:100F5800C701B6010E94200E2FEC37E040E559E3A7
:100F68000E94BB0D2B013C01A7019601C701B601E8
:100F78000E94200E29813A814B815C810E94200EBB
:100F88009B01AC01C301B2010E94200E2B013C0160
:100F980024E838E848E05CE3C701B6010E94200E67
:100FA8002BEA3AEA4AE25EE30E94BB0D29813A81C4
:100FB8004B815C810E94200EA50194010E94BC0D0A
:100FC8009B01AC01C301B2010E94BC0D0F900F90B0
:100FD8000F900F90DF91CF91FF90EF90DF90CF901F
:100FE800BF90AF909F908F907F906F905F904F9041
:020FF80008955A
:100FFA004F925F926F927F928F929F92AF92BF921F
:10100A00CF92DF92EF92FF92CF93DF9300D000D07E
:10101A00CDB7DEB79B01AC010E94200E6B017C01AB
:10102A009B01AC010E94200E2B013C0120E030E024
:10103A0040E05FEBC701B6010E94200E20E030E0DD
:10104A0040E85FE30E94BC0D4B015C012FE93AEADC
:10105A004AE25DE3C301B2010E94200E9B01AC018A
:10106A00C501B4010E94BC0D4B015C0127E13AE9BC
:10107A004CEC57E3C701B6010E94200E2FE334E07F
:10108A0046EB5AE30E94BB0D69837A838B839C8368
:10109A00A3019201C701B6010E94200E9B01AC0177
:1010AA0069817A818B819C810E94200E9B01AC010F
:1010BA00C501B4010E94BC0D0F900F900F900F90C4
:1010CA00DF91CF91FF90EF90DF90CF90BF90AF90DC
:0E10DA009F908F907F906F905F904F90089541
:1010E800DF92EF92FF920F931F93CF93DF938C01C0
:1010F8007B010E949B0DE801045F1F4F0E94AD0D0C
:10110800D82E0E94AD0D6D2D70E0762F6627682BC6
:10111800072E000C880B990B0E94ED0A69937993AE
:10112800899399930C171D0749F70E94AD0D0E94EA
:10113800AD0D0E94AD0DC82F0E94AD0D6C2F70E053
:10114800762F6627682B072E000C880B990B0E94B8
:10115800ED0AF70160837183828393830E94AD0D4A
:10116800C82F0E94AD0D6C2F70E0762F6627682B74
:10117800072E000C880B990B0E94ED0AF701648377
:101188007583868397830E94AD0DC82F0E94B40D86
:101198006C2F70E0762F6627682B072E000C880BC3
:1011A800990B0E94ED0AF701608771878287938700
:1011B8000E94DE0DDF91CF911F910F91FF90EF906C
:0411C800DF90089517
:1011CC004F925F926F927F928F929F92AF92BF924B
:1011DC00CF92DF92EF92FF921F93CF93DF93EA01AE
:1011EC006B017C01CC24F7FCC394DD24EE24FF249A
:1011FC001C2D0E94290E2B013C0123E839EF42E201
:10120C005FE30E94200E20E030E040E05FE30E94AC
:10121C00BC0D0E94C20D6B017C010E94ED0A4B01BA
:10122C005C012AED3FE049EC5FE30E94200E9B013C
:10123C00AC01C301B2010E94BB0D2B013C0123EA9E
:10124C0035E848E852E3C501B4010E94200E9B0129
:10125C00AC01C301B2010E94BB0D112361F0DC0192
:10126C00CB01B05888839983AA83BB83882799279D
:10127C008C199D0905C0688379838A839B83C60179
:10128C00DF91CF911F91FF90EF90DF90CF90BF90A7
:10129C00AF909F908F907F906F905F904F9008953C
:1012AC0010C00E94D00D58F00E94C90D40F029F4D6
:1012BC005F3F29F00C94E40D51110C94D80D0C9453
:1012CC00240E0E94D20B68F39923B1F3552391F3AA
:1012DC00951B550BBB27AA2762177307840738F099
:1012EC009F5F5F4F220F331F441FAA1FA9F335D0F6
:1012FC000E2E3AF0E0E832D091505040E695001CAA
:10130C00CAF72BD0FE2F29D0660F771F881FBB1F63
:10131C00261737074807AB07B0E809F0BB0B802D41
:10132C00BF01FF2793585F4F3AF09E3F510578F06D
:10133C000C94E40D0C94D80D5F3FE4F3983ED4F379
:10134C00869577956795B795F7959F5FC9F7880F41
:10135C00911D9695879597F90895E1E0660F771F93
:10136C00881FBB1F621773078407BA0720F0621B24
:0E137C00730B840BBA0BEE1F88F7E0950895F3
:10138A000FC00E94C90D38F00E94D00D20F095239D
:10139A0011F00C94E40D0C94240E11240C94D80D25
:1013AA000E94D20B70F3959FC1F3950F50E0551F21
:1013BA00629FF001729FBB27F00DB11D639FAA27A0
:1013CA00F00DB11DAA1F649F6627B00DA11D661FEF
:1013DA00829F2227B00DA11D621F739FB00DA11D10
:1013EA00621F839FA00D611D221F749F3327A00DCA
:1013FA00611D231F849F600D211D822F762F6A2F66
:10140A0011249F5750409AF0F1F088234AF0EE0FCA
:10141A00FF1FBB1F661F771F881F91505040A9F7F7
:10142A009E3F510580F00C94E40D0C94D80D5F3F5B
:10143A00E4F3983ED4F3869577956795B795F79533
:10144A00E7959F5FC1F7FE2B880F911D96958795AB
:04145A0097F9089561
:10145E0011C00E94C90D38F00E94D00D20F039F451
:10146E009F3F19F426F40C94240E0EF4E095E7FB3E
:10147E000C94E40DE92F0E94D20B58F3BA176207B1
:10148E0073078407950720F079F4A6F50C94D70D11
:10149E000EF4E0950B2EBA2FA02D0B01B901900181
:1014AE000C01CA01A0011124FF27591B99F0593FC5
:1014BE0050F4503E68F11A16F040A22F232F342F0D
:1014CE004427585FF3CF469537952795A795F0405B
:1014DE005395C9F77EF41F16BA0B620B730B840B70
:1014EE00BAF09150A1F0FF0FBB1F661F771F881F28
:1014FE00C2F70EC0BA0F621F731F841F48F4879580
:10150E0077956795B795F7959E3F08F0B0CF939571
:0E151E00880F08F09927EE0F9795879508958E
:10152C00CF93DF93CDB7DEB7C854D1090FB6F8947B
:10153C00DEBF0FBECDBF60E875E280E00E9476068C
:10154C000E940C0E8CE0FE013196DF01982F1D924B
:10155C009A95E9F73C96DF01982F1D929A95E9F739
:10156C008E01075E1F4FD8011D928A95E9F70E94E4
:10157C00F50CC8010E94D9054CE763E082E00E949B
:10158C00B00B87E00E94570D86B78E7F86BF78948C
:10159C00BE01635F7F4FCE0101960E9474089E01CD
:1015AC00275E3F4FAE01435F5F4FBE016F5F7F4FC2
:1015BC00CE0185960E945D0062E670E0CE018596B4
:0A15CC000E945A030E94FE0DE3CFB7
:1015D600E89409C097FB3EF49095809570956195C7
:1015E6007F4F8F4F9F4F9923A9F0F92F96E9BB277D
:1015F6009395F695879577956795B795F111F8CFF9
:10160600FAF4BB0F11F460FF1BC06F5F7F4F8F4F63
:101616009F4F16C0882311F096E911C0772321F059
:101626009EE8872F762F05C0662371F096E8862FF1
:1016360070E060E02AF09A95660F771F881FDAF748
:0A164600880F9695879597F908958F
:101650001F920F920FB60F9211242F933F934F9327
:101660005F936F937F938F939F93AF93BF93EF930A
:10167000FF93809171009091720001969093720097
:1016800080937100CE9744F082E690E00E94C60CF1
:101690001092720010927100FF91EF91BF91AF9183
:1016A0009F918F917F916F915F914F913F912F917A
:0A16B0000F900FBE0F901F901895C9
:1016BA000E94DA0B88F09F5798F0B92F9927B751F3
:1016CA00B0F0E1F0660F771F881F991F1AF0BA95DC
:1016DA00C9F714C0B13091F00E94D70DB1E0089556
:1016EA000C94D70D672F782F8827B85F39F0B93F48
:1016FA00CCF3869577956795B395D9F73EF490958F
:0E170A008095709561957F4F8F4F9F4F08958A
:10171800990F0008550FAA0BE0E8FEEF16161706FA
:10172800E807F907C0F012161306E407F50798F062
:10173800621B730B840B950B39F40A2661F0232B7B
:10174800242B252B21F408950A2609F4A140A695F7
:081758008FEF811D811D089532
:101760001F93CF93DF93C82FD62F142F0E94160CF0
:101770008FE39CE90197F1F700C000001CBFC33064
:1017800021F40E94100E0E94140E8FE19EE4019736
:10179000F1F700C000008D2F0E947A0DDF91CF91EC
:0417A0001F910895F8
:1017A40057FD9058440F551F59F05F3F71F047950E
:1017B400880F97FB991F61F09F3F79F087950895F3
:1017C400121613061406551FF2CF4695F1DF08C012
:1017D400161617061806991FF1CF8695710561052F
:0417E40008940895C8
:1017E800A1E21A2EAA1BBB1BFD010DC0AA1FBB1F1D
:1017F800EE1FFF1FA217B307E407F50720F0A21B8F
:10180800B30BE40BF50B661F771F881F991F1A94FB
:1018180069F760957095809590959B01AC01BD0125
:04182800CF0108954F
:10182C0093B7977B93BF95E39A95F1F700008130BE
:10183C0051F028F0823059F0833069F0089583B765
:10184C00877B83BF089583B7806483BF089583B774
:0E185C00886083BF089583B7886483BF0895B2
:10186A0095B5977B95BD95E39A95F1F70000813080
:10187A0051F028F0823059F0833069F0089585B527
:10188A00877B85BD089585B5806485BD089585B536
:0E189A00886085BD089585B5886485BD089574
:1018A8001F93CF93DF93182FC4EAD4E8C6BF06B6B8
:1018B80007FEFDCF81B1887F8830C1F713B9D6BF45
:1018C80006B607FEFDCF81B1887F883119F00E94E6
:0C18D800DE0DECCFDF91CF911F91089541
:1018E40094EA96BF06B607FEFDCF91B1987F90317A
:1018F40071F483B984E886BF06B607FEFDCF81B1D3
:10190400887F803431F0803231F083E0089580E0C4
:0A191400089581E0089582E008952F
:10191E002F923F924F925F926F927F928F929F92F1
:10192E00AF92BF92CF92DF92EF92FF920F931F93DF
:10193E00CF93DF93CDB7DEB7CA1BDB0B0FB6F89490
:08194E00DEBF0FBECDBF0994FE
:101956002A88398848885F846E847D848C849B8439
:10196600AA84B984C884DF80EE80FD800C811B8147
:10197600AA81B981CE0FD11D0FB6F894DEBF0FBE76
:06198600CDBFED01089544
:10198C00CF93DF93EC018881882379F021960E9414
:10199C00080E2FEF80E792E0215080409040E1F755
:1019AC0000C0000089918111F2CFDF91CF91089591
:1019BC00052E97FB1EF400940E94A50D57FD07D031
:1019CC000E94F40B07FC03D04EF40C94A50D50951B
:0E19DC004095309521953F4F4F4F5F4F089536
:1019EA002FEF82E597E0215080409040E1F700C058
:1019FA00000087E00E94EA0D80E00E94EF0D88E077
:0C1A0A000E94F40D80E10E94F90D089587
:101A160097FB072E16F4009407D077FD09D00E9495
:101A26001F0D07FC05D03EF4909581959F4F0895B4
:081A3600709561957F4F089542
:101A3E00AA1BBB1B51E107C0AA1FBB1FA617B707E6
:101A4E0010F0A61BB70B881F991F5A95A9F7809502
:081A5E009095BC01CD01089533
:101A6600CF93DF93D82FC62F80ED0E94540C8D2F75
:101A76000E94450D8C2F0E94450D0E94DE0DDF91C0
:041A8600CF9108955F
:101A8A0083B984E886BF06B607FEFDCF81B1887F99
:101A9A00883221F0803321F082E0089580E00895B1
:041AAA0081E008953A
:101AAE00CF93C82F80E00E94350C0E94180E8FE352
:101ABE009CE90197F1F700C000008C2F0E94850D64
:041ACE00CF91089517
:101AD200092E0394000C11F4882352F0BB0F40F43A
:101AE200BF2B11F460FF04C06F5F7F4F8F4F9F4F7A
:021AF200089555
:101AF40093B7987F93BF95E39A95F1F7000093B756
:061B0400892B83BF089548
:101B0A0095B5987F95BD95E39A95F1F7000095B53F
:061B1A00892B85BD089532
:101B2000EC010E942E0E0E942D0ECE010E942F0E5F
:061B3000CE010E942B0E05
:101B360080ED0E94540C8BE30E94450D81ED0E94BE
:041B4600720C089580
:101B4A0090958095709561957F4F8F4F9F4F08951F
:0E1B5A0084EC86BF06B607FEFDCF83B108956A
:0E1B680084E886BF06B607FEFDCF83B1089560
:0E1B76005058BB27AA270E942F0A0C94690D15
:0E1B84000E945D0B6894B1110C94D80D089569
:0E1B920000240A941616170618060906089570
:0E1BA00000240A941216130614060506089572
:0E1BAE00E894BB2766277727CB0197F90895A7
:0C1BBC0084E986BF06B604FCFDCF089546
:0C1BC80097F99F6780E870E060E00895E6
:0A1BD400682F89E10E94330D089587
:0A1BDE00682F8BE60E94330D089576
:0A1BE800682F8BE10E94330D089571
:0A1BF200682F8CE10E94330D089566
:0A1BFC0008B601FEFDCF12BE0895E9
:0A1C06000E948C0B08F48FEF089584
:081C10005D9BFECF8CB9089525
:081C180011B888E480B90895B9
:081C200089B7816089BF0895B6
:081C280089B7826089BF0895AD
:081C300089B7806489BF0895A3
:081C38000E9456090C94690D8D
:081C40000E94C5090C94690D16
:061C48009FEF80EC0895FF
:041C4E000C940000F2
:041C52009F770895DB
:041C56000E945B008D
:021C5A000895EB
:021C5C000895E9
:021C5E000895E7
:0F1C600041000000000000000000000000000034
:00000001FF
