:100000000C942D000C94790F0C94790F0C94790FAB
:100010000C94790F0C94B80C0C94790F0C946D0F10
:100020000C94790F0C94790F0C94790F0C94790F30
:100030000C94790F0C94790F0C94790F0C94790F20
:100040000C94790F0C94790F0C94790F0C94790F10
:100050000C94790F0060009A800011241FBECFE538
:10006000D8E0DEBFCDBFE4E5F0E040E017C0B591D9
:10007000A59135912591059107FD0CC0959185912C
:10008000EF01F92FE82F05900D92A217B307D9F7CA
:10009000FE0104C01D92A217B307E1F7E935F4078A
:0E00A00031F70E94A10A0C94CD0EF894FFCF08
:1000AE002F923F924F925F926F927F928F929F927A
:1000BE00AF92BF92CF92DF92EF92FF920F931F9368
:1000CE00CF93DF93CDB7DEB76C970FB6F894DEBF44
:1000DE000FBECDBF8C011B017A01C22ED32ECE01D5
:1000EE0001964C015A019CE0A90EB11CD7016D91ED
:1000FE007D918D919D917D01F601219131914191DD
:10010E0051916F010E94080FD4016D937D938D93D1
:10011E009D934D01EA14FB0449F720E03CED4FE7B7
:10012E0057E469817A818B819C810E94650FF80169
:10013E0024853585468557850E94090F6B017C0104
:10014E0049845A846B847C8423EC3BEF4EE854E361
:10015E00C301B2010E94690F0E944B064B015C0164
:10016E0020E03CED4FE757E46D817E818F819885CD
:10017E000E94650FD80150962D913D914D915C9145
:10018E0053970E94090F6D877E878F87988BA501E5
:10019E009401C701B6010E94690F9B01AC016D85E8
:1001AE007E858F8598890E94090F9B01AC01F8010D
:1001BE00608B718B828B938BC501B4010E94690F8A
:1001CE009B01AC01C701B6010E94080FD8011C9615
:1001DE006D937D938D939C931F97F10180809180F9
:1001EE00A280B38084819581A681B7818D879E87F9
:1001FE00AF87B88BC084D184E284F384A5019401C7
:10020E00C501B4010E94690F698B7A8B8B8B9C8B15
:10021E002D853E854F855889CA01B9010E94690F07
:10022E006D8B7E8B8F8B988F9B01AC0169897A8940
:10023E008B899C890E94090F698F7A8F8B8F9C8F77
:10024E002D893E894F89588D69897A898B899C8938
:10025E000E94090F698B7A8B8B8B9C8BA701960161
:10026E00C701B6010E94690F9B01AC0169897A89A9
:10027E008B899C890E94090F0E9475056B017C0178
:10028E00A50194015F770E94500F1816BCF4A701C8
:10029E0096016D857E858F8598890E94650F0E94D7
:1002AE00640323EA3CE445E652E40E94690FD80158
:1002BE0058966D937D938D939C935B97F1018481FA
:1002CE009581A681B7819C01AD015F77C701B6010B
:1002DE000E94500F1816B4F4A7019601D1016D912A
:1002EE007D918D919C910E94650F0E94640323EA7B
:1002FE003CE445E652E40E94690FF801648F758F65
:10030E00868F978F2AE037ED43E25DE3D80158964A
:10031E006D917D918D919C915B970E94690F6B0100
:10032E007C012FE832EC45E75FE3F80164857585C3
:10033E00868597850E94690F9B01AC01C701B601A6
:10034E000E94090F4B015C01D8011C966D937D93A1
:10035E008D939C931F972FE832EC45E75FE3509601
:10036E006D917D918D919C9153970E94690F6B01B8
:10037E007C012AE037ED43E25DE3F801648D758D73
:10038E00868D978D0E94690F9B01AC01C701B60146
:10039E000E94090F6B017C01D80150966D937D93DD
:1003AE008D939C93539723E333E343E35FE36D9184
:1003BE007D918D919C910E94690F6D877E878F87AD
:1003CE00988B2AE939E949E95EE3C501B4010E9437
:1003DE00690F9B01AC016D857E858F8598890E9482
:1003EE00090FF801608371838283938323E333E3E0
:1003FE0043E35FE364817581868197810E94690F73
:10040E004B015C012AE939E949E95EE3C701B6010E
:10041E000E94690F9B01AC01C501B4010E94090F36
:10042E00D80114966D937D938D939C931797C3016A
:10043E00B201905820E030E043E852E40E94650F8C
:10044E00F80160877187828793876C960FB6F89450
:10045E00DEBF0FBECDBFDF91CF911F910F91FF90E9
:10046E00EF90DF90CF90BF90AF909F908F907F9046
:0C047E006F905F904F903F902F9008957A
:10048A00EF92FF920F931F93CF93DF938091960081
:10049A00811104C1C0918E00D0918F007E018FEF2F
:1004AA00E81AF80AF0928F00E0928E00E114F10443
:1004BA00B9F480919200909193002091900030912C
:1004CA00910030939300209392009093910080932F
:1004DA009000809197008F5F809397000E94970DFC
:1004EA0080918A0090918B00E816F90610F480E05A
:1004FA00B9C080E061E0E0919200F09193009081B0
:10050A00911107C02FEF3FEF30938B0020938A00A1
:10051A00A9C0E0919200F09193000580F681E02D48
:10052A000680F781E02D22813381E216F30628F452
:10053A0030938B0020938A0095C0A285B3852481CD
:10054A00358146815781E9015D834C832681378154
:10055A0044815581E9015B834A83AF014E5F5F4F56
:10056A0011962D913C9112972417350731F4268163
:10057A00378112963C932E931197138612869C917B
:10058A0091509C93A489B589109719F126853785CE
:10059A0000891189E9011D830C8320893189068527
:1005AA001785E9011B830A8311960D911C911297F5
:1005BA009F01245F3F4F0217130731F420893189C5
:1005CA0012963C932E931197158A148A9C919150F6
:1005DA009C93268990919900921710F42093990080
:1005EA0030E0D901AA0FBB1FAA0FBB1FAA0FBB1F5E
:1005FA002A0F3B1FD901AE59BF4F11960D90BC91DE
:10060A00A02DB583A48314962D913C911597378319
:10061A00268314962D913C911597E9015B834A83B1
:10062A0015965C934E931497A689B0E09D01220F0C
:10063A00331F220F331F220F331FA20FB31FAE59CE
:10064A00BF4FB387A2879C919F5F9C93A091940010
:10065A00B0919500268956969C91921708F04BCF37
:10066A00862F49CFE0919400F0919500268930E0D9
:10067A00F901EE0FFF1FEE0FFF1FEE0FFF1F2E0FE8
:10068A003F1FF901EE59FF4F9081923008F081E047
:10069A0090919800992361F081E00AC080918C00C2
:1006AA0090918D00019690938D0080938C0080E04C
:0E06BA00DF91CF911F910F91FF90EF90089567
:1006C8004F925F926F927F928F929F92AF92BF925A
:1006D800CF92DF92EF92FF92CF93DF9300D000D0BA
:1006E800CDB7DEB76B017C0169837A838B839C83EA
:1006F800DC01CB01BF77009720E8A2072FE3B20700
:1007080028F10097A048BF4369F42BED3FE049EC7E
:100718005FE3C701B6010E94690F20E030E040E8BE
:1007280053E05FC081E290E09093610080936000A5
:10073800A7019601C701B6010E94080F9B01AC01F1
:1007480060E070E0CB010E94650FB6C00097A1057C
:100758004FE3B40708F048C0A058B1090097A105B5
:10076800B94308F4A7C0A7019601C701B6010E94C2
:10077800690F4B015C012BE633ED4DE05CEB0E9409
:10078800690F2AEB33E14FE25DE30E94080FA501F0
:1007980094010E94690F25E73AEA4AE25EE30E9463
:1007A800090FA50194010E94690F2B013C012EEA53
:1007B80035EE44E35FEBC501B4010E94690F20E008
:1007C80030E040E85FE30E94090F9B01AC01C301E0
:1007D800B2010E94650FA70196010E94690FA70147
:1007E80096010E94090F68C0C701B6010E947D0FDB
:1007F8009B01AC0160E070E080E89FE30E94080F75
:1008080020E030E040E05FE30E94690F6B017C016B
:100818000E9475054B015C012BE633ED4DE05CEB66
:10082800C701B6010E94690F2AEB33E14FE25DE38D
:100838000E94080FA70196010E94690F25E73AEA6E
:100848004AE25EE30E94090FA70196010E94690F20
:100858002B013C012EEA35EE44E35FEBC701B601FC
:100868000E94690F20E030E040E85FE30E94090F32
:100878009B01AC01C301B2010E94650FA50194015F
:100888000E94690FA50194010E94090F9B01AC0108
:100898000E94090F9B01AC016BED7FE089EC9FE39F
:1008A8000E94080F29813A814B815C8157FF04C05F
:1008B800905802C0C701B6010F900F900F900F908B
:1008C800DF91CF91FF90EF90DF90CF90BF90AF90E6
:0E08D8009F908F907F906F905F904F9008954B
:1008E6004F925F926F927F928F929F92AF92BF923A
:1008F600CF92DF92EF92FF920F931F93CF93DF93E6
:10090600CDB7DEB728970FB6F894DEBF0FBECDBFC2
:100916008B01DC014D905D906D907C901397530197
:100926004201E894B7F81496CD90DD90ED90FC90D6
:100936001797D701C601BF778D839E83AF83B8878C
:100946009C01AD01C501B4010E94500F18162CF58B
:1009560020E030E0A901C301B2010E94500F181631
:100966002CF00F2EF3E5FF2EF02D04C00F2EF7E529
:10097600FF2EF02D20E030E04FE753E4C501B4012F
:100986000E94690F20E030E044EB52E40E94650FBC
:100996000E940F0F262F872F26C020E030E0A901E6
:1009A600C701B6010E94500F18162CF00F2EF1E465
:1009B600FF2EF02D04C00F2EF4E4FF2EF02D20E0C4
:1009C60030E04FE753E46D817E818F8198850E94E8
:1009D600690F20E030E044EB52E40E94650F0E946C
:1009E6000F0F262F872FE22FF82FEF3FF10519F073
:1009F60014F0EFEFF0E0FF2314F4E0E0F0E08DE216
:100A0600D8018C9388E211968C9311971296FC92DA
:100A1600129799E213969C93139714968C93CF0191
:100A260020E030E00F2EFAE0CF2ED12CF02D01C0C1
:100A360097017901BFEFEB1AFB0AB6010E942B0E54
:100A4600CB0118161906A4F33323C4F09701CE017F
:100A56000196280F391F6C010F2EFAE0AF2EB12C2C
:100A6600F02DCF01B5010E942B0E805DF901829316
:100A76009F01E62FF72F2C153D0599F7FE01EE0D88
:100A8600FF1D11822981222361F0D8011596FE01EE
:100A9600329685E090E001962D9321912111FBCFAE
:100AA60002C085E090E0F801E80FF91F89E2808333
:100AB6008DE28183128228960FB6F894DEBF0FBEB0
:100AC600CDBFDF91CF911F910F91FF90EF90DF90F7
:100AD600CF90BF90AF909F908F907F906F905F90D8
:040AE6004F90089590
:100AEA00A4E0B0E0EBE7F5E00C94B50D8B019C01B6
:100AFA00AC0140785F776B017C0140385F4761F455
:100B0A00E894E7F8FF24C114D104E104F10409F0E0
:100B1A00ACC097FDAAC0AEC0E894F7F8C114D104DE
:100B2A00E104F10409F4A6C097FF07C081E290E04E
:100B3A00909361008093600098C0DC01CB0167E16B
:100B4A00B595A795979587956A95D1F70097A105C9
:100B5A00B105B9F480E090E0DC0127FD08C0000F80
:100B6A00111F221F331F0196A11DB11DF6CF019738
:100B7A00A109B109B095A095909581959F4FAF4F66
:100B8A00BF4F8F579109A109B1092F7733272068E1
:100B9A0080FF04C0000F111F221F331FAC01BD01CB
:100BAA00759567955795479549835A836B837C83D7
:100BBA00000F111F221F331F49E150E0812C912C95
:100BCA005401B394C12CD12C760180E090E0DC0171
:100BDA002C013D01480C591C6A1C7B1C0415150587
:100BEA002605370574F0D301C201880D991DAA1D87
:100BFA00BB1D0419150926093709C80CD91CEA1C9A
:100C0A00FB1C000F111F221F331FB694A794979441
:100C1A00879441505109E1F6011511052105310565
:100C2A0051F0970186010170112722273327C00E40
:100C3A00D11EE21EF31EF594E794D794C79451ECA3
:100C4A00F51A89819A81AB81BC8127E1880F991FA6
:100C5A00AA1FBB1F2A95D1F78C0D9D1DAE1DBF1D66
:100C6A00482F392F2A2F5B2F09C040E030E020ECB3
:100C7A005FE704C0462F372F282F592F642F732F71
:0C0C8A00822F952F2496E0E10C94D10DF0
:100C9600A4E0B0E0E1E5F6E00C94BD0D8B019C010B
:100CA6003F770B3D4FE0140749E424074FE3340731
:100CB60048F40115110540E8240749E3340708F410
:100CC6008AC07BC06B017C01CC24F7FCC394DD2475
:100CD600EE24FF24023D43E514074BE7240740E4D6
:100CE600340708F5043E4BEC140746E1240740E4BC
:100CF600340760F42BED3FE049EC5FE3CC2019F0BC
:100D06000E94090F60C00E94080F5AC02BED3FE0F9
:100D160049E450E4CC2019F00E94090F02C00E9459
:100D2600080F90584AC0063D41E3140742EE2407D7
:100D360040E4340700F5003E4DEE14074FEA240761
:100D460040E4340760F424EE3BEC46E950E4CC2062
:100D560019F00E94090F34C00E94080F34C02BED11
:100D66003FE049EC50E4CC2019F00E94090F25C061
:100D76000E94080F22C00115110540E824074FE71D
:100D8600340728F5AE014F5F5F4F0E94F108282F08
:100D9600237069817A818B819C81213089F048F0AA
:100DA600223089F4DC01CB01B05889839A83AB8366
:100DB600BC8369817A818B819C810E948F070BC0DD
:100DC6000E94080808C00E940808905804C06FEFE7
:0E0DD6007FEF8FEF9FE72496E8E00C94D90D95
:100DE4002F923F924F925F926F927F928F929F9237
:100DF400AF92BF92CF92DF92EF92FF920F931F9325
:100E0400CF93DF93CDB7DEB7A6970FB6F894DEBFC6
:100E14000FBECDBF8DA39EA319821A821B821C8292
:100E24001D821E821F82188619861A861B861C86BE
:100E34000F2EF0EDAF2EF7E0BF2EF02D1E018DE04A
:100E4400280E311CB101CE0149960E947F08710120
:100E5400FE0131964F0161018F01F70141905190DC
:100E6400619071907F01F801608171818281938129
:100E74000E94CB0BA30192010E94090F0E940F0F45
:100E8400F80161937193819391938F01EC15FD05A2
:100E940021F78FED9EE20197F1F700C0000091E089
:100EA400A91AB10879F60DA11EA10F2EF0ED4F2E4F
:100EB400F7E05F2E612C712CF02DF401619171919A
:100EC400819191914F01A30192010E94EA0DCA01FF
:100ED400B9010E94CB0BF8016193719381939193B3
:100EE4008F018C149D0449F7A6960FB6F894DEBFC3
:100EF4000FBECDBFDF91CF911F910F91FF90EF9067
:100F0400DF90CF90BF90AF909F908F907F906F9025
:0A0F14005F904F903F902F900895DA
:100F1E004F925F926F927F928F929F92AF92BF92FB
:100F2E00CF92DF92EF92FF92CF93DF9300D000D05B
:100F3E00CDB7DEB74B015C019B01AC010E94690F7E
:100F4E006B017C019B01AC01C501B4010E94690FCC
:100F5E0069837A838B839C832CE33CE646E356E3DA
:100F6E00C701B6010E94690F2FEC37E040E559E347
:100F7E000E94080F2B013C01A7019601C701B60183
:100F8E000E94690F29813A814B815C810E94690F11
:100F9E009B01AC01C301B2010E94690F2B013C0100
:100FAE0024E838E848E05CE3C701B6010E94690F07
:100FBE002BEA3AEA4AE25EE30E94080F29813A815F
:100FCE004B815C810E94690FA50194010E94090F5B
:100FDE009B01AC01C301B2010E94090F0F900F904B
:100FEE000F900F90DF91CF91FF90EF90DF90CF9009
:100FFE00BF90AF909F908F907F906F905F904F902B
:02100E00089543
:101010004F925F926F927F928F929F92AF92BF9208
:10102000CF92DF92EF92FF92CF93DF9300D000D068
:10103000CDB7DEB79B01AC010E94690F6B017C014B
:101040009B01AC010E94690F2B013C0120E030E0C4
:1010500040E05FEBC701B6010E94690F20E030E07D
:1010600040E85FE30E94090F4B015C012FE93AEA77
:101070004AE25DE3C301B2010E94690F9B01AC012A
:10108000C501B4010E94090F4B015C0127E13AE957
:101090004CEC57E3C701B6010E94690F2FE334E01F
:1010A00046EB5AE30E94080F69837A838B839C8303
:1010B000A3019201C701B6010E94690F9B01AC0117
:1010C00069817A818B819C810E94690F9B01AC01AF
:1010D000C501B4010E94090F0F900F900F900F905F
:1010E000DF91CF91FF90EF90DF90CF90BF90AF90C6
:0E10F0009F908F907F906F905F904F9008952B
:1010FE00DF92EF92FF920F931F93CF93DF938C01AA
:10110E007B010E94D80EE801045F1F4F0E94FA0E69
:10111E00D82E0E94FA0E6D2D70E0762F6627682B62
:10112E00072E000C880B990B0E94CB0B69937993B9
:10113E00899399930C171D0749F70E94FA0E0E9486
:10114E00FA0E0E94FA0EC82F0E94FA0E6C2F70E053
:10115E00762F6627682B072E000C880B990B0E94A2
:10116E00CB0BF70160837183828393830E94FA0E07
:10117E00C82F0E94FA0E6C2F70E0762F6627682B10
:10118E00072E000C880B990B0E94CB0BF701648382
:10119E007583868397830E94FA0EC82F0E94010FD3
:1011AE006C2F70E0762F6627682B072E000C880BAD
:1011BE00990B0E94CB0BF70160877187828793870B
:1011CE000E942B0FDF91CF911F910F91FF90EF9007
:0411DE00DF90089501
:1011E2004F925F926F927F928F929F92AF92BF9235
:1011F200CF92DF92EF92FF921F93CF93DF93EA0198
:101202006B017C01CC24F7FCC394DD24EE24FF2483
:101212001C2D0E947D0F2B013C0123E839EF42E295
:101222005FE30E94690F20E030E040E05FE30E944C
:10123200090F0E940F0F6B017C010E94CB0B4B0127
:101242005C012AED3FE049EC5FE30E94690F9B01DC
:10125200AC01C301B2010E94080F2B013C0123EA39
:1012620035E848E852E3C501B4010E94690F9B01C9
:10127200AC01C301B2010E94080F112361F0DC012D
:10128200CB01B05888839983AA83BB838827992787
:101292008C199D0905C0688379838A839B83C60163
:1012A200DF91CF911F91FF90EF90DF90CF90BF9091
:1012B200AF909F908F907F906F905F904F90089526
:1012C20010C00E941D0F58F00E94160F40F029F422
:1012D2005F3F29F00C94310F51110C94250F0C949F
:1012E200760F0E94DA0C68F39923B1F3552391F338
:1012F200951B550BBB27AA2762177307840738F083
:101302009F5F5F4F220F331F441FAA1FA9F335D0DF
:101312000E2E3AF0E0E832D091505040E695001C93
:10132200CAF72BD0FE2F29D0660F771F881FBB1F4D
:10133200261737074807AB07B0E809F0BB0B802D2B
:10134200BF01FF2793585F4F3AF09E3F510578F057
:101352000C94310F0C94250F5F3FE4F3983ED4F3C5
:10136200869577956795B795F7959F5FC9F7880F2B
:10137200911D9695879597F90895E1E0660F771F7D
:10138200881FBB1F621773078407BA0720F0621B0E
:0E139200730B840BBA0BEE1F88F7E0950895DD
:1013A0000FC00E94160F38F00E941D0F20F09523E9
:1013B00011F00C94310F0C94760F11240C94250F1E
:1013C0000E94DA0C70F3959FC1F3950F50E0551F02
:1013D000629FF001729FBB27F00DB11D639FAA278A
:1013E000F00DB11DAA1F649F6627B00DA11D661FD9
:1013F000829F2227B00DA11D621F739FB00DA11DFA
:10140000621F839FA00D611D221F749F3327A00DB3
:10141000611D231F849F600D211D822F762F6A2F4F
:1014200011249F5750409AF0F1F088234AF0EE0FB4
:10143000FF1FBB1F661F771F881F91505040A9F7E1
:101440009E3F510580F00C94310F0C94250F5F3FA7
:10145000E4F3983ED4F3869577956795B795F7951D
:10146000E7959F5FC1F7FE2B880F911D9695879595
:0414700097F908954B
:1014740011C00E94160F38F00E941D0F20F039F49D
:101484009F3F19F426F40C94760F0EF4E095E7FBD5
:101494000C94310FE92F0E94DA0C58F3BA17620743
:1014A40073078407950720F079F4A6F50C94240FAC
:1014B4000EF4E0950B2EBA2FA02D0B01B90190016B
:1014C4000C01CA01A0011124FF27591B99F0593FAF
:1014D40050F4503E68F11A16F040A22F232F342FF7
:1014E4004427585FF3CF469537952795A795F04045
:1014F4005395C9F77EF41F16BA0B620B730B840B5A
:10150400BAF09150A1F0FF0FBB1F661F771F881F11
:10151400C2F70EC0BA0F621F731F841F48F4879569
:1015240077956795B795F7959E3F08F0B0CF93955B
:0E153400880F08F09927EE0F97958795089578
:10154200CF93DF93CDB7DEB7C755D1090FB6F89465
:10155200DEBF0FBECDBF41E060E080E895E20E94B1
:10156200060C0E94550F8CE0FE017096DF01982F49
:101572001D929A95E9F73C96DF01982F1D929A9554
:10158200E9F78E01085D1F4FD8011D928A95E9F790
:10159200CE01C4960E94510E0E94010EC8010E9403
:1015A200F20687E00E94750E4CE763E082E00E943B
:1015B2006B0C78948091860090918700892B41F082
:1015C200CE0101960E94A80E10928700109286000A
:1015D200BE01645E7F4FCE0140960E947F089E014D
:1015E200285D3F4FAE01445E5F4FBE01605F7F4F9B
:1015F200CE01C4960E945700BE016F5F7F4FCE019D
:0C160200C4960E9473040E944B0FD4CFCA
:10160E0080919600882321F081E0809398000895C0
:10161E001092980020919900822F90E0FC01EE0F1D
:10162E00FF1FEE0FFF1FEE0FFF1FE80FF91FEE5902
:10163E00FF4F3081311111C02150822F90E0FC01FB
:10164E00EE0FFF1FEE0FFF1FEE0FFF1FE80FF91F2C
:10165E00EE59FF4F3081332379F3AC01440F551F00
:10166E00440F551F440F551F480F591FDA01AE592D
:10167E00BF4F1196ED91FC9112970280F381E02DF0
:10168E001296FC93EE9311974B595F4FE417F507A3
:10169E0029F442815381FD0152834183FC01EE0FF7
:1016AE00FF1FEE0FFF1FEE0FFF1F8E0F9F1FFC0180
:1016BE00EE59FF4F0180F281E02D86819781909344
:0C16CE00950080939400209399000895EB
:1016DA000F920FB6F8940F921F9211242F923F92F5
:1016EA004F925F926F927F928F929F92AF92BF9228
:1016FA00CF92DF92EF92FF920F931F932F933F9314
:10170A004F935F936F937F938F939F93AF93BF93FF
:10171A00CF93DF93EF93FF93A0919400B09195003C
:10172A000DB60D920EB60D920E94450281110E94CD
:10173A00070BA0919400B0919500CD91CDBFDD919A
:10174A00DEBFFF91EF91DF91CF91BF91AF919F9152
:10175A008F917F916F915F914F913F912F911F913F
:10176A000F91FF90EF90DF90CF90BF90AF909F9036
:10177A008F907F906F905F904F903F902F901F9027
:08178A000F900FBE0F900895AF
:10179200E89409C097FB3EF4909580957095619509
:1017A2007F4F8F4F9F4F9923A9F0F92F96E9BB27BF
:1017B2009395F695879577956795B795F111F8CF3B
:1017C200FAF4BB0F11F460FF1BC06F5F7F4F8F4FA6
:1017D2009F4F16C0882311F096E911C0772321F09C
:1017E2009EE8872F762F05C0662371F096E8862F34
:1017F20070E060E02AF09A95660F771F881FDAF78B
:0A180200880F9695879597F90895D1
:10180C001F93CF93DF93EC01862F142F0E94980E19
:10181C008AE18A95F1F700C0BE01DD0F880B990BA8
:10182C000E94CB0B9B01AC0160E074E284E799E46D
:10183C000E94650F20E030E040E85FE30E94080F53
:10184C000E940F0FCB010E94730F8AE18A95F1F76A
:10185C0000C0812F0E94E20E8AE18A95F1F700C048
:0C186C000E947B0FDF91CF911F91089527
:101878000E94E20C88F09F5798F0B92F9927B7512A
:10188800B0F0E1F0660F771F881F991F1AF0BA951C
:10189800C9F714C0B13091F00E94240FB1E0089547
:1018A8000C94240F672F782F8827B85F39F0B93F39
:1018B800CCF3869577956795B395D9F73EF49095CF
:0E18C8008095709561957F4F8F4F9F4F0895CB
:1018D6001F93CF93DF93C82F162FD42F0E941E0D70
:1018E6008FE39CE90197F1F700C00000DCBFC1302F
:1018F60058F0C33038F0C33039F40E94590F0E94B3
:101906005D0F02C00E945D0F8FE19EE40197F1F723
:1019160000C00000812F0E94B70EDF91CF911F916A
:02192600089522
:10192800990F0008550FAA0BE0E8FEEF16161706E8
:10193800E807F907C0F012161306E407F50798F050
:10194800621B730B840B950B39F40A2661F0232B69
:10195800242B252B21F408950A2609F4A140A695E5
:081968008FEF811D811D089520
:101970001F921FB61F9211248F939F93809188000E
:1019800090918900019690938900809388008F310F
:10199000910551F481E090E0909387008093860058
:1019A00010928900109288009F918F911F901FBE06
:0419B0001F901895D7
:1019B40057FD9058440F551F59F05F3F71F04795FC
:1019C400880F97FB991F61F09F3F79F087950895E1
:1019D400121613061406551FF2CF4695F1DF08C000
:1019E400161617061806991FF1CF8695710561051D
:0419F40008940895B6
:1019F800A1E21A2EAA1BBB1BFD010DC0AA1FBB1F0B
:101A0800EE1FFF1FA217B307E407F50720F0A21B7C
:101A1800B30BE40BF50B661F771F881F991F1A94E9
:101A280069F760957095809590959B01AC01BD0113
:041A3800CF0108953D
:101A3C0093B7977B93BF95E39A95F1F700008130AC
:101A4C0051F028F0823059F0833069F0089583B753
:101A5C00877B83BF089583B7806483BF089583B762
:0E1A6C00886083BF089583B7886483BF0895A0
:101A7A0095B5977B95BD95E39A95F1F7000081306E
:101A8A0051F028F0823059F0833069F0089585B515
:101A9A00877B85BD089585B5806485BD089585B524
:0E1AAA00886085BD089585B5886485BD089562
:101AB8001F93CF93DF93182FC4EAD4E8C6BF06B6A6
:101AC80007FEFDCF81B1887F8830C1F713B9D6BF33
:101AD80006B607FEFDCF81B1887F883119F00E94D4
:0C1AE8002B0FECCFDF91CF911F910895E0
:101AF40094EA96BF06B607FEFDCF91B1987F903168
:101B040071F483B984E886BF06B607FEFDCF81B1C0
:101B1400887F803431F0803231F083E0089580E0B2
:0A1B2400089581E0089582E008951D
:101B2E00E0919200F09193008081811107C08FEFB8
:101B3E009FEF90938B0080938A000895E09192001E
:101B4E00F09193000580F681E02D80819181909334
:081B5E008B0080938A000895BA
:101B66002F923F924F925F926F927F928F929F92A7
:101B7600AF92BF92CF92DF92EF92FF920F931F9395
:101B8600CF93DF93CDB7DEB7CA1BDB0B0FB6F89446
:081B9600DEBF0FBECDBF0994B4
:101B9E002A88398848885F846E847D848C849B84EF
:101BAE00AA84B984C884DF80EE80FD800C811B81FD
:101BBE00AA81B981CE0FD11D0FB6F894DEBF0FBE2C
:061BCE00CDBFED010895FA
:101BD400052E97FB1EF400940E94F20E57FD07D0C9
:101BE4000E94FC0C07FC03D04EF40C94F20E5095AA
:0E1BF4004095309521953F4F4F4F5F4F08951C
:101C02002FEF82E597E0215080409040E1F700C03D
:101C1200000087E00E94370F80E00E943C0F88E0BE
:0C1C22000E94410F80E10E94460F0895CF
:101C2E00AA1BBB1B51E107C0AA1FBB1FA617B707F4
:101C3E0010F0A61BB70B881F991F5A95A9F7809510
:081C4E009095BC01CD01089541
:101C560097FB072E16F4009407D077FD09D00E9453
:101C6600170E07FC05D03EF4909581959F4F089579
:081C7600709561957F4F089500
:101C7E00CF93DF93D82FC62F80ED0E945C0D8D2F52
:101C8E000E94630E8C2F0E94630E0E942B0FDF9119
:041C9E00CF91089545
:101CA200FC010C96119211921192119210861186DA
:101CB20012861386148A158A168A178AE817F90774
:041CC20089F7089501
:101CC60083B984E886BF06B607FEFDCF81B1887F5B
:101CD600883221F0803321F082E0089580E0089573
:041CE60081E00895FC
:101CEA00CF93C82F80E00E943D0D0E94610F8FE3C1
:101CFA009CE90197F1F700C000008C2F0E94C20EE8
:041D0A00CF910895D8
:101D0E00092E0394000C11F4882352F0BB0F40F4FB
:101D1E00BF2B11F460FF04C06F5F7F4F8F4F9F4F3B
:021D2E00089516
:101D3000882319F0813041F0089580B590B580680E
:101D4000877F892B80BD089580B5886880BD089500
:101D5000CF93DF93EC018881882331F021960E9494
:0E1D6000EA0E89918111FBCFDF91CF9108959A
:101D6E0093B7987F93BF95E39A95F1F7000093B7D9
:061D7E00892B83BF0895CC
:101D840095B5987F95BD95E39A95F1F7000095B5C3
:061D9400892B85BD0895B6
:101D9A00EC010E94820F0E94810FCE010E94830FE4
:061DAA00CE010E947F0F34
:101DB00080ED0E945C0D8BE30E94630E81ED0E941A
:041DC0007A0D0895FB
:101DC4002AB138E0839FC0011124822B8AB9089577
:101DD400CF93C82F5E980E94700FCCB9CF9108950D
:101DE40090958095709561957F4F8F4F9F4F089583
:0E1DF40084EC86BF06B607FEFDCF83B10895CE
:0E1E020084E886BF06B607FEFDCF83B10895C3
:0E1E10005058BB27AA270E943A0A0C94870E4E
:0E1E1E000E943C0C6894B1110C94250F08959D
:0E1E2C0000240A9416161706180609060895D3
:0E1E3A0000240A9412161306140605060895D5
:0E1E4800E894BB2766277727CB0197F908950A
:0C1E560084E986BF06B604FCFDCF0895A9
:0C1E620097F99F6780E870E060E0089549
:0A1E6E00682F89E10E943F0E0895DD
:0A1E7800682F8BE60E943F0E0895CC
:0A1E8200682F8BE10E943F0E0895C7
:0A1E8C00682F8CE10E943F0E0895BC
:0A1E960008B601FEFDCF12BE08954C
:0A1EA0000E94940C08F48FEF0895DF
:081EAA0011B888E480B9089525
:081EB20089B7816089BF089522
:081EBA0089B7826089BF089519
:081EC20089B7806489BF08950F
:081ECA000E9461090C94870ECF
:081ED2000E94D0090C94870E58
:061EDA000E946D0B18953B
:061EE0005D9BFECF08959A
:061EE60089B990BD0895CA
:061EEC009FEF80EC089559
:041EF2000C9400004C
:041EF600579A08955A
:041EFA009F77089531
:041EFE000E945500E9
:021F0200089540
:021F040008953E
:021F060008953C
:00000001FF
