:100000000C942D000C94B5090C94B5090C94B50909
:100010000C94B5090C94B5090C94B5090C94AF096E
:100020000C94B5090C94B5090C94B5090C94B50958
:100030000C94B5090C94B5090C94B5090C94B50948
:100040000C94B5090C94B5090C94B5090C94B50938
:100050000C94B50900600094800011241FBECFE508
:10006000D8E0DEBFCDBFE4E5F0E040E017C0B591D9
:10007000A59135912591059107FD0CC0959185912C
:10008000EF01F92FE82F05900D92A217B307D9F7CA
:10009000FE0104C01D92A217B307E1F7E935F4078A
:0E00A00031F70E9497060C941F09F894FFCFC9
:1000AE00EF92FF920F931F93CF93DF938091900067
:1000BE00811104C1C0918800D09189007E018FEF1B
:1000CE00E81AF80AF0928900E0928800E114F1042F
:1000DE00B9F480918C0090918D0020918A0030911E
:1000EE008B0030938D0020938C0090938B00809327
:1000FE008A00809191008F5F809391000E94470843
:10010E008091840090918500E816F90610F480E045
:10011E00B9C080E061E0E0918C00F0918D0090819B
:10012E00911107C02FEF3FEF30938500209384008D
:10013E00A9C0E0918C00F0918D000580F681E02D34
:10014E000680F781E02D22813381E216F30628F432
:10015E00309385002093840095C0A285B3852481B9
:10016E00358146815781E9015D834C832681378134
:10017E0044815581E9015B834A83AF014E5F5F4F36
:10018E0011962D913C9112972417350731F4268143
:10019E00378112963C932E931197138612869C915B
:1001AE0091509C93A489B589109719F126853785AE
:1001BE0000891189E9011D830C8320893189068507
:1001CE001785E9011B830A8311960D911C911297D5
:1001DE009F01245F3F4F0217130731F420893189A5
:1001EE0012963C932E931197158A148A9C919150D6
:1001FE009C93268990919300921710F4209393006C
:10020E0030E0D901AA0FBB1FAA0FBB1FAA0FBB1F3D
:10021E002A0F3B1FD901A05ABF4F11960D90BC91CA
:10022E00A02DB583A48314962D913C9115973783F9
:10023E00268314962D913C911597E9015B834A8391
:10024E0015965C934E931497A689B0E09D01220FEC
:10025E00331F220F331F220F331FA20FB31FA05ABB
:10026E00BF4FB387A2879C919F5F9C93A0918E00F6
:10027E00B0918F00268956969C91921708F04BCF1D
:10028E00862F49CFE0918E00F0918F00268930E0C5
:10029E00F901EE0FFF1FEE0FFF1FEE0FFF1F2E0FC8
:1002AE003F1FF901E05AFF4F9081923008F081E034
:1002BE0090919200992361F081E00AC080918600AE
:1002CE00909187000196909387008093860080E03E
:0E02DE00DF91CF911F910F91FF90EF90089547
:1002EC004F925F926F927F928F929F92AF92BF923A
:1002FC00CF92DF92EF92FF920F931F93CF93DF93E6
:10030C00CDB7DEB728970FB6F894DEBF0FBECDBFC2
:10031C008B01DC014D905D906D907C901397530197
:10032C004201E894B7F81496CD90DD90ED90FC90D6
:10033C001797D701C601BF778D839E83AF83B8878C
:10034C009C01AD01C501B4010E94920918162CF54F
:10035C0020E030E0A901C301B2010E9492091816F5
:10036C002CF00F2EF3E5FF2EF02D04C00F2EF7E529
:10037C00FF2EF02D20E030E04FE753E4C501B4012F
:10038C000E94AB0920E030E044EB52E40E94A70944
:10039C000E945109262F872F26C020E030E0A901AA
:1003AC00C701B6010E94920918162CF00F2EF1E429
:1003BC00FF2EF02D04C00F2EF4E4FF2EF02D20E0C4
:1003CC0030E04FE753E46D817E818F8198850E94E8
:1003DC00AB0920E030E044EB52E40E94A7090E94F4
:1003EC005109262F872FE22FF82FEF3FF10519F037
:1003FC0014F0EFEFF0E0FF2314F4E0E0F0E08DE216
:10040C00D8018C9388E211968C9311971296FC92DA
:10041C00129799E213969C93139714968C93CF0191
:10042C0020E030E00F2EFAE0CF2ED12CF02D01C0C1
:10043C0097017901BFEFEB1AFB0AB6010E94B908CC
:10044C00CB0118161906A4F33323C4F09701CE017F
:10045C000196280F391F6C010F2EFAE0AF2EB12C2C
:10046C00F02DCF01B5010E94B908805DF90182938E
:10047C009F01E62FF72F2C153D0599F7FE01EE0D88
:10048C00FF1D11822981222361F0D8011596FE01EE
:10049C00329685E090E001962D9321912111FBCFAE
:1004AC0002C085E090E0F801E80FF91F89E2808333
:1004BC008DE28183128228960FB6F894DEBF0FBEB0
:1004CC00CDBFDF91CF911F910F91FF90EF90DF90F7
:1004DC00CF90BF90AF909F908F907F906F905F90D8
:0404EC004F90089590
:1004F0002F923F924F925F926F927F928F929F9234
:10050000AF92BF92CF92DF92EF92FF920F931F9321
:10051000CF93DF93CDB7DEB7A6970FB6F894DEBFC3
:100520000FBECDBF8DA39EA319821A821B821C828F
:100530001D821E821F82188619861A861B861C86BB
:100540000F2EF0EDAF2EF7E0BF2EF02D1E018DE047
:10055000280E311CB101CE0149960E94230471017D
:10056000FE0131964F0161018F01F70141905190D9
:10057000619071907F01F801608171818281938126
:100580000E94F206A30192010E944B090E945109A8
:10059000F80161937193819391938F01EC15FD059F
:1005A00021F78FED9EE20197F1F700C0000091E086
:1005B000A91AB10879F60DA11EA10F2EF0ED4F2E4C
:1005C000F7E05F2E612C712CF02DF4016191719197
:1005D000819191914F01A30192010E946308CA0188
:1005E000B9010E94F206F80161937193819391938E
:1005F0008F018C149D0449F7A6960FB6F894DEBFC0
:100600000FBECDBFDF91CF911F910F91FF90EF9063
:10061000DF90CF90BF90AF909F908F907F906F9022
:0A0620005F904F903F902F900895D7
:10062A00CF93DF93EB01813061F138F0823009F426
:10063A004CC0833009F471C07FC0599880B58F7B54
:10064A00806880BD8FE19EE40197F1F700C0000049
:10065A00072E000C880B990B0E94F2069B01AC0135
:10066A0060E074E284E799E40E94A70920E030E0A0
:10067A0040E85FE30E944A090E94510970BD69B9C6
:10068A005BC0599A80B58F7B806880BD8FE19EE4FC
:10069A000197F1F700C00000072E000C880B990B98
:1006AA000E94F2069B01AC0160E074E284EF99E4D7
:1006BA000E94A70920E030E040E85FE30E944A096F
:1006CA000E94510970BD69B937C0599880B5806CCC
:1006DA0080BD41E060E081E00E94AA038FE19EE4D0
:1006EA000197F1F700C00000BE01DD0F880B990BDE
:1006FA000E94F2069B01AC0160E074E284EF9AE486
:10070A000E94A70920E030E040E85FE30E944A091E
:10071A000E94510970BD69B90FC0599880B5806CA3
:10072A0080BD40E060E081E00E94AA038FE19EE480
:10073A000197F1F700C0000080B5866880BD8AB1D4
:0A074A0088618AB9DF91CF9108950C
:10075400813019F130F08230E1F1833009F455C071
:100764000895442319F0413069F008952AB381E0D3
:1007740090E002C0880F991F6A95E2F78095822362
:100784008ABB08952AB381E090E002C0880F991FC4
:100794006A95E2F7822B8ABB0895442319F041300D
:1007A40069F0089527B381E090E002C0880F991F93
:1007B4006A95E2F78095822387BB089527B381E089
:1007C40090E002C0880F991F6A95E2F7822B87BBDD
:1007D4000895442319F0413069F0089524B381E069
:1007E40090E002C0880F991F6A95E2F780958223F2
:1007F40084BB089524B381E090E002C0880F991F60
:100804006A95E2F7822B84BB0895442319F04130A2
:1008140069F0089521B381E090E002C0880F991F28
:100824006A95E2F78095822381BB089521B381E024
:1008340090E002C0880F991F6A95E2F7822B81BB72
:02084400089515
:10084600DF92EF92FF920F931F93CF93DF938C016A
:100856007B010E942A09E801045F1F4F0E943C09A0
:10086600D82E0E943C096D2D70E0762F6627682BE6
:10087600072E000C880B990B0E94F2066993799358
:10088600899399930C171D0749F70E943C090E940A
:100896003C090E943C09C82F0E943C096C2F70E05D
:1008A600762F6627682B072E000C880B990B0E9463
:1008B600F206F70160837183828393830E943C0969
:1008C600C82F0E943C096C2F70E0762F6627682B94
:1008D600072E000C880B990B0E94F206F701648321
:1008E6007583868397830E943C09C82F0E9443091B
:1008F6006C2F70E0762F6627682B072E000C880B6E
:10090600990B0E94F206F7016087718782879387A9
:100916000E946D09DF91CF911F910F91FF90EF908B
:04092600DF900895C1
:10092A0010C00E945F0958F00E94580940F029F44B
:10093A005F3F29F00C94730951110C9467090C94C8
:10094A00B2090E94A90768F39923B1F3552391F3D9
:10095A00951B550BBB27AA2762177307840738F024
:10096A009F5F5F4F220F331F441FAA1FA9F335D081
:10097A000E2E3AF0E0E832D091505040E695001C35
:10098A00CAF72BD0FE2F29D0660F771F881FBB1FEF
:10099A00261737074807AB07B0E809F0BB0B802DCD
:1009AA00BF01FF2793585F4F3AF09E3F510578F0F9
:1009BA000C9473090C9467095F3FE4F3983ED4F3EF
:1009CA00869577956795B795F7959F5FC9F7880FCD
:1009DA00911D9695879597F90895E1E0660F771F1F
:1009EA00881FBB1F621773078407BA0720F0621BB0
:0E09FA00730B840BBA0BEE1F88F7E09508957F
:100A08000FC00E94580938F00E945F0920F0952312
:100A180011F00C9473090C94B20911240C94670911
:100A28000E94A90770F3959FC1F3950F50E0551FD9
:100A3800629FF001729FBB27F00DB11D639FAA272B
:100A4800F00DB11DAA1F649F6627B00DA11D661F7A
:100A5800829F2227B00DA11D621F739FB00DA11D9B
:100A6800621F839FA00D611D221F749F3327A00D55
:100A7800611D231F849F600D211D822F762F6A2FF1
:100A880011249F5750409AF0F1F088234AF0EE0F56
:100A9800FF1FBB1F661F771F881F91505040A9F783
:100AA8009E3F510580F00C9473090C9467095F3FD1
:100AB800E4F3983ED4F3869577956795B795F795BF
:100AC800E7959F5FC1F7FE2B880F911D9695879537
:040AD80097F90895ED
:100ADC0011C00E94580938F00E945F0920F039F4C7
:100AEC009F3F19F426F40C94B2090EF4E095E7FB41
:100AFC000C947309E92F0E94A90758F3BA176207DF
:100B0C0073078407950720F079F4A6F50C94660911
:100B1C000EF4E0950B2EBA2FA02D0B01B90190010C
:100B2C000C01CA01A0011124FF27591B99F0593F50
:100B3C0050F4503E68F11A16F040A22F232F342F98
:100B4C004427585FF3CF469537952795A795F040E6
:100B5C005395C9F77EF41F16BA0B620B730B840BFB
:100B6C00BAF09150A1F0FF0FBB1F661F771F881FB3
:100B7C00C2F70EC0BA0F621F731F841F48F487950B
:100B8C0077956795B795F7959E3F08F0B0CF9395FD
:0E0B9C00880F08F09927EE0F9795879508951A
:100BAA0080919000882321F081E08093920008953B
:100BBA001092920020919300822F90E0FC01EE0F98
:100BCA00FF1FEE0FFF1FEE0FFF1FE80FF91FE05A7E
:100BDA00FF4F3081311111C02150822F90E0FC016A
:100BEA00EE0FFF1FEE0FFF1FEE0FFF1FE80FF91F9B
:100BFA00E05AFF4F3081332379F3AC01440F551F7C
:100C0A00440F551F440F551F480F591FDA01A05AA8
:100C1A00BF4F1196ED91FC9112970280F381E02D5E
:100C2A001296FC93EE9311974D595F4FE417F5070F
:100C3A0029F442815381FD0152834183FC01EE0F65
:100C4A00FF1FEE0FFF1FEE0FFF1F8E0F9F1FFC01EE
:100C5A00E05AFF4F0180F281E02D868197819093BF
:0C0C6A008F0080938E002093930008956B
:100C76000F920FB6F8940F921F9211242F923F9263
:100C86004F925F926F927F928F929F92AF92BF9296
:100C9600CF92DF92EF92FF920F931F932F933F9382
:100CA6004F935F936F937F938F939F93AF93BF936E
:100CB600CF93DF93EF93FF93A0918E00B0918F00B7
:100CC6000DB60D920EB60D920E94570081110E942C
:100CD600D505A0918E00B0918F00CD91CDBFDD914D
:100CE600DEBFFF91EF91DF91CF91BF91AF919F91C1
:100CF6008F917F916F915F914F913F912F911F91AE
:100D06000F91FF90EF90DF90CF90BF90AF909F90A4
:100D16008F907F906F905F904F903F902F901F9095
:080D26000F900FBE0F9008951D
:100D2E00CF93DF93CDB7DEB7EF970FB6F894DEBF54
:100D3E000FBECDBF60E070E080E80E9415030E94F8
:100D4E009B098E010F5F1F4F8CE0F80111928A955F
:100D5E00E9F7CE014C960E94DF080E947A08C8017E
:100D6E000E9478024CE763E082E00E945C070F2E3F
:100D7E00412C512CF0E26F2EF1E47F2EF02D0F2E30
:100D8E00812C912CF0EAAF2EF1E4BF2EF02D0F2E18
:100D9E00C12CD12CF0EFEF2EF1E4FF2EF02D4C8E66
:100DAE005D8E6E8E7F8E88A299A2AAA2BBA2CCA2C5
:100DBE00DDA2EEA2FFA2BE01635F7F4FCE014C9675
:100DCE000E947601CE010D960E9490080E948D0918
:020DDE00E6CF5E
:100DE000E89409C097FB3EF49095809570956195C5
:100DF0007F4F8F4F9F4F9923A9F0F92F96E9BB277B
:100E00009395F695879577956795B795F111F8CFF6
:100E1000FAF4BB0F11F460FF1BC06F5F7F4F8F4F61
:100E20009F4F16C0882311F096E911C0772321F057
:100E30009EE8872F762F05C0662371F096E8862FEF
:100E400070E060E02AF09A95660F771F881FDAF746
:0A0E5000880F9695879597F908958D
:100E5A000E94B10788F09F5798F0B92F9927B75188
:100E6A00B0F0E1F0660F771F881F991F1AF0BA9544
:100E7A00C9F714C0B13091F00E946609B1E0089533
:100E8A000C946609672F782F8827B85F39F0B93F25
:100E9A00CCF3869577956795B395D9F73EF49095F7
:0E0EAA008095709561957F4F8F4F9F4F0895F3
:100EB8001F93CF93DF93C82F162FD42F0E94ED07CF
:100EC8008FE39CE90197F1F700C00000DCBFC13057
:100ED80058F0C33038F0C33039F40E949F090E949B
:100EE800A30902C00E94A3098FE19EE40197F1F7CC
:100EF80000C00000812F0E941409DF91CF911F913B
:020F080008954A
:100F0A00990F0008550FAA0BE0E8FEEF1616170610
:100F1A00E807F907C0F012161306E407F50798F078
:100F2A00621B730B840B950B39F40A2661F0232B91
:100F3A00242B252B21F408950A2609F4A140A6950D
:080F4A008FEF811D811D089548
:100F520057FD9058440F551F59F05F3F71F0479568
:100F6200880F97FB991F61F09F3F79F0879508954D
:100F7200121613061406551FF2CF4695F1DF08C06C
:100F8200161617061806991FF1CF86957105610589
:040F92000894089522
:100F9600A1E21A2EAA1BBB1BFD010DC0AA1FBB1F77
:100FA600EE1FFF1FA217B307E407F50720F0A21BE9
:100FB600B30BE40BF50B661F771F881F991F1A9456
:100FC60069F760957095809590959B01AC01BD0180
:040FD600CF010895AA
:100FDA0093B7977B93BF95E39A95F1F70000813019
:100FEA0051F028F0823059F0833069F0089583B7C0
:100FFA00877B83BF089583B7806483BF089583B7CF
:0E100A00886083BF089583B7886483BF08950C
:101018001F93CF93DF93182FC4EAD4E8C6BF06B650
:1010280007FEFDCF81B1887F8830C1F713B9D6BFDD
:1010380006B607FEFDCF81B1887F883119F00E947E
:0C1048006D09ECCFDF91CF911F9108954E
:1010540094EA96BF06B607FEFDCF91B1987F903112
:1010640071F483B984E886BF06B607FEFDCF81B16B
:10107400887F803431F0803231F083E0089580E05D
:0A108400089581E0089582E00895C8
:10108E00E0918C00F0918D008081811107C08FEF6F
:10109E009FEF90938500809384000895E0918C00DB
:1010AE00F0918D000580F681E02D808191819093E5
:0810BE00850080938400089571
:1010C600052E97FB1EF400940E94340957FD07D0A5
:1010D6000E94CB0707FC03D04EF40C9434095095BC
:0E10E6004095309521953F4F4F4F5F4F089535
:1010F4002FEF82E597E0215080409040E1F700C057
:10110400000087E00E94790980E00E947E0988E05F
:0C1114000E94830980E10E948809089570
:10112000CF93DF93EC018881882361F021960E94A0
:1011300097098FE39CE90197F1F700C000008991BE
:0A1140008111F5CFDF91CF910895E2
:10114A00AA1BBB1B51E107C0AA1FBB1FA617B707E3
:10115A0010F0A61BB70B881F991F5A95A9F78095FF
:08116A009095BC01CD01089530
:1011720097FB072E16F4009407D077FD09D00E9442
:10118200A50807FC05D03EF4909581959F4F0895E0
:08119200709561957F4F0895EF
:10119A00CF93DF93D82FC62F80ED0E940C088D2F96
:1011AA000E94F1088C2F0E94F1080E946D09DF91BC
:0411BA00CF91089534
:1011BE00FC010C96119211921192119210861186C9
:1011CE0012861386148A158A168A178AE817F90763
:0411DE0089F70895F0
:1011E20083B984E886BF06B607FEFDCF81B1887F4A
:1011F200883221F0803321F082E0089580E0089562
:0412020081E00895EA
:10120600092E0394000C11F4882352F0BB0F40F40E
:10121600BF2B11F460FF04C06F5F7F4F8F4F9F4F4E
:02122600089529
:1012280093B7987F93BF95E39A95F1F7000093B72A
:06123800892B83BF08951D
:10123E00EC010E94BA090E94B909CE010E94BB09B5
:06124E00CE010E94B70969
:1012540080ED0E940C088BE30E94F10881ED0E944E
:041264002A080895B7
:1012680090958095709561957F4F8F4F9F4F08950A
:0E12780084EC86BF06B607FEFDCF83B1089555
:0E12860084E886BF06B607FEFDCF83B108954B
:0E1294005058BB27AA270E946E050C94030930
:0E12A2000E942D076894B1110C9467090895FD
:0E12B00000240A94161617061806090608955B
:0E12BE0000240A94121613061406050608955D
:0E12CC00E894BB2766277727CB0197F9089592
:0C12DA0084E986BF06B604FCFDCF089531
:0C12E60097F99F6780E870E060E00895D1
:0A12F200682F89E10E94CD080895DD
:0A12FC00682F8BE60E94CD080895CC
:0A130600682F8BE10E94CD080895C6
:0A131000682F8CE10E94CD080895BB
:0A131A0008B601FEFDCF12BE0895D3
:0A1324000E94850708F48FEF08957A
:08132E005D9BFECF8CB9089510
:0813360011B888E480B90895A4
:08133E0089B7816089BF0895A1
:0813460089B7826089BF089598
:08134E000E9495040C940309B0
:081356000E9404050C94030938
:06135E000E943B061895F9
:061364009FEF80EC0895EC
:04136A000C940000DF
:04136E000E94550084
:021372000895DC
:021374000895DA
:021376000895D8
:00000001FF
