:100000000C943F000C9485120C9485120C9485126C
:100010000C9485120C9485120C9485120C947F120A
:100020000C9485120C9485120C9485120C948512F4
:100030000C9485120C9485120C9485120C948512E4
:100040000C9485120C9485120C9485120C948512D4
:100050000C9485120060046080046005B4002518CB
:1000600005B40605800605060A00266C060A062960
:10007000800629062A002671062A063180001124EE
:100080001FBECFE5D8E0DEBFCDBFE4E5F0E040E045
:1000900017C0B591A59135912591059107FD0CC02B
:1000A00095918591EF01F92FE82F05900D92A217F8
:1000B000B307D9F7FE0104C01D92A217B307E1F7F9
:1000C000ED37F40731F70E944C0C0C94EA11F894C8
:0200D000FFCF60
:1000D2004F925F926F927F928F929F92AF92BF9256
:1000E200CF92DF92EF92FF920F93CF93DF934C0167
:1000F2006B015A012901CA010E9447053C01892B63
:1001020009F40FC18AE290E00E944705EC01892BB5
:10011200C1F08AE2DE011D928A95E9F7788E6F8A34
:10012200A50165EA70E0C3010E941212B1E0AB1AA8
:10013200B1088F89988DA80EB91EC114D10429F473
:100142001EC0C3010E94A10EECC0F6018081898FFE
:100152008081882399F0AE01465E5F4F319688E038
:10016200C80ED11CCF012191DA012D93AD01DC0122
:100172008C91882319F0EC15FD05A1F718A2043023
:1001820008F003E00E8B0BA36E01B2E0CB0ED11C84
:10019200C6010E945F12CE010C960E945F12D9879F
:1001A200C88784E090E0801B91099D878C87DB8B58
:1001B200CA8BA201B401C5010E94D3089983888326
:1001C200E114F10419F0F701D183C0830FB6F8945A
:1001D2000F9280912F068F5F80932F0680912606C3
:1001E20090912706892BD1F5D0932706C093260636
:1001F20080912F06813009F041C084EB95E00E9486
:10020200B0118DEB95E00E94B01186EC95E00E9452
:10021200B0118FEC95E00E94B0118CEF95E00E9436
:10022200B01183EF95E00E94B0118AEE95E00E9432
:10023200B01181EE95E00E94B01188ED95E00E9428
:10024200B0118CEF95E0909325068093240683EFFE
:1002520095E0909323068093220610C080912D068C
:1002620081110CC0E0912606F091270696898E89AD
:10027200891720F0D0932706C093260680912A067C
:100282008F5F80932A0689A38E8990912E069817F4
:1002920010F480932E0690E0FC01EE0FFF1FEE0F8C
:1002A200FF1FEE0FFF1F8E0F9F1FFC01EC54FA4F32
:1002B2000180F281E02DFD83EC83848195819F830F
:1002C2008E83A481B5811396DC92CE921297D58249
:1002D200C482EE89F0E0CF01880F991F880F991F21
:1002E200880F991FE80FF91FEC54FA4FFB87EA8732
:1002F20080818F5F80830F900FBE80912D068823AF
:1003020061F0E0912606F091270696898E8998176A
:1003120030F40E94F30B81E005C081E003C081E06C
:1003220001C08FEFDF91CF910F91FF90EF90DF909F
:10033200CF90BF90AF909F908F907F906F905F9083
:040342004F9008953B
:10034600EF92FF920F931F93CF93DF93809128062E
:10035600811104C1C0912006D09121067E018FEF44
:10036600E81AF80AF0922106E0922006E114F10458
:10037600B9F48091240690912506209122063091A9
:100386002306309325062093240690932306809314
:10039600220680912B068F5F80932B060E94B51054
:1003A60080911C0690911D06E816F90610F480E06F
:1003B600B9C080E061E0E0912406F09125069081C5
:1003C600911107C02FEF3FEF30931D0620931C06B7
:1003D600A9C0E0912406F09125060580F681E02D5E
:1003E6000680F781E02D22813381E216F30628F498
:1003F60030931D0620931C0695C0A285B3852481E3
:10040600358146815781E9015D834C832681378199
:1004160044815581E9015B834A83AF014E5F5F4F9B
:1004260011962D913C9112972417350731F42681A8
:10043600378112963C932E931197138612869C91C0
:1004460091509C93A489B589109719F12685378513
:1004560000891189E9011D830C832089318906856C
:100466001785E9011B830A8311960D911C9112973A
:100476009F01245F3F4F0217130731F4208931890A
:1004860012963C932E931197158A148A9C9191503B
:100496009C93268990912E06921710F420932E068F
:1004A60030E0D901AA0FBB1FAA0FBB1FAA0FBB1FA3
:1004B6002A0F3B1FD901AC54BA4F11960D90BC912F
:1004C600A02DB583A48314962D913C91159737835F
:1004D600268314962D913C911597E9015B834A83F7
:1004E60015965C934E931497A689B0E09D01220F52
:1004F600331F220F331F220F331FA20FB31FAC541B
:10050600BA4FB387A2879C919F5F9C93A0912606C2
:10051600B0912706268956969C91921708F04BCFE4
:10052600862F49CFE0912606F0912706268930E0EE
:10053600F901EE0FFF1FEE0FFF1FEE0FFF1F2E0F2D
:100546003F1FF901EC54FA4F9081923008F081E098
:1005560090912C06992361F081E00AC080911E06D5
:1005660090911F06019690931F0680931E0680E0C9
:0E057600DF91CF911F910F91FF90EF900895AC
:10058400CF93DF93CDB7DEB7E4970FB6F894DEBF11
:100594000FBECDBF82E290E00E94511180EB94E047
:1005A4000E943C110F2EF4E6EF2EF02DF12C00E00A
:1005B40010E084E1E3ECF4E0DE01139601900D9287
:1005C4008A95E1F78B81882309F4A8C0883281F0E9
:1005D400FE01349680E090E002C0283229F00196B2
:1005E40021912111FACF9AC099230CF497C002C02B
:1005F400802F912F9C012F5F3F4FA3E0B0E0AC0F01
:10060400BD1FA20FB31F4C91442309F487C0483285
:1006140081F00296E3E0F0E0EC0FFD1FE80FF91F14
:1006240002C0883231F02F5F3F4F81918111F9CFA1
:1006340075C033230CF472C0A9014F5F5F4FE3E030
:10064400F0E0EC0FFD1FE40FF51F8081882359F1C2
:1006540080538A3008F46BC02E5F3F4FE3E0F0E034
:10066400EC0FFD1FE20FF31F4F5F5F4F8191882353
:10067400E9F080538A30C0F75AC0AC01440F551FCB
:10068400880F991F880F991F880F991F840F951F32
:1006940030E020533109820F931F219130ED320F46
:1006A4003A3058F305C0802F912F02C0802F912F2C
:1006B4002C91322F3B7F333721F0213611F0243631
:1006C40069F5992314F4802F912F29838536910598
:1006D4000CF08E2D8A8387ED94E00E943C11898171
:1006E4000E94671285EE94E00E943C1120E042E2F1
:1006F40050E0BE016F5F7F4F80910E0690910F0610
:100704000E94A906813029F488EE94E00E943C11ED
:1007140009C08DEF94E00E943C1104C081E195E092
:100724000E943C1184E190E00E94511142CFE3E029
:10073400F0E0EC0FFD1FE40FF51F2081FA01319664
:1007440083E090E08C0F9D1FE80FF91F802F912FFD
:0207540094CF40
:100756001F93CF93DF930FB6F8940F9280912806DC
:10076600815080932806809128068111C6C0809109
:100776002F0681119BC0C4C0DB011596ED91FC913B
:1007860016970680F781E02DA489B5898685978519
:1007960020893189EC013D832C83808991892685C6
:1007A6003785EC013B832A83CF010C9611962D9158
:1007B6003C9112972817390731F48089918912964E
:1007C6009C938E931197158A148A8C9181508C93E1
:1007D600A285B3858481958126813781EC013D838D
:1007E6002C838681978124813581EC013B832A8382
:1007F6009F012E5F3F4F11968D919C911297821704
:10080600930731F48681978112969C938E93119764
:10081600138612868C9181508C93868990912E0630
:10082600981710F480932E0690E0DC01AA0FBB1FE8
:10083600AA0FBB1FAA0FBB1F8A0F9B1FDC01AC545C
:10084600BA4F11960D90BC91A02DB583A483149632
:100856008D919C9115979783868314968D919C9183
:100866001597EC013B832A8315963C932E93149798
:10087600A689B0E0CD01880F991F880F991F880FB0
:10088600991FA80FB91FAC54BA4FB387A2878C9192
:100896008F5F8C93A0912606B0912706968956966F
:1008A6008C91981740F040932C0605C0E0E0F0E0EC
:1008B6006AEE75E041E0DB018C9181115DCFEF2B93
:1008C60011F00E94B510C0911E06D0911F06209708
:1008D60061F011E00E94A301811110932C0621976B
:1008E600C9F710921F0610921E0680912C068823C7
:1008F60031F00E94F30B81E003C080E001C080E08C
:0C0906000F900FBEDF91CF911F9108955C
:10091200CF93DF93DC011596ED91FC91169706803B
:10092200F781E02DA489B589C685D785808991890B
:100932009D838C83C089D189868597859B838A8391
:100942009F01245F3F4F11968D919C9112978217C0
:10095200930731F48089918912969C938E93119713
:10096200158A148A8C9181508C938091280681116A
:1009720060C0A285B385C481D581868197819D831C
:100982008C83C681D781848195819B838A839F01D1
:100992002E5F3F4F11968D919C911297821793076C
:1009A20031F48681978112969C938E9311971386C8
:1009B20012868C9181508C93868990912E0698177D
:1009C20010F480932E0690E0DC01AA0FBB1FAA0F41
:1009D200BB1FAA0FBB1F8A0F9B1FDC01AC54BA4F6F
:1009E20011960D90BC91A02DB583A48314968D9180
:1009F2009C911597978386831496CD91DC911597D8
:100A02003B832A8315963C932E931497A689B0E0D4
:100A1200CD01880F991F880F991F880F991FA80F62
:100A2200B91FAC54BA4FB387A2878C918F5F8C9356
:100A32001CC04AEE55E0DA011196CD91DC91129775
:100A4200D787C6878C819D81918B808B8C819D817C
:100A5200DC0113963C932E9312973D832C83558B86
:100A6200448BDA018C918F5F8C93A0912606B09112
:100A72002706968956968C91891720F481E08093F7
:0C0A82002C0601C080E0DF91CF910895A8
:100A8E00EF92FF920F931F93CF93DF93EC010E948F
:100A9E0053128091180690911906892B11F5EAE0F0
:100AAE00F6E0A0E6B0E0B183A08313821282ECE5FB
:100ABE00F4E0F0931906E093180613821282118265
:100ACE0010828CEF93E013969C938E931297ED9376
:100ADE00FC939093150680931406909317068093BB
:100AEE001606CE0101978A3F9F4F08F067C09E0100
:100AFE002B5F3F4FCB5FDF47C130D04808F461C05A
:100B0E0000911606109117060217130708F45CC021
:100B1E00C0910A06D0910B06EAE0F6E002C0FE0193
:100B2E00EC018A819B818217930720F48881998139
:100B3E000097A9F78091180690911906C817D90742
:100B4E0009F445C0E080F18084E0E80EF11C888154
:100B5E009981918380834A815B81421B530B49307B
:100B6E00510550F0CE01820F931FFC015383428337
:100B7E003B832A830E94990C8A819B81081B190B47
:100B8E001093170600931606209114063091150641
:100B9E000217130720F4109315060093140690689D
:100BAE009B838A8319821882809112069091130674
:100BBE00019690931306809312060BC0E12CF12C34
:100BCE0008C0E12CF12C05C0E12CF12C02C0E12C67
:100BDE00F12C0E94AB03C701DF91CF911F910F91B2
:060BEE00FF90EF90089556
:100BF4000F931F93CF93DF938B014130510509F479
:100C04006AC024F4452B09F444C087C0423051051E
:100C140021F043305105F9F080C0BC01990F880BD5
:100C2400990B0E94C00D9B01AC0160E074E284E763
:100C340099E40E947B1220E030E040E85FE30E94E8
:100C440037120E94330FC62FD72F80B58F7B806851
:100C540080BD599864C0BC01990F880B990B0E9400
:100C6400C00D9B01AC0160E074E284EF99E40E9442
:100C74007B1220E030E040E85FE30E9437120E94DC
:100C8400330FC62FD72F80B58F7B806880BD599ACC
:100C940046C0BC01990F880B990B0E94C00D9B01A3
:100CA400AC0160E074E284EF9AE40E947B1220E0DD
:100CB40030E040E85FE30E9437120E94330FC62FF2
:100CC400D72F80B5806C80BD61E070E080E090E05B
:100CD4000E94B50F24C0BC01990F880B990B0E9488
:100CE400C00D9B01AC0160E074E284EF9AE40E94C1
:100CF4007B1220E030E040E85FE30E9437120E945C
:100D0400330FC62FD72F80B5806C80BD60E070E0B4
:100D140080E090E00E94B50F02C0C0E0D0E0D0BDFA
:100D2400C9B98EE880BD0130110539F002301105D2
:100D340031F0012B39F4549A05C0539A03C08AB197
:0E0D440088618AB9DF91CF911F910F910895B8
:100D52009F92AF92BF92CF92DF92EF92FF920F9348
:100D62001F93CF93DF9300D000D00F92CDB7DEB7A1
:100D72008C016B015D834C83A22EB12C9924939438
:100D82007C0188E0E80EF11C0FB6F8940F92F8018E
:100D9200928D838D981718F0F2E0AF1219C04A2D88
:100DA200B601C8010E94380BF8019189992349F0D4
:100DB200C80141960E948904882331F00E94F30BF6
:100DC20003C081110E94F30B0F900FBE81E050C04F
:100DD2008C819D81892B21F40F900FBE80E048C049
:100DE200B11005C0CE0101960E94C911B92C0F9015
:100DF2000FBE0E9453120FB6F8940F92F801858D20
:100E02008F3F09F4158EF801868D8F3F09F4168EF7
:100E12000F900FBEBE016C5F7F4FCE0101960E9404
:100E2200FB0D81111FC00FB6F8940F92F801928D3D
:100E32000F900FBE838D98130FC06C817D81C70107
:100E42000E948D11C8010E94E60C0E94AB03811121
:100E52009BCF0E94F30B98CFC8010E94E60C0E9420
:100E6200AB0392CFC8010E94E60C0E94AB0380E064
:100E72000F900F900F900F900F90DF91CF911F91D5
:100E82000F91FF90EF90DF90CF90BF90AF909F9027
:020E92000895C1
:100E94009F92AF92BF92CF92DF92EF92FF920F9305
:100EA4001F93CF93DF9300D000D00F92CDB7DEB75E
:100EB4008C015B015D834C83E12C992493946C0138
:100EC40081E1C80ED11C0FB6F8940F92F801F28C90
:100ED400FF20A9F0B501C8010E942211FA94F8017B
:100EE400F28E8085882339F0C80108960E9489040F
:100EF40081110E94F30B0F900FBE81E051C08C81D1
:100F04009D81892B21F40F900FBE80E049C0E11030
:100F140005C0CE0101960E94C911E92C0F900FBEA5
:100F24000E9453120FB6F8940F92F801858D8F3FEB
:100F340009F4158EF801868D8F3F09F4168E0F90F3
:100F44000FBEBE016C5F7F4FCE0101960E94FB0D68
:100F540081111AC0C8010E94BE11882379F06C81E6
:100F64007D81C6010E948D11C8010E94E60C0E9479
:100F7400AB038111A8CF0E94F30BA5CFC8010E9437
:100F8400E60C0E94AB039FCFC8010E94E60C0E94AE
:100F9400AB03C8010E94BE11882309F494CF80E0FA
:100FA4000F900F900F900F900F90DF91CF911F91A2
:100FB4000F91FF90EF90DF90CF90BF90AF909F90F4
:020FC40008958E
:100FC600FF920F931F93CF93DF93EC01F62E0091C0
:100FD60020061091210680912606909127060296FA
:100FE6000E948E0FCF3F8FEFD807B1F5FF20A1F1FA
:100FF600E8EDF5E0A181B281C0912606D0912706E1
:10100600BD83AC83C0912606D091270614968D9198
:101016009C9115979F838E831496CD91DC9115979D
:10102600809126069091270602969B838A8380915B
:10103600260690912706029615969C938E931497F2
:10104600A0912606B09127061B96FC93EE931A975D
:1010560080818F5F80832FC0C00FD11FE09126064D
:10106600F0912706D383C283C017D10768F4609135
:1010760026067091270680912206909123066E5FC0
:101086007F4F0E94D20E17C06091260670912706E8
:1010960080912406909125066E5F7F4F0E94D20EA6
:1010A60080911C0690911D06C817D90720F4D0938D
:1010B6001D06C0931C06DF91CF911F910F91FF90E3
:0210C60008958B
:1010C80010C00E94451258F00E943E1240F029F4C8
:1010D8005F3F29F00C94591251110C944D120C9445
:1010E80082120E941B1068F39923B1F3552391F3E0
:1010F800951B550BBB27AA2762177307840738F07F
:101108009F5F5F4F220F331F441FAA1FA9F335D0DB
:101118000E2E3AF0E0E832D091505040E695001C8F
:10112800CAF72BD0FE2F29D0660F771F881FBB1F49
:10113800261737074807AB07B0E809F0BB0B802D27
:10114800BF01FF2793585F4F3AF09E3F510578F053
:101158000C9459120C944D125F3FE4F3983ED4F36B
:10116800869577956795B795F7959F5FC9F7880F27
:10117800911D9695879597F90895E1E0660F771F79
:10118800881FBB1F621773078407BA0720F0621B0A
:0E119800730B840BBA0BEE1F88F7E0950895D9
:1011A60031E1FC013083319722E220833197A3E3BA
:1011B600A08331976083319770833197108231977E
:1011C60060E8608331971082319762E060833197DF
:1011D60063E06083319764E06083319765E0608304
:1011E600319766E06083319767E06083319768E006
:1011F6006083319769E06083319760E1608331975E
:101206003083319732E13083319733E13083319740
:1012160034E13083319735E13083319736E13083DD
:10122600319737E13083319738E13083319739E1AF
:101236003083319730E23083319731E23083319712
:101246002083319723E2208331974083319750835F
:10125600319726E22083319727E22083319728E2CF
:101266002083319729E22083319720E32083319729
:0812760021E32083869708950F
:10127E0011C00E943E1238F00E94451220F039F43F
:10128E009F3F19F426F40C9482120EF4E095E7FBBE
:10129E000C945912E92F0E941B1058F3BA176207CB
:1012AE0073078407950720F079F4A6F50C944C1279
:1012BE000EF4E0950B2EBA2FA02D0B01B901900163
:1012CE000C01CA01A0011124FF27591B99F0593FA7
:1012DE0050F4503E68F11A16F040A22F232F342FEF
:1012EE004427585FF3CF469537952795A795F0403D
:1012FE005395C9F77EF41F16BA0B620B730B840B52
:10130E00BAF09150A1F0FF0FBB1F661F771F881F09
:10131E00C2F70EC0BA0F621F731F841F48F4879561
:10132E0077956795B795F7959E3F08F0B0CF939553
:0E133E00880F08F09927EE0F97958795089570
:10134C00CF93DF9300D00F92CDB7DEB782E290E05F
:10135C000E94511180E694E00E943C11FF24FA9403
:10136C0004E610E042E250E0BE016F5F7F4F8091D7
:10137C000E0690910F060E944A07813009F041C079
:10138C0085E794E00E943C118A81F89EC0011124EB
:10139C00B8010E9479116B838981843619F118F494
:1013AC008136B9F028C0833759F0873721F5CE0143
:1013BC0003960E943D1085E894E00E943C1121C0E8
:1013CC00CE0103960E945B108FE894E00E943C11C2
:1013DC0018C0CE0103960E9497108AE994E00E94EF
:1013EC003C110FC0CE0103960E94791081EA94E063
:1013FC000E943C1106C00E94D11089EA94E00E9420
:0C140C003C1184E190E00E945111ACCF33
:1014180080912806882321F081E080932C06089586
:1014280010922C0620912E06822F90E0FC01EE0FE0
:10143800FF1FEE0FFF1FEE0FFF1FE80FF91FEC5401
:10144800FA4F3081311111C02150822F90E0FC01F8
:10145800EE0FFF1FEE0FFF1FEE0FFF1FE80FF91F24
:10146800EC54FA4F3081332379F3AC01440F551F04
:10147800440F551F440F551F480F591FDA01AC542C
:10148800BA4F1196ED91FC9112970280F381E02DED
:101498001296FC93EE93119749545A4FE417F507A7
:1014A80029F442815381FD0152834183FC01EE0FEF
:1014B800FF1FEE0FFF1FEE0FFF1F8E0F9F1FFC0178
:1014C800EC54FA4F0180F281E02D86819781909348
:0C14D80027068093260620932E06089518
:1014E400EF92FF920F931F93CF93DF93FC01362F5C
:1014F400892B09F44CC0238D222309F44AC0022FFE
:1015040010E0448DE42EF12C8FEF9FEFB8010E9480
:1015140065116E157F0508F43EC0EF010FB6F8940F
:101524000F9260817181CB01249F800D911D112444
:1015340095838483128E73836283015011090E9DF7
:10154400C0010F9D900D1E9D900D1124860F971FB5
:10155400978386838FEF858F868F31110CC08085AA
:10156400882389F0CF0108960E948904882359F0C2
:101574000E94F30B08C0CF0108960E94B011CE015F
:1015840041960E94B0110F900FBE81E005C080E02B
:1015940003C080E001C080E0DF91CF911F910F91E3
:0615A400FF90EF90089596
:1015AA000F931F93CF93DF93FC01892B09F451C04A
:1015BA0084A1815084A3268993A1291709F44BC0D9
:1015CA0081114BC0EF018F010E5F1F4FC8010E94AE
:1015DA008E0F8BA18E8B24E030E0281B31093D87CA
:1015EA002C8790912E06981710F480932E0690E07F
:1015FA00FC01EE0FFF1FEE0FFF1FEE0FFF1F8E0FF6
:10160A009F1FFC01EC54FA4F0180F281E02DFD830B
:10161A00EC83848195819F838E83A481B5811396FF
:10162A001C930E93129715830483EE89F0E0CF0181
:10163A00880F991F880F991F880F991FE80FF91FA4
:10164A00EC54FA4FFB87EA8780818F5F808381E0C1
:10165A0005C080E003C080E001C080E0DF91CF9147
:06166A001F910F9108958D
:101670000F931F93CF93DF93EC01042F1A8D4C8DA2
:1016800041110CC088819981892B09F042C08C815D
:101690009D810E94D50A1D821C8242C0011117C083
:1016A00050E08A819B810E94F5112C8D8A819B815B
:1016B000820F911D9B838A832C813D818217930722
:1016C00050F1888199819B838A8380E029C050E012
:1016D0008E819F810E94F5118C8D90E0919581956E
:1016E00091092E813F81280F391F3F832E83488126
:1016F00059812417350730F42C813D81820F931FC7
:101700009F838E83023049F4112349F0115080E009
:1017100007C080E005C080E003C080E001C080E039
:0E1720001F5F1A8FDF91CF911F910F910895D7
:10172E000F920FB6F8940F921F9211242F923F92A0
:10173E004F925F926F927F928F929F92AF92BF92D3
:10174E00CF92DF92EF92FF920F931F932F933F93BF
:10175E004F935F936F937F938F939F93AF93BF93AB
:10176E00CF93DF93EF93FF93A0912606B0912706B8
:10177E000DB60D920EB60D920E94A30181110E941C
:10178E000C0AA0912606B0912706CD91CDBFDD9112
:10179E00DEBFFF91EF91DF91CF91BF91AF919F91FE
:1017AE008F917F916F915F914F913F912F911F91EB
:1017BE000F91FF90EF90DF90CF90BF90AF909F90E2
:1017CE008F907F906F905F904F903F902F901F90D3
:0817DE000F900FBE0F9008955B
:1017E6000F920FB6F8940F921F9211242F923F92E8
:1017F6004F925F926F927F928F929F92AF92BF921B
:10180600CF92DF92EF92FF920F931F932F933F9306
:101816004F935F936F937F938F939F93AF93BF93F2
:10182600CF93DF93EF93FF93A0912606B0912706FF
:101836000DB60D920EB60D920E940C0AA0912606C8
:10184600B0912706CD91CDBFDD91DEBFFF91EF911F
:10185600DF91CF91BF91AF919F918F917F916F91C2
:101866005F914F913F912F911F910F91FF90EF90B4
:10187600DF90CF90BF90AF909F908F907F906F90AA
:101886005F904F903F902F901F900F900FBE0F903C
:021896000895B3
:1018980042E050E061E070E080E895E20E94FA05DD
:1018A8000E94330D40E062E083E00E947B0D90933C
:1018B8000F0680930E06892B29F480E295E00E949A
:1018C8003C11FFCF88E395E00E943C11E12CF12CFC
:1018D80002E020E030E040E850E065E575E082ECA9
:1018E80092E00E946900813029F089E595E00E9424
:1018F8003C11FFCFE12CF12C01E020E030E040E882
:1019080050E064E775E086EA99E00E94690081305A
:1019180029F08AE795E00E943C11FFCF87E995E01E
:0A1928000E943C110E94620FFFCFE5
:10193200CF93DF93DC01EAE0F6E001C0F9012081F8
:1019420031812A173B07D0F382819381AF01480F7F
:10195200591FA417B50749F412964D915C9113973C
:10196200840F951F93838283DF0112968D919C9140
:101972001397ED01C80FD91F2C173D07D9F42091F9
:10198200180630911906C217D30781F02A813B81CC
:10199200820F931F13969C938E931297C081D181CD
:1019A2008881998111969C938E9307C01196DC933E
:1019B200CE9303C011963C932E93AE17BF0711F03E
:0A19C200B183A083DF91CF91089557
:1019CC00EF92FF920F931F93CF938C010FB6F89465
:1019DC000F92FC01C68D1C16ACF48189811106C0D6
:1019EC0011C0F8018189811105C00CC07801F1E1A9
:1019FC00EF0EF11CC7010E94890481110E94631231
:101A0C00C15079F78FEFF801868F0F900FBE0FB68C
:101A1C00F8940F92C58D1C16ACF48085811106C00C
:101A2C0011C0F8018085811105C00CC07801F8E067
:101A3C00EF0EF11CC7010E94890481110E946312F0
:101A4C00C15079F78FEFF801858F0F900FBECF91B2
:0A1A5C001F910F91FF90EF90089585
:101A6600CF930E94221263E083E00E94001282E07C
:101A76000E94D411C0E8CCBF0E94301264E083E01B
:101A86000E94091282E00E94DF11C3BD61E070E08E
:101A960083E090E00E94D70F61E070E084E090E080
:101AA6000E94D70F61E070E085E090E00E94D70FBA
:101AB60061E070E086E090E00E94D70F60E070E0A1
:101AC60083E090E00E94030F60E070E084E090E025
:101AD6000E94030F60E070E085E090E00E94030F33
:101AE60060E070E086E090E00E94030FCF910895D9
:101AF600FF920F931F93CF93DF93282F362F8823C0
:101B060059F1682F70E08FEF9FEF0E946511832FC8
:101B160090E06817790718F1239FC00111248F3DC3
:101B26005FEF9507F8F4F42E032F122F81960E948B
:101B36004705EC010097C1F0011103C09983888322
:101B460003C08196998388831B8F0C8F61E0CE0139
:101B56000E94720AF8A208C0C0E0D0E005C0C0E04A
:101B6600D0E002C0C0E0D0E0CE01DF91CF911F915E
:061B76000F91FF9008959D
:101B7C00E89409C097FB3EF490958095709561951B
:101B8C007F4F8F4F9F4F9923A9F0F92F96E9BB27D1
:101B9C009395F695879577956795B795F111F8CF4D
:101BAC00FAF4BB0F11F460FF1BC06F5F7F4F8F4FB8
:101BBC009F4F16C0882311F096E911C0772321F0AE
:101BCC009EE8872F762F05C0662371F096E8862F46
:101BDC0070E060E02AF09A95660F771F881FDAF79D
:0A1BEC00880F9695879597F90895E4
:101BF600CF93DF930FB6F8940F9220912006309181
:101C06002106DB014D915C914F3FBFEF5B0719F158
:101C1600EC01E981FA81A0912B06B881BA1741F04F
:101C26002E173F0728F0FB011182108281E014C0B5
:101C36002E1B3F0B2417350748F4FB01421B530BA1
:101C4600518340830E94C91180E006C0DB011D92CA
:101C56001C9281E001C080E00F900FBEDF91CF9112
:021C66000895DF
:101C680001EE15E00F2EF4EBEF2EF5E0FF2EF02D30
:101C780080913006882329F10FB6F8940F92D80185
:101C88001596ED91FC911697C681D781CE010296E3
:101C98000E948E0F80912F06815080932F0680918D
:101CA80030068150809330060F900FBE8F89988D33
:101CB8000E94A10ECE010E94A10E809130068111D2
:101CC800DBCFF7018081823098F20E94F30BD0CFEE
:101CD8001BBC89EF8ABD8BE08EBD89B7806189BF47
:101CE800A0912606B0912706CD91CDBFDD91DEBF2C
:101CF800FF91EF91DF91CF91BF91AF919F918F911C
:101D08007F916F915F914F913F912F911F910F910B
:101D1800FF90EF90DF90CF90BF90AF909F908F9003
:101D28007F906F905F904F903F902F901F900F90F3
:0A1D38000FBE0F90089581E008959A
:101D4200CF93DF93009751F1FC01349722813381C5
:101D5200332324F540815181452B01F5EF013F7773
:101D6200338322830E945312209116063091170664
:101D72008A819B81820F931F909317068093160688
:101D8200CE010E94990C8091100690911106019645
:101D920090931106809310060E94AB03DF91CF91BE
:021DA2000895A2
:101DA400CF93DF93EB01488159814F3F2FEF5207C7
:101DB40021F4FC01A781B0850DC0DC01139601C09C
:101DC400DF011296ED91FC91139720813181421726
:101DD4005307B0F71296ED91FC911397FB83EA83B6
:101DE400D583C483BD83AC831396DC93CE931297BF
:101DF40099878887FC0120812F5F2083DF91CF9111
:021E040008953F
:101E06006130710599F062307105E9F0672B39F59B
:101E160045B321E030E0B90102C0660F771F8A950D
:101E2600E2F7CB018095842385BB089545B321E075
:101E360030E0B90102C0660F771F8A95E2F7CB0141
:101E4600842B85BB089545B321E030E0B90102C07B
:101E5600660F771F8A95E2F7CB01842785BB089525
:101E66000E94231088F09F5798F0B92F9927B751F1
:101E7600B0F0E1F0660F771F881F991F1AF0BA9528
:101E8600C9F714C0B13091F00E944C12B1E0089528
:101E96000C944C12672F782F8827B85F39F0B93F1A
:101EA600CCF3869577956795B395D9F73EF49095DB
:0E1EB6008095709561957F4F8F4F9F4F0895D7
:101EC400EF92FF920F930F2EFAE1EF2EF6E0FF2E22
:101ED400F02D00E020E030E045E550E065E076E0FC
:101EE40084E39EE00E946900813081F4F8948FEFCE
:101EF4009FEF90931D0680931C0681E080932D062E
:101F040010922106109220060E946C0E80912906E0
:081F14000F91FF90EF9008957A
:101F1C00CF93DF93FC01A085B185C281D3818481ED
:101F2C0095819D838C83C481D581828193819B8390
:101F3C008A8311968D919C911297E817F90731F4C9
:101F4C008481958112969C938E931197118610869D
:0E1F5C008C9181508C938C91DF91CF910895E0
:101F6A006115710521F06130710579F0089547B363
:101F7A0021E030E0B90102C0660F771F8A95E2F7C7
:101F8A00CB018095842387BB089547B321E030E0D5
:101F9A00B90102C0660F771F8A95E2F7CB01842B3D
:041FAA0087BB089554
:101FAE006115710521F06130710579F0089544B322
:101FBE0021E030E0B90102C0660F771F8A95E2F783
:101FCE00CB018095842384BB089544B321E030E097
:101FDE00B90102C0660F771F8A95E2F7CB01842BF9
:041FEE0084BB089513
:101FF2006115710521F06130710579F0089541B3E1
:1020020021E030E0B90102C0660F771F8A95E2F73E
:10201200CB018095842381BB089541B321E030E058
:10202200B90102C0660F771F8A95E2F7CB01842BB4
:0420320081BB0895D1
:1020360057FD9058440F551F59F05F3F71F0479573
:10204600880F97FB991F61F09F3F79F08795089558
:10205600121613061406551FF2CF4695F1DF08C077
:10206600161617061806991FF1CF86957105610594
:04207600089408952D
:10207A00FC01208123BD80818CBF61E070E083E098
:10208A0090E00E94030F60E070E084E090E00E941C
:10209A00030F61E070E085E090E00E94030F60E0CA
:0C20AA0070E086E090E00E94030F0895B3
:1020B600FC01208123BD80818CBF60E070E083E05D
:1020C60090E00E94030F61E070E084E090E00E94DF
:1020D600030F60E070E085E090E00E94030F61E08E
:0C20E60070E086E090E00E94030F089577
:1020F200FC01208123BD80818CBF61E070E083E020
:1021020090E00E94030F60E070E084E090E00E94A3
:10211200030F60E070E085E090E00E94030F61E051
:0C21220070E086E090E00E94030F08953A
:10212E00FC01208123BD80818CBF60E070E083E0E4
:10213E0090E00E94030F61E070E084E090E00E9466
:10214E00030F61E070E085E090E00E94030F60E015
:0C215E0070E086E090E00E94030F0895FE
:10216A00E0912406F09125068081811107C08FEF46
:10217A009FEF90931D0680931C060895E091240614
:10218A00F09125060580F681E02D8081918190935A
:08219A001D0680931C06089548
:1021A20060E070E083E090E00E94030F60E070E086
:1021B20084E090E00E94030F60E070E085E090E030
:1021C2000E94030F60E070E086E090E00E94030F3F
:0621D20013BC1CBE0895C1
:1021D800813049F028F0823051F0833081F0089541
:1021E8000E946B12089583B7806483BF089584E6C4
:1021F8008CBF83B7886083BF0E946F12089583B72E
:06220800886483BF089505
:10220E00813049F028F0823051F0833081F008950A
:10221E000E947312089585B5806485BD089584E685
:10222E0083BD85B5886085BD0E947712089585B5FA
:06223E00886485BD0895CF
:10224400FC01448D4423A9F050E026813781240FFA
:10225400351F37832683848195812817390720F019
:102264008081918197838683CB01668177810E94E7
:04227400F5110895C3
:10227800CF93DF93EC018881882361F021960E9437
:1022880067128FE39CE90197F1F700C0000089917C
:0A2298008111F5CFDF91CF91089579
:1022A200CF93DF93EC01892B51F00E94531260E02F
:1022B200CE010E94E3070E94AB03811102C00E947B
:0822C200F30BDF91CF910895A9
:1022CA00AA1BBB1B51E107C0AA1FBB1FA617B70752
:1022DA0010F0A61BB70B881F991F5A95A9F780956E
:0822EA009095BC01CD0108959F
:1022F20097FB072E16F4009407D077FD09D00E94B1
:10230200651107FC05D03EF4909581959F4F089585
:08231200709561957F4F08955D
:10231A00CF93DF93EB016091260670912706645FE5
:10232A007F4F0E94D20E61E0CE010E94E307DF9147
:04233A00CF910895A2
:10233E00092E0394000C11F4882352F0BB0F40F4C5
:10234E00BF2B11F460FF04C06F5F7F4F8F4F9F4F05
:02235E000895E0
:10236000FC010396928381832FEF3FEF3483238315
:0C237000968385839087878310820895F0
:10237C000FB6F8940F92FC01928D0F900FBE81E076
:06238C00911180E00895AC
:1023920020912B06FC0120832091200630912106FA
:0623A2003283218308953F
:1023A80093B79F7C93BF23B730E1839FC00111246B
:0623B800822B83BF089593
:1023BE0095B59F7C95BD25B530E1839FC001112455
:0623CE00822B85BD08957D
:1023D400EC010E948A120E948912CE010E948B1283
:0623E400CE010E948712E9
:1023EA00FB01DC01480F591FA417B50719F0219109
:0623FA002D93FACF0895B7
:10240000CF93C62F0E94EC108C2F0E941B12CF91ED
:0224100008952D
:10241200CF93C62F0E9407118C2F0E942912CF91B1
:0224220008951B
:10242400FC01480F591FE417F50711F06193FBCF26
:02243400089509
:0E24360093B7987F93BF93B7892B83BF089508
:0E24440061E070E083E090E00E94B50F089523
:0E24520095B5987F95BD95B5892B85BD0895EC
:0E24600061E070E087E090E00E94F90F0895BF
:0E246E005058BB27AA270E943F090C949F11CB
:0E247C0000240A94161617061806090608957D
:0E248A0000240A94121613061406050608957F
:0E249800E894BB2766277727CB0197F90895B4
:0C24A600809128068F5F8093280608951F
:0C24B20097F99F6780E870E060E00895F3
:0824BE00FC011186108608954F
:0824C60081E080932C060895CB
:0824CE005D9BFECF8CB908955F
:0824D60089B7816089BF0895F8
:0824DE0089B7826089BF0895EF
:0824E60089B7806489BF0895E5
:0824EE0089B7806889BF0895D9
:0824F6000E9464080C949F1180
:0624FE000E94970B1895E7
:062504009FEF80EC08953A
:04250A000C9400002D
:04250E000E946700C0
:0225120008952A
:02251400089528
:02251600089526
:102518004D6F746F72205461736B207374617274A1
:1025280065640D0A004461746120726563656976AB
:1025380065640D0A00466F72776172640D0A004285
:1025480061636B776172640D0A004C6566740D0AED
:102558000052696768740D0A0053746F700D0A00A1
:102568004D5055205461736B2073746172746564A7
:102578000D0A00646972287729202C20737065651C
:1025880064283130302900446174612070617273AD
:1025980065643A20000D0A00446174612073656E19
:1025A8007420746F2071756575650D0A0051756525
:1025B80075652073656E64206661696C65640D0AD3
:1025C800005061727365206661696C65640D0A006C
:1025D8005175657565206372656174696F6E2066F3
:1025E80061696C65640D0A005175657565206372D3
:1025F8006561746564207375636365737366756C70
:102608006C790D0A004D5055004D5055207461737A
:102618006B206372656174696F6E206661696C65B1
:10262800640D0A004D6F746F72004D6F746F7220E5
:102638007461736B206372656174696F6E20666183
:10264800696C65640D0A005461736B73206372656D
:1026580061746564207375636365737366756C6C08
:04266800790D0A00DE
:05266C0049444C45004B
:012671000365
:00000001FF
